{
  "contractName": "CertificateRegistry",
  "abi": [
    {
      "inputs": [],
      "stateMutability": "nonpayable",
      "type": "constructor"
    },
    {
      "anonymous": false,
      "inputs": [
        {
          "indexed": false,
          "internalType": "string",
          "name": "certHash",
          "type": "string"
        },
        {
          "indexed": false,
          "internalType": "string",
          "name": "recipientName",
          "type": "string"
        },
        {
          "indexed": false,
          "internalType": "string",
          "name": "eventName",
          "type": "string"
        },
        {
          "indexed": false,
          "internalType": "string",
          "name": "issuedDate",
          "type": "string"
        }
      ],
      "name": "CertificateIssued",
      "type": "event"
    },
    {
      "anonymous": false,
      "inputs": [
        {
          "indexed": false,
          "internalType": "string",
          "name": "certHash",
          "type": "string"
        }
      ],
      "name": "CertificateRevoked",
      "type": "event"
    },
    {
      "inputs": [],
      "name": "admin",
      "outputs": [
        {
          "internalType": "address",
          "name": "",
          "type": "address"
        }
      ],
      "stateMutability": "view",
      "type": "function",
      "constant": true
    },
    {
      "inputs": [
        {
          "internalType": "address",
          "name": "",
          "type": "address"
        }
      ],
      "name": "admins",
      "outputs": [
        {
          "internalType": "string",
          "name": "name",
          "type": "string"
        },
        {
          "internalType": "address",
          "name": "adminAddress",
          "type": "address"
        }
      ],
      "stateMutability": "view",
      "type": "function",
      "constant": true
    },
    {
      "inputs": [
        {
          "internalType": "address",
          "name": "",
          "type": "address"
        }
      ],
      "name": "students",
      "outputs": [
        {
          "internalType": "string",
          "name": "name",
          "type": "string"
        },
        {
          "internalType": "address",
          "name": "studentAddress",
          "type": "address"
        }
      ],
      "stateMutability": "view",
      "type": "function",
      "constant": true
    },
    {
      "inputs": [],
      "name": "getMyAddress",
      "outputs": [
        {
          "internalType": "address",
          "name": "",
          "type": "address"
        }
      ],
      "stateMutability": "view",
      "type": "function",
      "constant": true
    },
    {
      "inputs": [
        {
          "internalType": "string",
          "name": "_studentName",
          "type": "string"
        },
        {
          "internalType": "address",
          "name": "_studentAddress",
          "type": "address"
        }
      ],
      "name": "addStudent",
      "outputs": [],
      "stateMutability": "nonpayable",
      "type": "function"
    },
    {
      "inputs": [
        {
          "internalType": "string",
          "name": "_adminName",
          "type": "string"
        },
        {
          "internalType": "address",
          "name": "_adminAddress",
          "type": "address"
        }
      ],
      "name": "addAdmin",
      "outputs": [],
      "stateMutability": "nonpayable",
      "type": "function"
    },
    {
      "inputs": [],
      "name": "getStudentNames",
      "outputs": [
        {
          "internalType": "string[]",
          "name": "",
          "type": "string[]"
        }
      ],
      "stateMutability": "view",
      "type": "function",
      "constant": true
    },
    {
      "inputs": [
        {
          "internalType": "string",
          "name": "_studentName",
          "type": "string"
        }
      ],
      "name": "getStudentAddressByName",
      "outputs": [
        {
          "internalType": "address",
          "name": "",
          "type": "address"
        }
      ],
      "stateMutability": "view",
      "type": "function",
      "constant": true
    },
    {
      "inputs": [
        {
          "internalType": "address",
          "name": "_studentAddress",
          "type": "address"
        }
      ],
      "name": "isStudent",
      "outputs": [
        {
          "internalType": "bool",
          "name": "",
          "type": "bool"
        }
      ],
      "stateMutability": "view",
      "type": "function",
      "constant": true
    },
    {
      "inputs": [],
      "name": "getAdminNames",
      "outputs": [
        {
          "internalType": "string[]",
          "name": "",
          "type": "string[]"
        }
      ],
      "stateMutability": "view",
      "type": "function",
      "constant": true
    },
    {
      "inputs": [
        {
          "internalType": "string",
          "name": "_adminName",
          "type": "string"
        }
      ],
      "name": "getAdminAddressByName",
      "outputs": [
        {
          "internalType": "address",
          "name": "",
          "type": "address"
        }
      ],
      "stateMutability": "view",
      "type": "function",
      "constant": true
    },
    {
      "inputs": [
        {
          "internalType": "address",
          "name": "_adminAddress",
          "type": "address"
        }
      ],
      "name": "isAdmin",
      "outputs": [
        {
          "internalType": "bool",
          "name": "",
          "type": "bool"
        }
      ],
      "stateMutability": "view",
      "type": "function",
      "constant": true
    },
    {
      "inputs": [
        {
          "internalType": "string",
          "name": "_studentName",
          "type": "string"
        }
      ],
      "name": "updateStudent",
      "outputs": [],
      "stateMutability": "nonpayable",
      "type": "function"
    },
    {
      "inputs": [
        {
          "internalType": "string",
          "name": "_adminName",
          "type": "string"
        }
      ],
      "name": "updateAdmin",
      "outputs": [],
      "stateMutability": "nonpayable",
      "type": "function"
    },
    {
      "inputs": [
        {
          "internalType": "string",
          "name": "_recipientName",
          "type": "string"
        },
        {
          "internalType": "string",
          "name": "_eventName",
          "type": "string"
        },
        {
          "internalType": "string",
          "name": "_eventDescription",
          "type": "string"
        },
        {
          "internalType": "string",
          "name": "_issuedDate",
          "type": "string"
        },
        {
          "internalType": "string",
          "name": "_certHash",
          "type": "string"
        },
        {
          "internalType": "address",
          "name": "_studentAddress",
          "type": "address"
        }
      ],
      "name": "issueCertificate",
      "outputs": [],
      "stateMutability": "nonpayable",
      "type": "function"
    },
    {
      "inputs": [
        {
          "internalType": "string",
          "name": "_certHash",
          "type": "string"
        }
      ],
      "name": "verifyCertificate",
      "outputs": [
        {
          "internalType": "string",
          "name": "",
          "type": "string"
        },
        {
          "internalType": "string",
          "name": "",
          "type": "string"
        },
        {
          "internalType": "string",
          "name": "",
          "type": "string"
        },
        {
          "internalType": "string",
          "name": "",
          "type": "string"
        },
        {
          "internalType": "bool",
          "name": "",
          "type": "bool"
        }
      ],
      "stateMutability": "view",
      "type": "function",
      "constant": true
    },
    {
      "inputs": [
        {
          "internalType": "string",
          "name": "_certHash",
          "type": "string"
        }
      ],
      "name": "revokeCertificate",
      "outputs": [],
      "stateMutability": "nonpayable",
      "type": "function"
    },
    {
      "inputs": [
        {
          "internalType": "string",
          "name": "_certHash",
          "type": "string"
        }
      ],
      "name": "getCertificate",
      "outputs": [
        {
          "components": [
            {
              "internalType": "string",
              "name": "recipientName",
              "type": "string"
            },
            {
              "internalType": "string",
              "name": "eventName",
              "type": "string"
            },
            {
              "internalType": "string",
              "name": "eventDescription",
              "type": "string"
            },
            {
              "internalType": "string",
              "name": "issuedDate",
              "type": "string"
            },
            {
              "internalType": "string",
              "name": "certHash",
              "type": "string"
            },
            {
              "internalType": "bool",
              "name": "isValid",
              "type": "bool"
            }
          ],
          "internalType": "struct CertificateRegistry.Certificate",
          "name": "",
          "type": "tuple"
        }
      ],
      "stateMutability": "view",
      "type": "function",
      "constant": true
    },
    {
      "inputs": [
        {
          "internalType": "address",
          "name": "_owner",
          "type": "address"
        }
      ],
      "name": "getCertificatesByOwner",
      "outputs": [
        {
          "components": [
            {
              "internalType": "string",
              "name": "recipientName",
              "type": "string"
            },
            {
              "internalType": "string",
              "name": "eventName",
              "type": "string"
            },
            {
              "internalType": "string",
              "name": "eventDescription",
              "type": "string"
            },
            {
              "internalType": "string",
              "name": "issuedDate",
              "type": "string"
            },
            {
              "internalType": "string",
              "name": "certHash",
              "type": "string"
            },
            {
              "internalType": "bool",
              "name": "isValid",
              "type": "bool"
            }
          ],
          "internalType": "struct CertificateRegistry.Certificate[]",
          "name": "",
          "type": "tuple[]"
        }
      ],
      "stateMutability": "view",
      "type": "function",
      "constant": true
    }
  ],
  "bytecode": "0x60806040523480156200001157600080fd5b5033600660006101000a81548173ffffffffffffffffffffffffffffffffffffffff021916908373ffffffffffffffffffffffffffffffffffffffff16021790555060405180604001604052806040518060400160405280600b81526020017f53757065722041646d696e00000000000000000000000000000000000000000081525081526020013373ffffffffffffffffffffffffffffffffffffffff16815250600160003373ffffffffffffffffffffffffffffffffffffffff1673ffffffffffffffffffffffffffffffffffffffff168152602001908152602001600020600082015181600001908051906020019062000110929190620001c4565b5060208201518160010160006101000a81548173ffffffffffffffffffffffffffffffffffffffff021916908373ffffffffffffffffffffffffffffffffffffffff1602179055509050506003339080600181540180825580915050600190039060005260206000200160009091909190916101000a81548173ffffffffffffffffffffffffffffffffffffffff021916908373ffffffffffffffffffffffffffffffffffffffff160217905550620002d9565b828054620001d29062000274565b90600052602060002090601f016020900481019282620001f6576000855562000242565b82601f106200021157805160ff191683800117855562000242565b8280016001018555821562000242579182015b828111156200024157825182559160200191906001019062000224565b5b50905062000251919062000255565b5090565b5b808211156200027057600081600090555060010162000256565b5090565b600060028204905060018216806200028d57607f821691505b60208210811415620002a457620002a3620002aa565b5b50919050565b7f4e487b7100000000000000000000000000000000000000000000000000000000600052602260045260246000fd5b61389e80620002e96000396000f3fe608060405234801561001057600080fd5b50600436106101215760003560e01c806382f7d392116100ad578063bed8820811610071578063bed8820814610356578063bfe8aea214610372578063ed0f2e7514610390578063f851a440146103c0578063fdb668eb146103de57610121565b806382f7d392146102875780638b23d875146102b75780639a166299146102eb5780639a986b8d14610309578063a6c807a91461032557610121565b80631db73840116100f45780631db73840146101aa57806324d7806c146101da57806338268bd81461020a578063429b62e51461023a57806372c27fc51461026b57610121565b806301a23739146101265780630831b05f1461015657806310468c2f14610172578063142e15421461018e575b600080fd5b610140600480360381019061013b9190612ac9565b6103fc565b60405161014d91906132d0565b60405180910390f35b610170600480360381019061016b9190612b0a565b610595565b005b61018c60048036038101906101879190612b0a565b6108c8565b005b6101a860048036038101906101a39190612ac9565b610acf565b005b6101c460048036038101906101bf9190612aa0565b610cdb565b6040516101d1919061330d565b60405180910390f35b6101f460048036038101906101ef9190612aa0565b61123b565b604051610201919061332f565b60405180910390f35b610224600480360381019061021f9190612ac9565b6112d6565b60405161023191906132d0565b60405180910390f35b610254600480360381019061024f9190612aa0565b611509565b60405161026292919061336c565b60405180910390f35b61028560048036038101906102809190612ac9565b6115d5565b005b6102a1600480360381019061029c9190612aa0565b6116ff565b6040516102ae919061332f565b60405180910390f35b6102d160048036038101906102cc9190612ac9565b611799565b6040516102e29594939291906133fd565b60405180910390f35b6102f3611b33565b60405161030091906132d0565b60405180910390f35b610323600480360381019061031e9190612b5e565b611b3b565b005b61033f600480360381019061033a9190612aa0565b611e9a565b60405161034d92919061336c565b60405180910390f35b610370600480360381019061036b9190612ac9565b611f66565b005b61037a6121bc565b60405161038791906132eb565b60405180910390f35b6103aa60048036038101906103a59190612ac9565b6123d9565b6040516103b7919061356c565b60405180910390f35b6103c8612706565b6040516103d591906132d0565b60405180910390f35b6103e661272c565b6040516103f391906132eb565b60405180910390f35b600080600090505b60038054905081101561058a578260405160200161042291906132a2565b604051602081830303815290604052805190602001206001600060038481548110610476577f4e487b7100000000000000000000000000000000000000000000000000000000600052603260045260246000fd5b9060005260206000200160009054906101000a900473ffffffffffffffffffffffffffffffffffffffff1673ffffffffffffffffffffffffffffffffffffffff1673ffffffffffffffffffffffffffffffffffffffff1681526020019081526020016000206000016040516020016104ee91906132b9565b6040516020818303038152906040528051906020012014156105775760038181548110610544577f4e487b7100000000000000000000000000000000000000000000000000000000600052603260045260246000fd5b9060005260206000200160009054906101000a900473ffffffffffffffffffffffffffffffffffffffff16915050610590565b80806105829061376a565b915050610404565b50600090505b919050565b600660009054906101000a900473ffffffffffffffffffffffffffffffffffffffff1673ffffffffffffffffffffffffffffffffffffffff163373ffffffffffffffffffffffffffffffffffffffff1614806106805750600073ffffffffffffffffffffffffffffffffffffffff16600160003373ffffffffffffffffffffffffffffffffffffffff1673ffffffffffffffffffffffffffffffffffffffff16815260200190815260200160002060010160009054906101000a900473ffffffffffffffffffffffffffffffffffffffff1673ffffffffffffffffffffffffffffffffffffffff1614155b6106bf576040517f08c379a00000000000000000000000000000000000000000000000000000000081526004016106b6906134ec565b60405180910390fd5b600073ffffffffffffffffffffffffffffffffffffffff16600160008373ffffffffffffffffffffffffffffffffffffffff1673ffffffffffffffffffffffffffffffffffffffff16815260200190815260200160002060010160009054906101000a900473ffffffffffffffffffffffffffffffffffffffff1673ffffffffffffffffffffffffffffffffffffffff1614610790576040517f08c379a00000000000000000000000000000000000000000000000000000000081526004016107879061352c565b60405180910390fd5b60405180604001604052808381526020018273ffffffffffffffffffffffffffffffffffffffff16815250600160008373ffffffffffffffffffffffffffffffffffffffff1673ffffffffffffffffffffffffffffffffffffffff1681526020019081526020016000206000820151816000019080519060200190610816929190612948565b5060208201518160010160006101000a81548173ffffffffffffffffffffffffffffffffffffffff021916908373ffffffffffffffffffffffffffffffffffffffff1602179055509050506003819080600181540180825580915050600190039060005260206000200160009091909190916101000a81548173ffffffffffffffffffffffffffffffffffffffff021916908373ffffffffffffffffffffffffffffffffffffffff1602179055505050565b600073ffffffffffffffffffffffffffffffffffffffff166000808373ffffffffffffffffffffffffffffffffffffffff1673ffffffffffffffffffffffffffffffffffffffff16815260200190815260200160002060010160009054906101000a900473ffffffffffffffffffffffffffffffffffffffff1673ffffffffffffffffffffffffffffffffffffffff1614610998576040517f08c379a000000000000000000000000000000000000000000000000000000000815260040161098f906134cc565b60405180910390fd5b60405180604001604052808381526020018273ffffffffffffffffffffffffffffffffffffffff168152506000808373ffffffffffffffffffffffffffffffffffffffff1673ffffffffffffffffffffffffffffffffffffffff1681526020019081526020016000206000820151816000019080519060200190610a1d929190612948565b5060208201518160010160006101000a81548173ffffffffffffffffffffffffffffffffffffffff021916908373ffffffffffffffffffffffffffffffffffffffff1602179055509050506002819080600181540180825580915050600190039060005260206000200160009091909190916101000a81548173ffffffffffffffffffffffffffffffffffffffff021916908373ffffffffffffffffffffffffffffffffffffffff1602179055505050565b600660009054906101000a900473ffffffffffffffffffffffffffffffffffffffff1673ffffffffffffffffffffffffffffffffffffffff163373ffffffffffffffffffffffffffffffffffffffff161480610bba5750600073ffffffffffffffffffffffffffffffffffffffff16600160003373ffffffffffffffffffffffffffffffffffffffff1673ffffffffffffffffffffffffffffffffffffffff16815260200190815260200160002060010160009054906101000a900473ffffffffffffffffffffffffffffffffffffffff1673ffffffffffffffffffffffffffffffffffffffff1614155b610bf9576040517f08c379a0000000000000000000000000000000000000000000000000000000008152600401610bf0906134ec565b60405180910390fd5b600481604051610c0991906132a2565b908152602001604051809103902060050160009054906101000a900460ff16610c67576040517f08c379a0000000000000000000000000000000000000000000000000000000008152600401610c5e9061354c565b60405180910390fd5b6000600482604051610c7991906132a2565b908152602001604051809103902060050160006101000a81548160ff0219169083151502179055507f266095b5af7e2323760fef151f1d78896740cd2cc1b73a6357ff9e4c3fdae74081604051610cd0919061334a565b60405180910390a150565b60606000600560008473ffffffffffffffffffffffffffffffffffffffff1673ffffffffffffffffffffffffffffffffffffffff168152602001908152602001600020805480602002602001604051908101604052809291908181526020016000905b82821015610dea578382906000526020600020018054610d5d90613738565b80601f0160208091040260200160405190810160405280929190818152602001828054610d8990613738565b8015610dd65780601f10610dab57610100808354040283529160200191610dd6565b820191906000526020600020905b815481529060010190602001808311610db957829003601f168201915b505050505081526020019060010190610d3e565b5050505090506000815167ffffffffffffffff811115610e33577f4e487b7100000000000000000000000000000000000000000000000000000000600052604160045260246000fd5b604051908082528060200260200182016040528015610e6c57816020015b610e596129ce565b815260200190600190039081610e515790505b50905060005b8251811015611230576004838281518110610eb6577f4e487b7100000000000000000000000000000000000000000000000000000000600052603260045260246000fd5b6020026020010151604051610ecb91906132a2565b90815260200160405180910390206040518060c0016040529081600082018054610ef490613738565b80601f0160208091040260200160405190810160405280929190818152602001828054610f2090613738565b8015610f6d5780601f10610f4257610100808354040283529160200191610f6d565b820191906000526020600020905b815481529060010190602001808311610f5057829003601f168201915b50505050508152602001600182018054610f8690613738565b80601f0160208091040260200160405190810160405280929190818152602001828054610fb290613738565b8015610fff5780601f10610fd457610100808354040283529160200191610fff565b820191906000526020600020905b815481529060010190602001808311610fe257829003601f168201915b5050505050815260200160028201805461101890613738565b80601f016020809104026020016040519081016040528092919081815260200182805461104490613738565b80156110915780601f1061106657610100808354040283529160200191611091565b820191906000526020600020905b81548152906001019060200180831161107457829003601f168201915b505050505081526020016003820180546110aa90613738565b80601f01602080910402602001604051908101604052809291908181526020018280546110d690613738565b80156111235780601f106110f857610100808354040283529160200191611123565b820191906000526020600020905b81548152906001019060200180831161110657829003601f168201915b5050505050815260200160048201805461113c90613738565b80601f016020809104026020016040519081016040528092919081815260200182805461116890613738565b80156111b55780601f1061118a576101008083540402835291602001916111b5565b820191906000526020600020905b81548152906001019060200180831161119857829003601f168201915b505050505081526020016005820160009054906101000a900460ff161515151581525050828281518110611212577f4e487b7100000000000000000000000000000000000000000000000000000000600052603260045260246000fd5b602002602001018190525080806112289061376a565b915050610e72565b508092505050919050565b60008073ffffffffffffffffffffffffffffffffffffffff16600160008473ffffffffffffffffffffffffffffffffffffffff1673ffffffffffffffffffffffffffffffffffffffff16815260200190815260200160002060010160009054906101000a900473ffffffffffffffffffffffffffffffffffffffff1673ffffffffffffffffffffffffffffffffffffffff1614159050919050565b600080600090505b6002805490508110156114fe5760008060006002848154811061132a577f4e487b7100000000000000000000000000000000000000000000000000000000600052603260045260246000fd5b9060005260206000200160009054906101000a900473ffffffffffffffffffffffffffffffffffffffff1673ffffffffffffffffffffffffffffffffffffffff1673ffffffffffffffffffffffffffffffffffffffff1681526020019081526020016000206040518060400160405290816000820180546113aa90613738565b80601f01602080910402602001604051908101604052809291908181526020018280546113d690613738565b80156114235780601f106113f857610100808354040283529160200191611423565b820191906000526020600020905b81548152906001019060200180831161140657829003601f168201915b505050505081526020016001820160009054906101000a900473ffffffffffffffffffffffffffffffffffffffff1673ffffffffffffffffffffffffffffffffffffffff1673ffffffffffffffffffffffffffffffffffffffff168152505090508360405160200161149591906132a2565b6040516020818303038152906040528051906020012081600001516040516020016114c091906132a2565b6040516020818303038152906040528051906020012014156114ea57806020015192505050611504565b5080806114f69061376a565b9150506112de565b50600090505b919050565b600160205280600052604060002060009150905080600001805461152c90613738565b80601f016020809104026020016040519081016040528092919081815260200182805461155890613738565b80156115a55780601f1061157a576101008083540402835291602001916115a5565b820191906000526020600020905b81548152906001019060200180831161158857829003601f168201915b5050505050908060010160009054906101000a900473ffffffffffffffffffffffffffffffffffffffff16905082565b600073ffffffffffffffffffffffffffffffffffffffff166000803373ffffffffffffffffffffffffffffffffffffffff1673ffffffffffffffffffffffffffffffffffffffff16815260200190815260200160002060010160009054906101000a900473ffffffffffffffffffffffffffffffffffffffff1673ffffffffffffffffffffffffffffffffffffffff1614156116a6576040517f08c379a000000000000000000000000000000000000000000000000000000000815260040161169d906134ac565b60405180910390fd5b806000803373ffffffffffffffffffffffffffffffffffffffff1673ffffffffffffffffffffffffffffffffffffffff16815260200190815260200160002060000190805190602001906116fb929190612948565b5050565b60008073ffffffffffffffffffffffffffffffffffffffff166000808473ffffffffffffffffffffffffffffffffffffffff1673ffffffffffffffffffffffffffffffffffffffff16815260200190815260200160002060010160009054906101000a900473ffffffffffffffffffffffffffffffffffffffff1673ffffffffffffffffffffffffffffffffffffffff1614159050919050565b6060806060806000806004876040516117b291906132a2565b90815260200160405180910390206040518060c00160405290816000820180546117db90613738565b80601f016020809104026020016040519081016040528092919081815260200182805461180790613738565b80156118545780601f1061182957610100808354040283529160200191611854565b820191906000526020600020905b81548152906001019060200180831161183757829003601f168201915b5050505050815260200160018201805461186d90613738565b80601f016020809104026020016040519081016040528092919081815260200182805461189990613738565b80156118e65780601f106118bb576101008083540402835291602001916118e6565b820191906000526020600020905b8154815290600101906020018083116118c957829003601f168201915b505050505081526020016002820180546118ff90613738565b80601f016020809104026020016040519081016040528092919081815260200182805461192b90613738565b80156119785780601f1061194d57610100808354040283529160200191611978565b820191906000526020600020905b81548152906001019060200180831161195b57829003601f168201915b5050505050815260200160038201805461199190613738565b80601f01602080910402602001604051908101604052809291908181526020018280546119bd90613738565b8015611a0a5780601f106119df57610100808354040283529160200191611a0a565b820191906000526020600020905b8154815290600101906020018083116119ed57829003601f168201915b50505050508152602001600482018054611a2390613738565b80601f0160208091040260200160405190810160405280929190818152602001828054611a4f90613738565b8015611a9c5780601f10611a7157610100808354040283529160200191611a9c565b820191906000526020600020905b815481529060010190602001808311611a7f57829003601f168201915b505050505081526020016005820160009054906101000a900460ff16151515158152505090508060a00151611b06576040517f08c379a0000000000000000000000000000000000000000000000000000000008152600401611afd9061350c565b60405180910390fd5b80600001518160200151826040015183606001518460a00151955095509550955095505091939590929450565b600033905090565b600660009054906101000a900473ffffffffffffffffffffffffffffffffffffffff1673ffffffffffffffffffffffffffffffffffffffff163373ffffffffffffffffffffffffffffffffffffffff161480611c265750600073ffffffffffffffffffffffffffffffffffffffff16600160003373ffffffffffffffffffffffffffffffffffffffff1673ffffffffffffffffffffffffffffffffffffffff16815260200190815260200160002060010160009054906101000a900473ffffffffffffffffffffffffffffffffffffffff1673ffffffffffffffffffffffffffffffffffffffff1614155b611c65576040517f08c379a0000000000000000000000000000000000000000000000000000000008152600401611c5c906134ec565b60405180910390fd5b600482604051611c7591906132a2565b908152602001604051809103902060050160009054906101000a900460ff1615611cd4576040517f08c379a0000000000000000000000000000000000000000000000000000000008152600401611ccb9061346c565b60405180910390fd5b60006040518060c0016040528088815260200187815260200186815260200185815260200184815260200160011515815250905080600484604051611d1991906132a2565b90815260200160405180910390206000820151816000019080519060200190611d43929190612948565b506020820151816001019080519060200190611d60929190612948565b506040820151816002019080519060200190611d7d929190612948565b506060820151816003019080519060200190611d9a929190612948565b506080820151816004019080519060200190611db7929190612948565b5060a08201518160050160006101000a81548160ff021916908315150217905550905050600560008373ffffffffffffffffffffffffffffffffffffffff1673ffffffffffffffffffffffffffffffffffffffff16815260200190815260200160002083908060018154018082558091505060019003906000526020600020016000909190919091509080519060200190611e53929190612948565b507f5b93630a6e8094d935e3329a9bc9d517943d525511136733ade8d280cce21cb683888887604051611e89949392919061339c565b60405180910390a150505050505050565b6000602052806000526040600020600091509050806000018054611ebd90613738565b80601f0160208091040260200160405190810160405280929190818152602001828054611ee990613738565b8015611f365780601f10611f0b57610100808354040283529160200191611f36565b820191906000526020600020905b815481529060010190602001808311611f1957829003601f168201915b5050505050908060010160009054906101000a900473ffffffffffffffffffffffffffffffffffffffff16905082565b600660009054906101000a900473ffffffffffffffffffffffffffffffffffffffff1673ffffffffffffffffffffffffffffffffffffffff163373ffffffffffffffffffffffffffffffffffffffff1614806120515750600073ffffffffffffffffffffffffffffffffffffffff16600160003373ffffffffffffffffffffffffffffffffffffffff1673ffffffffffffffffffffffffffffffffffffffff16815260200190815260200160002060010160009054906101000a900473ffffffffffffffffffffffffffffffffffffffff1673ffffffffffffffffffffffffffffffffffffffff1614155b612090576040517f08c379a0000000000000000000000000000000000000000000000000000000008152600401612087906134ec565b60405180910390fd5b600073ffffffffffffffffffffffffffffffffffffffff16600160003373ffffffffffffffffffffffffffffffffffffffff1673ffffffffffffffffffffffffffffffffffffffff16815260200190815260200160002060010160009054906101000a900473ffffffffffffffffffffffffffffffffffffffff1673ffffffffffffffffffffffffffffffffffffffff161415612162576040517f08c379a00000000000000000000000000000000000000000000000000000000081526004016121599061348c565b60405180910390fd5b80600160003373ffffffffffffffffffffffffffffffffffffffff1673ffffffffffffffffffffffffffffffffffffffff16815260200190815260200160002060000190805190602001906121b8929190612948565b5050565b6060600060038054905067ffffffffffffffff811115612205577f4e487b7100000000000000000000000000000000000000000000000000000000600052604160045260246000fd5b60405190808252806020026020018201604052801561223857816020015b60608152602001906001900390816122235790505b50905060005b6003805490508110156123d1576001600060038381548110612289577f4e487b7100000000000000000000000000000000000000000000000000000000600052603260045260246000fd5b9060005260206000200160009054906101000a900473ffffffffffffffffffffffffffffffffffffffff1673ffffffffffffffffffffffffffffffffffffffff1673ffffffffffffffffffffffffffffffffffffffff16815260200190815260200160002060000180546122fc90613738565b80601f016020809104026020016040519081016040528092919081815260200182805461232890613738565b80156123755780601f1061234a57610100808354040283529160200191612375565b820191906000526020600020905b81548152906001019060200180831161235857829003601f168201915b50505050508282815181106123b3577f4e487b7100000000000000000000000000000000000000000000000000000000600052603260045260246000fd5b602002602001018190525080806123c99061376a565b91505061223e565b508091505090565b6123e16129ce565b6004826040516123f191906132a2565b90815260200160405180910390206040518060c001604052908160008201805461241a90613738565b80601f016020809104026020016040519081016040528092919081815260200182805461244690613738565b80156124935780601f1061246857610100808354040283529160200191612493565b820191906000526020600020905b81548152906001019060200180831161247657829003601f168201915b505050505081526020016001820180546124ac90613738565b80601f01602080910402602001604051908101604052809291908181526020018280546124d890613738565b80156125255780601f106124fa57610100808354040283529160200191612525565b820191906000526020600020905b81548152906001019060200180831161250857829003601f168201915b5050505050815260200160028201805461253e90613738565b80601f016020809104026020016040519081016040528092919081815260200182805461256a90613738565b80156125b75780601f1061258c576101008083540402835291602001916125b7565b820191906000526020600020905b81548152906001019060200180831161259a57829003601f168201915b505050505081526020016003820180546125d090613738565b80601f01602080910402602001604051908101604052809291908181526020018280546125fc90613738565b80156126495780601f1061261e57610100808354040283529160200191612649565b820191906000526020600020905b81548152906001019060200180831161262c57829003601f168201915b5050505050815260200160048201805461266290613738565b80601f016020809104026020016040519081016040528092919081815260200182805461268e90613738565b80156126db5780601f106126b0576101008083540402835291602001916126db565b820191906000526020600020905b8154815290600101906020018083116126be57829003601f168201915b505050505081526020016005820160009054906101000a900460ff1615151515815250509050919050565b600660009054906101000a900473ffffffffffffffffffffffffffffffffffffffff1681565b6060600060028054905067ffffffffffffffff811115612775577f4e487b7100000000000000000000000000000000000000000000000000000000600052604160045260246000fd5b6040519080825280602002602001820160405280156127a857816020015b60608152602001906001900390816127935790505b50905060005b60028054905081101561294057600080600283815481106127f8577f4e487b7100000000000000000000000000000000000000000000000000000000600052603260045260246000fd5b9060005260206000200160009054906101000a900473ffffffffffffffffffffffffffffffffffffffff1673ffffffffffffffffffffffffffffffffffffffff1673ffffffffffffffffffffffffffffffffffffffff168152602001908152602001600020600001805461286b90613738565b80601f016020809104026020016040519081016040528092919081815260200182805461289790613738565b80156128e45780601f106128b9576101008083540402835291602001916128e4565b820191906000526020600020905b8154815290600101906020018083116128c757829003601f168201915b5050505050828281518110612922577f4e487b7100000000000000000000000000000000000000000000000000000000600052603260045260246000fd5b602002602001018190525080806129389061376a565b9150506127ae565b508091505090565b82805461295490613738565b90600052602060002090601f01602090048101928261297657600085556129bd565b82601f1061298f57805160ff19168380011785556129bd565b828001600101855582156129bd579182015b828111156129bc5782518255916020019190600101906129a1565b5b5090506129ca9190612a06565b5090565b6040518060c0016040528060608152602001606081526020016060815260200160608152602001606081526020016000151581525090565b5b80821115612a1f576000816000905550600101612a07565b5090565b6000612a36612a31846135bf565b61358e565b905082815260208101848484011115612a4e57600080fd5b612a598482856136f6565b509392505050565b600081359050612a7081613851565b92915050565b600082601f830112612a8757600080fd5b8135612a97848260208601612a23565b91505092915050565b600060208284031215612ab257600080fd5b6000612ac084828501612a61565b91505092915050565b600060208284031215612adb57600080fd5b600082013567ffffffffffffffff811115612af557600080fd5b612b0184828501612a76565b91505092915050565b60008060408385031215612b1d57600080fd5b600083013567ffffffffffffffff811115612b3757600080fd5b612b4385828601612a76565b9250506020612b5485828601612a61565b9150509250929050565b60008060008060008060c08789031215612b7757600080fd5b600087013567ffffffffffffffff811115612b9157600080fd5b612b9d89828a01612a76565b965050602087013567ffffffffffffffff811115612bba57600080fd5b612bc689828a01612a76565b955050604087013567ffffffffffffffff811115612be357600080fd5b612bef89828a01612a76565b945050606087013567ffffffffffffffff811115612c0c57600080fd5b612c1889828a01612a76565b935050608087013567ffffffffffffffff811115612c3557600080fd5b612c4189828a01612a76565b92505060a0612c5289828a01612a61565b9150509295509295509295565b6000612c6b8383612d9e565b905092915050565b6000612c7f8383613158565b905092915050565b612c90816136ae565b82525050565b6000612ca182613624565b612cab818561365f565b935083602082028501612cbd856135ef565b8060005b85811015612cf95784840389528151612cda8582612c5f565b9450612ce583613645565b925060208a01995050600181019050612cc1565b50829750879550505050505092915050565b6000612d168261362f565b612d208185613670565b935083602082028501612d32856135ff565b8060005b85811015612d6e5784840389528151612d4f8582612c73565b9450612d5a83613652565b925060208a01995050600181019050612d36565b50829750879550505050505092915050565b612d89816136c0565b82525050565b612d98816136c0565b82525050565b6000612da98261363a565b612db38185613681565b9350612dc3818560208601613705565b612dcc81613840565b840191505092915050565b6000612de28261363a565b612dec8185613692565b9350612dfc818560208601613705565b612e0581613840565b840191505092915050565b6000612e1b8261363a565b612e2581856136a3565b9350612e35818560208601613705565b80840191505092915050565b60008154612e4e81613738565b612e5881866136a3565b94506001821660008114612e735760018114612e8457612eb7565b60ff19831686528186019350612eb7565b612e8d8561360f565b60005b83811015612eaf57815481890152600182019150602081019050612e90565b838801955050505b50505092915050565b6000612ecd602983613692565b91507f436572746966696361746520776974682074686973206861736820616c72656160008301527f64792065786973747300000000000000000000000000000000000000000000006020830152604082019050919050565b6000612f33601483613692565b91507f41646d696e20646f6573206e6f742065786973740000000000000000000000006000830152602082019050919050565b6000612f73601683613692565b91507f53747564656e7420646f6573206e6f74206578697374000000000000000000006000830152602082019050919050565b6000612fb3601683613692565b91507f53747564656e7420616c726561647920657869737473000000000000000000006000830152602082019050919050565b6000612ff3602283613692565b91507f4f6e6c792061646d696e2063616e20706572666f726d2074686973206163746960008301527f6f6e0000000000000000000000000000000000000000000000000000000000006020830152604082019050919050565b6000613059602983613692565b91507f4365727469666963617465206973206e6f742076616c6964206f7220646f657360008301527f6e277420657869737400000000000000000000000000000000000000000000006020830152604082019050919050565b60006130bf601483613692565b91507f41646d696e20616c7265616479206578697374730000000000000000000000006000830152602082019050919050565b60006130ff602c83613692565b91507f436572746966696361746520616c7265616479207265766f6b6564206f72206460008301527f6f65736e277420657869737400000000000000000000000000000000000000006020830152604082019050919050565b600060c08301600083015184820360008601526131758282612d9e565b9150506020830151848203602086015261318f8282612d9e565b915050604083015184820360408601526131a98282612d9e565b915050606083015184820360608601526131c38282612d9e565b915050608083015184820360808601526131dd8282612d9e565b91505060a08301516131f260a0860182612d80565b508091505092915050565b600060c083016000830151848203600086015261321a8282612d9e565b915050602083015184820360208601526132348282612d9e565b9150506040830151848203604086015261324e8282612d9e565b915050606083015184820360608601526132688282612d9e565b915050608083015184820360808601526132828282612d9e565b91505060a083015161329760a0860182612d80565b508091505092915050565b60006132ae8284612e10565b915081905092915050565b60006132c58284612e41565b915081905092915050565b60006020820190506132e56000830184612c87565b92915050565b600060208201905081810360008301526133058184612c96565b905092915050565b600060208201905081810360008301526133278184612d0b565b905092915050565b60006020820190506133446000830184612d8f565b92915050565b600060208201905081810360008301526133648184612dd7565b905092915050565b600060408201905081810360008301526133868185612dd7565b90506133956020830184612c87565b9392505050565b600060808201905081810360008301526133b68187612dd7565b905081810360208301526133ca8186612dd7565b905081810360408301526133de8185612dd7565b905081810360608301526133f28184612dd7565b905095945050505050565b600060a08201905081810360008301526134178188612dd7565b9050818103602083015261342b8187612dd7565b9050818103604083015261343f8186612dd7565b905081810360608301526134538185612dd7565b90506134626080830184612d8f565b9695505050505050565b6000602082019050818103600083015261348581612ec0565b9050919050565b600060208201905081810360008301526134a581612f26565b9050919050565b600060208201905081810360008301526134c581612f66565b9050919050565b600060208201905081810360008301526134e581612fa6565b9050919050565b6000602082019050818103600083015261350581612fe6565b9050919050565b600060208201905081810360008301526135258161304c565b9050919050565b60006020820190508181036000830152613545816130b2565b9050919050565b60006020820190508181036000830152613565816130f2565b9050919050565b6000602082019050818103600083015261358681846131fd565b905092915050565b6000604051905081810181811067ffffffffffffffff821117156135b5576135b4613811565b5b8060405250919050565b600067ffffffffffffffff8211156135da576135d9613811565b5b601f19601f8301169050602081019050919050565b6000819050602082019050919050565b6000819050602082019050919050565b60008190508160005260206000209050919050565b600081519050919050565b600081519050919050565b600081519050919050565b6000602082019050919050565b6000602082019050919050565b600082825260208201905092915050565b600082825260208201905092915050565b600082825260208201905092915050565b600082825260208201905092915050565b600081905092915050565b60006136b9826136cc565b9050919050565b60008115159050919050565b600073ffffffffffffffffffffffffffffffffffffffff82169050919050565b6000819050919050565b82818337600083830152505050565b60005b83811015613723578082015181840152602081019050613708565b83811115613732576000848401525b50505050565b6000600282049050600182168061375057607f821691505b60208210811415613764576137636137e2565b5b50919050565b6000613775826136ec565b91507fffffffffffffffffffffffffffffffffffffffffffffffffffffffffffffffff8214156137a8576137a76137b3565b5b600182019050919050565b7f4e487b7100000000000000000000000000000000000000000000000000000000600052601160045260246000fd5b7f4e487b7100000000000000000000000000000000000000000000000000000000600052602260045260246000fd5b7f4e487b7100000000000000000000000000000000000000000000000000000000600052604160045260246000fd5b6000601f19601f8301169050919050565b61385a816136ae565b811461386557600080fd5b5056fea2646970667358221220463ac0888d1f310e28c97856fed21536cc483294df7423ed6d1628b7b149d47964736f6c63430008000033",
  "immutableReferences": {},
  "source": "// SPDX-License-Identifier: MIT\r\npragma solidity ^0.8.0;\r\n\r\ncontract CertificateRegistry {\r\n\r\n    struct Students {\r\n        string name;\r\n        address studentAddress;\r\n    }\r\n\r\n    struct Admin {\r\n        string name;\r\n        address adminAddress;\r\n    }\r\n\r\n    struct Certificate {\r\n        string recipientName;\r\n        string eventName;\r\n        string eventDescription;\r\n        string issuedDate;\r\n        string certHash;\r\n        bool isValid;\r\n    }\r\n\r\n    mapping(address => Students) public students;\r\n    mapping(address => Admin) public admins;\r\n\r\n    address[] private studentAddresses;\r\n    address[] private adminAddresses;\r\n\r\n    mapping(string => Certificate) private certificates;\r\n    mapping(address => string[]) private ownerToCertHashes;\r\n\r\n    address public admin;\r\n\r\n    event CertificateIssued(string certHash, string recipientName, string eventName, string issuedDate);\r\n    event CertificateRevoked(string certHash);\r\n\r\n    modifier onlyAdmin() {\r\n        require(msg.sender == admin || admins[msg.sender].adminAddress != address(0), \"Only admin can perform this action\");\r\n        _;\r\n    }\r\n\r\n    constructor() {\r\n        admin = msg.sender;\r\n        admins[msg.sender] = Admin(\"Super Admin\", msg.sender);\r\n        adminAddresses.push(msg.sender);\r\n    }\r\n\r\n    function getMyAddress() public view returns (address) {\r\n        return msg.sender;\r\n    }\r\n\r\n    function addStudent(string memory _studentName, address _studentAddress) public {\r\n        require(students[_studentAddress].studentAddress == address(0), \"Student already exists\");\r\n        students[_studentAddress] = Students(_studentName, _studentAddress);\r\n        studentAddresses.push(_studentAddress);\r\n    }\r\n\r\n    function addAdmin(string memory _adminName, address _adminAddress) public onlyAdmin {\r\n        require(admins[_adminAddress].adminAddress == address(0), \"Admin already exists\");\r\n        admins[_adminAddress] = Admin(_adminName, _adminAddress);\r\n        adminAddresses.push(_adminAddress);\r\n    }\r\n\r\n    function getStudentNames() public view returns (string[] memory) {\r\n        string[] memory studentNames = new string[](studentAddresses.length);\r\n        for (uint256 i = 0; i < studentAddresses.length; i++) {\r\n            studentNames[i] = students[studentAddresses[i]].name;\r\n        }\r\n        return studentNames;\r\n    }\r\n\r\n    \r\n    function getStudentAddressByName(string memory _studentName) public view returns (address) {\r\n        for (uint256 i = 0; i < studentAddresses.length; i++) {\r\n            Students memory s = students[studentAddresses[i]];\r\n            if (keccak256(abi.encodePacked(s.name)) == keccak256(abi.encodePacked(_studentName))) {\r\n                return s.studentAddress; // This is the value from the struct\r\n            }\r\n        }\r\n        return address(0);\r\n    }\r\n\r\n\r\n\r\n    \r\n\r\n\r\n\r\n    function isStudent(address _studentAddress) public view returns (bool) {\r\n        return students[_studentAddress].studentAddress != address(0);\r\n    }\r\n\r\n\r\n\r\n    function getAdminNames() public view returns (string[] memory) {\r\n        string[] memory adminNames = new string[](adminAddresses.length);\r\n        for (uint256 i = 0; i < adminAddresses.length; i++) {\r\n            adminNames[i] = admins[adminAddresses[i]].name;\r\n        }\r\n        return adminNames;\r\n    }\r\n\r\n    \r\n    function getAdminAddressByName(string memory _adminName) public view returns (address) {\r\n        for (uint256 i = 0; i < adminAddresses.length; i++) {\r\n            if (keccak256(abi.encodePacked(admins[adminAddresses[i]].name)) == keccak256(abi.encodePacked(_adminName))) {\r\n                return adminAddresses[i];\r\n            }\r\n        }\r\n        return address(0);\r\n    }\r\n\r\n    function isAdmin(address _adminAddress) public view returns (bool) {\r\n        return admins[_adminAddress].adminAddress != address(0);\r\n    }\r\n\r\n    \r\n    function updateStudent(string memory _studentName) public {\r\n        require(students[msg.sender].studentAddress != address(0), \"Student does not exist\");\r\n        students[msg.sender].name = _studentName;\r\n    }\r\n\r\nfunction updateAdmin(string memory _adminName) public  onlyAdmin{\r\n    require(admins[msg.sender].adminAddress != address(0), \"Admin does not exist\");\r\n    admins[msg.sender].name = _adminName;\r\n}\r\n\r\n\r\n\r\n    function issueCertificate(\r\n        string memory _recipientName,\r\n        string memory _eventName,\r\n        string memory _eventDescription,\r\n        string memory _issuedDate,\r\n        string memory _certHash,\r\n        address _studentAddress\r\n    ) public onlyAdmin {\r\n        require(!certificates[_certHash].isValid, \"Certificate with this hash already exists\");\r\n\r\n        Certificate memory newCert = Certificate({\r\n            recipientName: _recipientName,\r\n            eventName: _eventName,\r\n            eventDescription: _eventDescription,\r\n            issuedDate: _issuedDate,\r\n            certHash: _certHash,\r\n            isValid: true\r\n        });\r\n\r\n        certificates[_certHash] = newCert;\r\n        ownerToCertHashes[_studentAddress].push(_certHash);\r\n\r\n        emit CertificateIssued(_certHash, _recipientName, _eventName, _issuedDate);\r\n    }\r\n\r\n    function verifyCertificate(string memory _certHash)\r\n        public\r\n        view\r\n        returns (string memory, string memory, string memory, string memory, bool)\r\n    {\r\n        Certificate memory cert = certificates[_certHash];\r\n        require(cert.isValid, \"Certificate is not valid or doesn't exist\");\r\n        return (cert.recipientName, cert.eventName, cert.eventDescription, cert.issuedDate, cert.isValid);\r\n    }\r\n\r\n    function revokeCertificate(string memory _certHash) public onlyAdmin {\r\n        require(certificates[_certHash].isValid, \"Certificate already revoked or doesn't exist\");\r\n        certificates[_certHash].isValid = false;\r\n\r\n        emit CertificateRevoked(_certHash);\r\n    }\r\n\r\n    function getCertificate(string memory _certHash) public view returns (Certificate memory) {\r\n        return certificates[_certHash];\r\n    }\r\n\r\n    function getCertificatesByOwner(address _owner) public view returns (Certificate[] memory) {\r\n        string[] memory hashes = ownerToCertHashes[_owner];\r\n        Certificate[] memory certList = new Certificate[](hashes.length);\r\n\r\n        for (uint i = 0; i < hashes.length; i++) {\r\n            certList[i] = certificates[hashes[i]];\r\n        }\r\n\r\n        return certList;\r\n    }\r\n}\r\n",
  "sourcePath": "C:\\Users\\PC\\Documents\\GitHub\\Cert\\contract\\contracts\\CertificateRegistry.sol",
  "compiler": {
    "name": "solc",
    "version": "0.8.0+commit.c7dfd78e.Emscripten.clang"
  },
  "schemaVersion": "3.4.16",
  "updatedAt": "2025-06-06T11:02:02.887Z",
  "networkType": "ethereum",
  "devdoc": {
    "kind": "dev",
    "methods": {},
    "version": 1
  },
  "userdoc": {
    "kind": "user",
    "methods": {},
    "version": 1
  }
}