{
  "contractName": "CertificateRegistry",
  "abi": [
    {
      "inputs": [],
      "stateMutability": "nonpayable",
      "type": "constructor"
    },
    {
      "anonymous": false,
      "inputs": [
        {
          "indexed": false,
          "internalType": "string",
          "name": "certHash",
          "type": "string"
        },
        {
          "indexed": false,
          "internalType": "string",
          "name": "recipientName",
          "type": "string"
        },
        {
          "indexed": false,
          "internalType": "string",
          "name": "eventName",
          "type": "string"
        },
        {
          "indexed": false,
          "internalType": "string",
          "name": "issuedDate",
          "type": "string"
        }
      ],
      "name": "CertificateIssued",
      "type": "event"
    },
    {
      "anonymous": false,
      "inputs": [
        {
          "indexed": false,
          "internalType": "string",
          "name": "certHash",
          "type": "string"
        }
      ],
      "name": "CertificateRevoked",
      "type": "event"
    },
    {
      "inputs": [],
      "name": "admin",
      "outputs": [
        {
          "internalType": "address",
          "name": "",
          "type": "address"
        }
      ],
      "stateMutability": "view",
      "type": "function",
      "constant": true
    },
    {
      "inputs": [
        {
          "internalType": "address",
          "name": "",
          "type": "address"
        }
      ],
      "name": "admins",
      "outputs": [
        {
          "internalType": "string",
          "name": "name",
          "type": "string"
        },
        {
          "internalType": "address",
          "name": "adminAddress",
          "type": "address"
        }
      ],
      "stateMutability": "view",
      "type": "function",
      "constant": true
    },
    {
      "inputs": [
        {
          "internalType": "address",
          "name": "",
          "type": "address"
        }
      ],
      "name": "students",
      "outputs": [
        {
          "internalType": "string",
          "name": "name",
          "type": "string"
        },
        {
          "internalType": "address",
          "name": "studentAddress",
          "type": "address"
        }
      ],
      "stateMutability": "view",
      "type": "function",
      "constant": true
    },
    {
      "inputs": [],
      "name": "getMyAddress",
      "outputs": [
        {
          "internalType": "address",
          "name": "",
          "type": "address"
        }
      ],
      "stateMutability": "view",
      "type": "function",
      "constant": true
    },
    {
      "inputs": [
        {
          "internalType": "string",
          "name": "_studentName",
          "type": "string"
        },
        {
          "internalType": "address",
          "name": "_studentAddress",
          "type": "address"
        }
      ],
      "name": "addStudent",
      "outputs": [],
      "stateMutability": "nonpayable",
      "type": "function"
    },
    {
      "inputs": [
        {
          "internalType": "string",
          "name": "_adminName",
          "type": "string"
        },
        {
          "internalType": "address",
          "name": "_adminAddress",
          "type": "address"
        }
      ],
      "name": "addAdmin",
      "outputs": [],
      "stateMutability": "nonpayable",
      "type": "function"
    },
    {
      "inputs": [],
      "name": "getStudentNames",
      "outputs": [
        {
          "internalType": "string[]",
          "name": "",
          "type": "string[]"
        }
      ],
      "stateMutability": "view",
      "type": "function",
      "constant": true
    },
    {
      "inputs": [
        {
          "internalType": "string",
          "name": "_studentName",
          "type": "string"
        }
      ],
      "name": "getStudentAddressByName",
      "outputs": [
        {
          "internalType": "address",
          "name": "",
          "type": "address"
        }
      ],
      "stateMutability": "view",
      "type": "function",
      "constant": true
    },
    {
      "inputs": [
        {
          "internalType": "address",
          "name": "_studentAddress",
          "type": "address"
        }
      ],
      "name": "isStudent",
      "outputs": [
        {
          "internalType": "bool",
          "name": "",
          "type": "bool"
        }
      ],
      "stateMutability": "view",
      "type": "function",
      "constant": true
    },
    {
      "inputs": [],
      "name": "getAdminNames",
      "outputs": [
        {
          "internalType": "string[]",
          "name": "",
          "type": "string[]"
        }
      ],
      "stateMutability": "view",
      "type": "function",
      "constant": true
    },
    {
      "inputs": [
        {
          "internalType": "string",
          "name": "_adminName",
          "type": "string"
        }
      ],
      "name": "getAdminAddressByName",
      "outputs": [
        {
          "internalType": "address",
          "name": "",
          "type": "address"
        }
      ],
      "stateMutability": "view",
      "type": "function",
      "constant": true
    },
    {
      "inputs": [
        {
          "internalType": "address",
          "name": "_adminAddress",
          "type": "address"
        }
      ],
      "name": "isAdmin",
      "outputs": [
        {
          "internalType": "bool",
          "name": "",
          "type": "bool"
        }
      ],
      "stateMutability": "view",
      "type": "function",
      "constant": true
    },
    {
      "inputs": [
        {
          "internalType": "string",
          "name": "_studentName",
          "type": "string"
        }
      ],
      "name": "updateStudent",
      "outputs": [],
      "stateMutability": "nonpayable",
      "type": "function"
    },
    {
      "inputs": [
        {
          "internalType": "string",
          "name": "_adminName",
          "type": "string"
        }
      ],
      "name": "updateAdmin",
      "outputs": [],
      "stateMutability": "nonpayable",
      "type": "function"
    },
    {
      "inputs": [
        {
          "internalType": "string",
          "name": "_recipientName",
          "type": "string"
        },
        {
          "internalType": "string",
          "name": "_eventName",
          "type": "string"
        },
        {
          "internalType": "string",
          "name": "_issuedDate",
          "type": "string"
        },
        {
          "internalType": "string",
          "name": "_certHash",
          "type": "string"
        },
        {
          "internalType": "address",
          "name": "_studentAddress",
          "type": "address"
        }
      ],
      "name": "issueCertificate",
      "outputs": [],
      "stateMutability": "nonpayable",
      "type": "function"
    },
    {
      "inputs": [
        {
          "internalType": "string",
          "name": "_certHash",
          "type": "string"
        }
      ],
      "name": "verifyCertificate",
      "outputs": [
        {
          "internalType": "string",
          "name": "",
          "type": "string"
        },
        {
          "internalType": "string",
          "name": "",
          "type": "string"
        },
        {
          "internalType": "string",
          "name": "",
          "type": "string"
        },
        {
          "internalType": "bool",
          "name": "",
          "type": "bool"
        }
      ],
      "stateMutability": "view",
      "type": "function",
      "constant": true
    },
    {
      "inputs": [
        {
          "internalType": "string",
          "name": "_certHash",
          "type": "string"
        }
      ],
      "name": "revokeCertificate",
      "outputs": [],
      "stateMutability": "nonpayable",
      "type": "function"
    },
    {
      "inputs": [
        {
          "internalType": "string",
          "name": "_certHash",
          "type": "string"
        }
      ],
      "name": "getCertificate",
      "outputs": [
        {
          "components": [
            {
              "internalType": "string",
              "name": "recipientName",
              "type": "string"
            },
            {
              "internalType": "string",
              "name": "eventName",
              "type": "string"
            },
            {
              "internalType": "string",
              "name": "issuedDate",
              "type": "string"
            },
            {
              "internalType": "string",
              "name": "certHash",
              "type": "string"
            },
            {
              "internalType": "bool",
              "name": "isValid",
              "type": "bool"
            }
          ],
          "internalType": "struct CertificateRegistry.Certificate",
          "name": "",
          "type": "tuple"
        }
      ],
      "stateMutability": "view",
      "type": "function",
      "constant": true
    },
    {
      "inputs": [
        {
          "internalType": "address",
          "name": "_owner",
          "type": "address"
        }
      ],
      "name": "getCertificatesByOwner",
      "outputs": [
        {
          "components": [
            {
              "internalType": "string",
              "name": "recipientName",
              "type": "string"
            },
            {
              "internalType": "string",
              "name": "eventName",
              "type": "string"
            },
            {
              "internalType": "string",
              "name": "issuedDate",
              "type": "string"
            },
            {
              "internalType": "string",
              "name": "certHash",
              "type": "string"
            },
            {
              "internalType": "bool",
              "name": "isValid",
              "type": "bool"
            }
          ],
          "internalType": "struct CertificateRegistry.Certificate[]",
          "name": "",
          "type": "tuple[]"
        }
      ],
      "stateMutability": "view",
      "type": "function",
      "constant": true
    }
  ],
  "bytecode": "0x60806040523480156200001157600080fd5b5033600660006101000a81548173ffffffffffffffffffffffffffffffffffffffff021916908373ffffffffffffffffffffffffffffffffffffffff16021790555060405180604001604052806040518060400160405280600b81526020017f53757065722041646d696e00000000000000000000000000000000000000000081525081526020013373ffffffffffffffffffffffffffffffffffffffff16815250600160003373ffffffffffffffffffffffffffffffffffffffff1673ffffffffffffffffffffffffffffffffffffffff168152602001908152602001600020600082015181600001908051906020019062000110929190620001c4565b5060208201518160010160006101000a81548173ffffffffffffffffffffffffffffffffffffffff021916908373ffffffffffffffffffffffffffffffffffffffff1602179055509050506003339080600181540180825580915050600190039060005260206000200160009091909190916101000a81548173ffffffffffffffffffffffffffffffffffffffff021916908373ffffffffffffffffffffffffffffffffffffffff160217905550620002d9565b828054620001d29062000274565b90600052602060002090601f016020900481019282620001f6576000855562000242565b82601f106200021157805160ff191683800117855562000242565b8280016001018555821562000242579182015b828111156200024157825182559160200191906001019062000224565b5b50905062000251919062000255565b5090565b5b808211156200027057600081600090555060010162000256565b5090565b600060028204905060018216806200028d57607f821691505b60208210811415620002a457620002a3620002aa565b5b50919050565b7f4e487b7100000000000000000000000000000000000000000000000000000000600052602260045260246000fd5b6135a480620002e96000396000f3fe608060405234801561001057600080fd5b50600436106101215760003560e01c806372c27fc5116100ad578063bed8820811610071578063bed8820814610355578063bfe8aea214610371578063ed0f2e751461038f578063f851a440146103bf578063fdb668eb146103dd57610121565b806372c27fc51461028757806382f7d392146102a35780638b23d875146102d35780639a16629914610306578063a6c807a91461032457610121565b80631db73840116100f45780631db73840146101aa578063229efd24146101da57806324d7806c146101f657806338268bd814610226578063429b62e51461025657610121565b806301a23739146101265780630831b05f1461015657806310468c2f14610172578063142e15421461018e575b600080fd5b610140600480360381019061013b9190612842565b6103fb565b60405161014d9190612feb565b60405180910390f35b610170600480360381019061016b9190612883565b610594565b005b61018c60048036038101906101879190612883565b6108c7565b005b6101a860048036038101906101a39190612842565b610ace565b005b6101c460048036038101906101bf9190612819565b610cda565b6040516101d19190613028565b60405180910390f35b6101f460048036038101906101ef91906128d7565b6111a8565b005b610210600480360381019061020b9190612819565b6114e3565b60405161021d919061304a565b60405180910390f35b610240600480360381019061023b9190612842565b61157e565b60405161024d9190612feb565b60405180910390f35b610270600480360381019061026b9190612819565b611716565b60405161027e929190613087565b60405180910390f35b6102a1600480360381019061029c9190612842565b6117e2565b005b6102bd60048036038101906102b89190612819565b61190c565b6040516102ca919061304a565b60405180910390f35b6102ed60048036038101906102e89190612842565b6119a6565b6040516102fd94939291906130b7565b60405180910390f35b61030e611ca4565b60405161031b9190612feb565b60405180910390f35b61033e60048036038101906103399190612819565b611cac565b60405161034c929190613087565b60405180910390f35b61036f600480360381019061036a9190612842565b611d78565b005b610379611fce565b6040516103869190613006565b60405180910390f35b6103a960048036038101906103a49190612842565b6121eb565b6040516103b69190613272565b60405180910390f35b6103c7612486565b6040516103d49190612feb565b60405180910390f35b6103e56124ac565b6040516103f29190613006565b60405180910390f35b600080600090505b60038054905081101561058957826040516020016104219190612fbd565b604051602081830303815290604052805190602001206001600060038481548110610475577f4e487b7100000000000000000000000000000000000000000000000000000000600052603260045260246000fd5b9060005260206000200160009054906101000a900473ffffffffffffffffffffffffffffffffffffffff1673ffffffffffffffffffffffffffffffffffffffff1673ffffffffffffffffffffffffffffffffffffffff1681526020019081526020016000206000016040516020016104ed9190612fd4565b6040516020818303038152906040528051906020012014156105765760038181548110610543577f4e487b7100000000000000000000000000000000000000000000000000000000600052603260045260246000fd5b9060005260206000200160009054906101000a900473ffffffffffffffffffffffffffffffffffffffff1691505061058f565b808061058190613470565b915050610403565b50600090505b919050565b600660009054906101000a900473ffffffffffffffffffffffffffffffffffffffff1673ffffffffffffffffffffffffffffffffffffffff163373ffffffffffffffffffffffffffffffffffffffff16148061067f5750600073ffffffffffffffffffffffffffffffffffffffff16600160003373ffffffffffffffffffffffffffffffffffffffff1673ffffffffffffffffffffffffffffffffffffffff16815260200190815260200160002060010160009054906101000a900473ffffffffffffffffffffffffffffffffffffffff1673ffffffffffffffffffffffffffffffffffffffff1614155b6106be576040517f08c379a00000000000000000000000000000000000000000000000000000000081526004016106b5906131f2565b60405180910390fd5b600073ffffffffffffffffffffffffffffffffffffffff16600160008373ffffffffffffffffffffffffffffffffffffffff1673ffffffffffffffffffffffffffffffffffffffff16815260200190815260200160002060010160009054906101000a900473ffffffffffffffffffffffffffffffffffffffff1673ffffffffffffffffffffffffffffffffffffffff161461078f576040517f08c379a000000000000000000000000000000000000000000000000000000000815260040161078690613232565b60405180910390fd5b60405180604001604052808381526020018273ffffffffffffffffffffffffffffffffffffffff16815250600160008373ffffffffffffffffffffffffffffffffffffffff1673ffffffffffffffffffffffffffffffffffffffff16815260200190815260200160002060008201518160000190805190602001906108159291906126c8565b5060208201518160010160006101000a81548173ffffffffffffffffffffffffffffffffffffffff021916908373ffffffffffffffffffffffffffffffffffffffff1602179055509050506003819080600181540180825580915050600190039060005260206000200160009091909190916101000a81548173ffffffffffffffffffffffffffffffffffffffff021916908373ffffffffffffffffffffffffffffffffffffffff1602179055505050565b600073ffffffffffffffffffffffffffffffffffffffff166000808373ffffffffffffffffffffffffffffffffffffffff1673ffffffffffffffffffffffffffffffffffffffff16815260200190815260200160002060010160009054906101000a900473ffffffffffffffffffffffffffffffffffffffff1673ffffffffffffffffffffffffffffffffffffffff1614610997576040517f08c379a000000000000000000000000000000000000000000000000000000000815260040161098e906131d2565b60405180910390fd5b60405180604001604052808381526020018273ffffffffffffffffffffffffffffffffffffffff168152506000808373ffffffffffffffffffffffffffffffffffffffff1673ffffffffffffffffffffffffffffffffffffffff1681526020019081526020016000206000820151816000019080519060200190610a1c9291906126c8565b5060208201518160010160006101000a81548173ffffffffffffffffffffffffffffffffffffffff021916908373ffffffffffffffffffffffffffffffffffffffff1602179055509050506002819080600181540180825580915050600190039060005260206000200160009091909190916101000a81548173ffffffffffffffffffffffffffffffffffffffff021916908373ffffffffffffffffffffffffffffffffffffffff1602179055505050565b600660009054906101000a900473ffffffffffffffffffffffffffffffffffffffff1673ffffffffffffffffffffffffffffffffffffffff163373ffffffffffffffffffffffffffffffffffffffff161480610bb95750600073ffffffffffffffffffffffffffffffffffffffff16600160003373ffffffffffffffffffffffffffffffffffffffff1673ffffffffffffffffffffffffffffffffffffffff16815260200190815260200160002060010160009054906101000a900473ffffffffffffffffffffffffffffffffffffffff1673ffffffffffffffffffffffffffffffffffffffff1614155b610bf8576040517f08c379a0000000000000000000000000000000000000000000000000000000008152600401610bef906131f2565b60405180910390fd5b600481604051610c089190612fbd565b908152602001604051809103902060040160009054906101000a900460ff16610c66576040517f08c379a0000000000000000000000000000000000000000000000000000000008152600401610c5d90613252565b60405180910390fd5b6000600482604051610c789190612fbd565b908152602001604051809103902060040160006101000a81548160ff0219169083151502179055507f266095b5af7e2323760fef151f1d78896740cd2cc1b73a6357ff9e4c3fdae74081604051610ccf9190613065565b60405180910390a150565b60606000600560008473ffffffffffffffffffffffffffffffffffffffff1673ffffffffffffffffffffffffffffffffffffffff168152602001908152602001600020805480602002602001604051908101604052809291908181526020016000905b82821015610de9578382906000526020600020018054610d5c9061343e565b80601f0160208091040260200160405190810160405280929190818152602001828054610d889061343e565b8015610dd55780601f10610daa57610100808354040283529160200191610dd5565b820191906000526020600020905b815481529060010190602001808311610db857829003601f168201915b505050505081526020019060010190610d3d565b5050505090506000815167ffffffffffffffff811115610e32577f4e487b7100000000000000000000000000000000000000000000000000000000600052604160045260246000fd5b604051908082528060200260200182016040528015610e6b57816020015b610e5861274e565b815260200190600190039081610e505790505b50905060005b825181101561119d576004838281518110610eb5577f4e487b7100000000000000000000000000000000000000000000000000000000600052603260045260246000fd5b6020026020010151604051610eca9190612fbd565b90815260200160405180910390206040518060a0016040529081600082018054610ef39061343e565b80601f0160208091040260200160405190810160405280929190818152602001828054610f1f9061343e565b8015610f6c5780601f10610f4157610100808354040283529160200191610f6c565b820191906000526020600020905b815481529060010190602001808311610f4f57829003601f168201915b50505050508152602001600182018054610f859061343e565b80601f0160208091040260200160405190810160405280929190818152602001828054610fb19061343e565b8015610ffe5780601f10610fd357610100808354040283529160200191610ffe565b820191906000526020600020905b815481529060010190602001808311610fe157829003601f168201915b505050505081526020016002820180546110179061343e565b80601f01602080910402602001604051908101604052809291908181526020018280546110439061343e565b80156110905780601f1061106557610100808354040283529160200191611090565b820191906000526020600020905b81548152906001019060200180831161107357829003601f168201915b505050505081526020016003820180546110a99061343e565b80601f01602080910402602001604051908101604052809291908181526020018280546110d59061343e565b80156111225780601f106110f757610100808354040283529160200191611122565b820191906000526020600020905b81548152906001019060200180831161110557829003601f168201915b505050505081526020016004820160009054906101000a900460ff16151515158152505082828151811061117f577f4e487b7100000000000000000000000000000000000000000000000000000000600052603260045260246000fd5b6020026020010181905250808061119590613470565b915050610e71565b508092505050919050565b600660009054906101000a900473ffffffffffffffffffffffffffffffffffffffff1673ffffffffffffffffffffffffffffffffffffffff163373ffffffffffffffffffffffffffffffffffffffff1614806112935750600073ffffffffffffffffffffffffffffffffffffffff16600160003373ffffffffffffffffffffffffffffffffffffffff1673ffffffffffffffffffffffffffffffffffffffff16815260200190815260200160002060010160009054906101000a900473ffffffffffffffffffffffffffffffffffffffff1673ffffffffffffffffffffffffffffffffffffffff1614155b6112d2576040517f08c379a00000000000000000000000000000000000000000000000000000000081526004016112c9906131f2565b60405180910390fd5b6004826040516112e29190612fbd565b908152602001604051809103902060040160009054906101000a900460ff1615611341576040517f08c379a000000000000000000000000000000000000000000000000000000000815260040161133890613172565b60405180910390fd5b60006040518060a00160405280878152602001868152602001858152602001848152602001600115158152509050806004846040516113809190612fbd565b908152602001604051809103902060008201518160000190805190602001906113aa9291906126c8565b5060208201518160010190805190602001906113c79291906126c8565b5060408201518160020190805190602001906113e49291906126c8565b5060608201518160030190805190602001906114019291906126c8565b5060808201518160040160006101000a81548160ff021916908315150217905550905050600560008373ffffffffffffffffffffffffffffffffffffffff1673ffffffffffffffffffffffffffffffffffffffff1681526020019081526020016000208390806001815401808255809150506001900390600052602060002001600090919091909150908051906020019061149d9291906126c8565b507f5b93630a6e8094d935e3329a9bc9d517943d525511136733ade8d280cce21cb6838787876040516114d39493929190613111565b60405180910390a1505050505050565b60008073ffffffffffffffffffffffffffffffffffffffff16600160008473ffffffffffffffffffffffffffffffffffffffff1673ffffffffffffffffffffffffffffffffffffffff16815260200190815260200160002060010160009054906101000a900473ffffffffffffffffffffffffffffffffffffffff1673ffffffffffffffffffffffffffffffffffffffff1614159050919050565b600080600090505b60028054905081101561170b57826040516020016115a49190612fbd565b60405160208183030381529060405280519060200120600080600284815481106115f7577f4e487b7100000000000000000000000000000000000000000000000000000000600052603260045260246000fd5b9060005260206000200160009054906101000a900473ffffffffffffffffffffffffffffffffffffffff1673ffffffffffffffffffffffffffffffffffffffff1673ffffffffffffffffffffffffffffffffffffffff16815260200190815260200160002060000160405160200161166f9190612fd4565b6040516020818303038152906040528051906020012014156116f857600281815481106116c5577f4e487b7100000000000000000000000000000000000000000000000000000000600052603260045260246000fd5b9060005260206000200160009054906101000a900473ffffffffffffffffffffffffffffffffffffffff16915050611711565b808061170390613470565b915050611586565b50600090505b919050565b60016020528060005260406000206000915090508060000180546117399061343e565b80601f01602080910402602001604051908101604052809291908181526020018280546117659061343e565b80156117b25780601f10611787576101008083540402835291602001916117b2565b820191906000526020600020905b81548152906001019060200180831161179557829003601f168201915b5050505050908060010160009054906101000a900473ffffffffffffffffffffffffffffffffffffffff16905082565b600073ffffffffffffffffffffffffffffffffffffffff166000803373ffffffffffffffffffffffffffffffffffffffff1673ffffffffffffffffffffffffffffffffffffffff16815260200190815260200160002060010160009054906101000a900473ffffffffffffffffffffffffffffffffffffffff1673ffffffffffffffffffffffffffffffffffffffff1614156118b3576040517f08c379a00000000000000000000000000000000000000000000000000000000081526004016118aa906131b2565b60405180910390fd5b806000803373ffffffffffffffffffffffffffffffffffffffff1673ffffffffffffffffffffffffffffffffffffffff16815260200190815260200160002060000190805190602001906119089291906126c8565b5050565b60008073ffffffffffffffffffffffffffffffffffffffff166000808473ffffffffffffffffffffffffffffffffffffffff1673ffffffffffffffffffffffffffffffffffffffff16815260200190815260200160002060010160009054906101000a900473ffffffffffffffffffffffffffffffffffffffff1673ffffffffffffffffffffffffffffffffffffffff1614159050919050565b60608060606000806004866040516119be9190612fbd565b90815260200160405180910390206040518060a00160405290816000820180546119e79061343e565b80601f0160208091040260200160405190810160405280929190818152602001828054611a139061343e565b8015611a605780601f10611a3557610100808354040283529160200191611a60565b820191906000526020600020905b815481529060010190602001808311611a4357829003601f168201915b50505050508152602001600182018054611a799061343e565b80601f0160208091040260200160405190810160405280929190818152602001828054611aa59061343e565b8015611af25780601f10611ac757610100808354040283529160200191611af2565b820191906000526020600020905b815481529060010190602001808311611ad557829003601f168201915b50505050508152602001600282018054611b0b9061343e565b80601f0160208091040260200160405190810160405280929190818152602001828054611b379061343e565b8015611b845780601f10611b5957610100808354040283529160200191611b84565b820191906000526020600020905b815481529060010190602001808311611b6757829003601f168201915b50505050508152602001600382018054611b9d9061343e565b80601f0160208091040260200160405190810160405280929190818152602001828054611bc99061343e565b8015611c165780601f10611beb57610100808354040283529160200191611c16565b820191906000526020600020905b815481529060010190602001808311611bf957829003601f168201915b505050505081526020016004820160009054906101000a900460ff16151515158152505090508060800151611c80576040517f08c379a0000000000000000000000000000000000000000000000000000000008152600401611c7790613212565b60405180910390fd5b80600001518160200151826040015183608001519450945094509450509193509193565b600033905090565b6000602052806000526040600020600091509050806000018054611ccf9061343e565b80601f0160208091040260200160405190810160405280929190818152602001828054611cfb9061343e565b8015611d485780601f10611d1d57610100808354040283529160200191611d48565b820191906000526020600020905b815481529060010190602001808311611d2b57829003601f168201915b5050505050908060010160009054906101000a900473ffffffffffffffffffffffffffffffffffffffff16905082565b600660009054906101000a900473ffffffffffffffffffffffffffffffffffffffff1673ffffffffffffffffffffffffffffffffffffffff163373ffffffffffffffffffffffffffffffffffffffff161480611e635750600073ffffffffffffffffffffffffffffffffffffffff16600160003373ffffffffffffffffffffffffffffffffffffffff1673ffffffffffffffffffffffffffffffffffffffff16815260200190815260200160002060010160009054906101000a900473ffffffffffffffffffffffffffffffffffffffff1673ffffffffffffffffffffffffffffffffffffffff1614155b611ea2576040517f08c379a0000000000000000000000000000000000000000000000000000000008152600401611e99906131f2565b60405180910390fd5b600073ffffffffffffffffffffffffffffffffffffffff16600160003373ffffffffffffffffffffffffffffffffffffffff1673ffffffffffffffffffffffffffffffffffffffff16815260200190815260200160002060010160009054906101000a900473ffffffffffffffffffffffffffffffffffffffff1673ffffffffffffffffffffffffffffffffffffffff161415611f74576040517f08c379a0000000000000000000000000000000000000000000000000000000008152600401611f6b90613192565b60405180910390fd5b80600160003373ffffffffffffffffffffffffffffffffffffffff1673ffffffffffffffffffffffffffffffffffffffff1681526020019081526020016000206000019080519060200190611fca9291906126c8565b5050565b6060600060038054905067ffffffffffffffff811115612017577f4e487b7100000000000000000000000000000000000000000000000000000000600052604160045260246000fd5b60405190808252806020026020018201604052801561204a57816020015b60608152602001906001900390816120355790505b50905060005b6003805490508110156121e357600160006003838154811061209b577f4e487b7100000000000000000000000000000000000000000000000000000000600052603260045260246000fd5b9060005260206000200160009054906101000a900473ffffffffffffffffffffffffffffffffffffffff1673ffffffffffffffffffffffffffffffffffffffff1673ffffffffffffffffffffffffffffffffffffffff168152602001908152602001600020600001805461210e9061343e565b80601f016020809104026020016040519081016040528092919081815260200182805461213a9061343e565b80156121875780601f1061215c57610100808354040283529160200191612187565b820191906000526020600020905b81548152906001019060200180831161216a57829003601f168201915b50505050508282815181106121c5577f4e487b7100000000000000000000000000000000000000000000000000000000600052603260045260246000fd5b602002602001018190525080806121db90613470565b915050612050565b508091505090565b6121f361274e565b6004826040516122039190612fbd565b90815260200160405180910390206040518060a001604052908160008201805461222c9061343e565b80601f01602080910402602001604051908101604052809291908181526020018280546122589061343e565b80156122a55780601f1061227a576101008083540402835291602001916122a5565b820191906000526020600020905b81548152906001019060200180831161228857829003601f168201915b505050505081526020016001820180546122be9061343e565b80601f01602080910402602001604051908101604052809291908181526020018280546122ea9061343e565b80156123375780601f1061230c57610100808354040283529160200191612337565b820191906000526020600020905b81548152906001019060200180831161231a57829003601f168201915b505050505081526020016002820180546123509061343e565b80601f016020809104026020016040519081016040528092919081815260200182805461237c9061343e565b80156123c95780601f1061239e576101008083540402835291602001916123c9565b820191906000526020600020905b8154815290600101906020018083116123ac57829003601f168201915b505050505081526020016003820180546123e29061343e565b80601f016020809104026020016040519081016040528092919081815260200182805461240e9061343e565b801561245b5780601f106124305761010080835404028352916020019161245b565b820191906000526020600020905b81548152906001019060200180831161243e57829003601f168201915b505050505081526020016004820160009054906101000a900460ff1615151515815250509050919050565b600660009054906101000a900473ffffffffffffffffffffffffffffffffffffffff1681565b6060600060028054905067ffffffffffffffff8111156124f5577f4e487b7100000000000000000000000000000000000000000000000000000000600052604160045260246000fd5b60405190808252806020026020018201604052801561252857816020015b60608152602001906001900390816125135790505b50905060005b6002805490508110156126c05760008060028381548110612578577f4e487b7100000000000000000000000000000000000000000000000000000000600052603260045260246000fd5b9060005260206000200160009054906101000a900473ffffffffffffffffffffffffffffffffffffffff1673ffffffffffffffffffffffffffffffffffffffff1673ffffffffffffffffffffffffffffffffffffffff16815260200190815260200160002060000180546125eb9061343e565b80601f01602080910402602001604051908101604052809291908181526020018280546126179061343e565b80156126645780601f1061263957610100808354040283529160200191612664565b820191906000526020600020905b81548152906001019060200180831161264757829003601f168201915b50505050508282815181106126a2577f4e487b7100000000000000000000000000000000000000000000000000000000600052603260045260246000fd5b602002602001018190525080806126b890613470565b91505061252e565b508091505090565b8280546126d49061343e565b90600052602060002090601f0160209004810192826126f6576000855561273d565b82601f1061270f57805160ff191683800117855561273d565b8280016001018555821561273d579182015b8281111561273c578251825591602001919060010190612721565b5b50905061274a919061277f565b5090565b6040518060a00160405280606081526020016060815260200160608152602001606081526020016000151581525090565b5b80821115612798576000816000905550600101612780565b5090565b60006127af6127aa846132c5565b613294565b9050828152602081018484840111156127c757600080fd5b6127d28482856133fc565b509392505050565b6000813590506127e981613557565b92915050565b600082601f83011261280057600080fd5b813561281084826020860161279c565b91505092915050565b60006020828403121561282b57600080fd5b6000612839848285016127da565b91505092915050565b60006020828403121561285457600080fd5b600082013567ffffffffffffffff81111561286e57600080fd5b61287a848285016127ef565b91505092915050565b6000806040838503121561289657600080fd5b600083013567ffffffffffffffff8111156128b057600080fd5b6128bc858286016127ef565b92505060206128cd858286016127da565b9150509250929050565b600080600080600060a086880312156128ef57600080fd5b600086013567ffffffffffffffff81111561290957600080fd5b612915888289016127ef565b955050602086013567ffffffffffffffff81111561293257600080fd5b61293e888289016127ef565b945050604086013567ffffffffffffffff81111561295b57600080fd5b612967888289016127ef565b935050606086013567ffffffffffffffff81111561298457600080fd5b612990888289016127ef565b92505060806129a1888289016127da565b9150509295509295909350565b60006129ba8383612aed565b905092915050565b60006129ce8383612ea7565b905092915050565b6129df816133b4565b82525050565b60006129f08261332a565b6129fa8185613365565b935083602082028501612a0c856132f5565b8060005b85811015612a485784840389528151612a2985826129ae565b9450612a348361334b565b925060208a01995050600181019050612a10565b50829750879550505050505092915050565b6000612a6582613335565b612a6f8185613376565b935083602082028501612a8185613305565b8060005b85811015612abd5784840389528151612a9e85826129c2565b9450612aa983613358565b925060208a01995050600181019050612a85565b50829750879550505050505092915050565b612ad8816133c6565b82525050565b612ae7816133c6565b82525050565b6000612af882613340565b612b028185613387565b9350612b1281856020860161340b565b612b1b81613546565b840191505092915050565b6000612b3182613340565b612b3b8185613398565b9350612b4b81856020860161340b565b612b5481613546565b840191505092915050565b6000612b6a82613340565b612b7481856133a9565b9350612b8481856020860161340b565b80840191505092915050565b60008154612b9d8161343e565b612ba781866133a9565b94506001821660008114612bc25760018114612bd357612c06565b60ff19831686528186019350612c06565b612bdc85613315565b60005b83811015612bfe57815481890152600182019150602081019050612bdf565b838801955050505b50505092915050565b6000612c1c602983613398565b91507f436572746966696361746520776974682074686973206861736820616c72656160008301527f64792065786973747300000000000000000000000000000000000000000000006020830152604082019050919050565b6000612c82601483613398565b91507f41646d696e20646f6573206e6f742065786973740000000000000000000000006000830152602082019050919050565b6000612cc2601683613398565b91507f53747564656e7420646f6573206e6f74206578697374000000000000000000006000830152602082019050919050565b6000612d02601683613398565b91507f53747564656e7420616c726561647920657869737473000000000000000000006000830152602082019050919050565b6000612d42602283613398565b91507f4f6e6c792061646d696e2063616e20706572666f726d2074686973206163746960008301527f6f6e0000000000000000000000000000000000000000000000000000000000006020830152604082019050919050565b6000612da8602983613398565b91507f4365727469666963617465206973206e6f742076616c6964206f7220646f657360008301527f6e277420657869737400000000000000000000000000000000000000000000006020830152604082019050919050565b6000612e0e601483613398565b91507f41646d696e20616c7265616479206578697374730000000000000000000000006000830152602082019050919050565b6000612e4e602c83613398565b91507f436572746966696361746520616c7265616479207265766f6b6564206f72206460008301527f6f65736e277420657869737400000000000000000000000000000000000000006020830152604082019050919050565b600060a0830160008301518482036000860152612ec48282612aed565b91505060208301518482036020860152612ede8282612aed565b91505060408301518482036040860152612ef88282612aed565b91505060608301518482036060860152612f128282612aed565b9150506080830151612f276080860182612acf565b508091505092915050565b600060a0830160008301518482036000860152612f4f8282612aed565b91505060208301518482036020860152612f698282612aed565b91505060408301518482036040860152612f838282612aed565b91505060608301518482036060860152612f9d8282612aed565b9150506080830151612fb26080860182612acf565b508091505092915050565b6000612fc98284612b5f565b915081905092915050565b6000612fe08284612b90565b915081905092915050565b600060208201905061300060008301846129d6565b92915050565b6000602082019050818103600083015261302081846129e5565b905092915050565b600060208201905081810360008301526130428184612a5a565b905092915050565b600060208201905061305f6000830184612ade565b92915050565b6000602082019050818103600083015261307f8184612b26565b905092915050565b600060408201905081810360008301526130a18185612b26565b90506130b060208301846129d6565b9392505050565b600060808201905081810360008301526130d18187612b26565b905081810360208301526130e58186612b26565b905081810360408301526130f98185612b26565b90506131086060830184612ade565b95945050505050565b6000608082019050818103600083015261312b8187612b26565b9050818103602083015261313f8186612b26565b905081810360408301526131538185612b26565b905081810360608301526131678184612b26565b905095945050505050565b6000602082019050818103600083015261318b81612c0f565b9050919050565b600060208201905081810360008301526131ab81612c75565b9050919050565b600060208201905081810360008301526131cb81612cb5565b9050919050565b600060208201905081810360008301526131eb81612cf5565b9050919050565b6000602082019050818103600083015261320b81612d35565b9050919050565b6000602082019050818103600083015261322b81612d9b565b9050919050565b6000602082019050818103600083015261324b81612e01565b9050919050565b6000602082019050818103600083015261326b81612e41565b9050919050565b6000602082019050818103600083015261328c8184612f32565b905092915050565b6000604051905081810181811067ffffffffffffffff821117156132bb576132ba613517565b5b8060405250919050565b600067ffffffffffffffff8211156132e0576132df613517565b5b601f19601f8301169050602081019050919050565b6000819050602082019050919050565b6000819050602082019050919050565b60008190508160005260206000209050919050565b600081519050919050565b600081519050919050565b600081519050919050565b6000602082019050919050565b6000602082019050919050565b600082825260208201905092915050565b600082825260208201905092915050565b600082825260208201905092915050565b600082825260208201905092915050565b600081905092915050565b60006133bf826133d2565b9050919050565b60008115159050919050565b600073ffffffffffffffffffffffffffffffffffffffff82169050919050565b6000819050919050565b82818337600083830152505050565b60005b8381101561342957808201518184015260208101905061340e565b83811115613438576000848401525b50505050565b6000600282049050600182168061345657607f821691505b6020821081141561346a576134696134e8565b5b50919050565b600061347b826133f2565b91507fffffffffffffffffffffffffffffffffffffffffffffffffffffffffffffffff8214156134ae576134ad6134b9565b5b600182019050919050565b7f4e487b7100000000000000000000000000000000000000000000000000000000600052601160045260246000fd5b7f4e487b7100000000000000000000000000000000000000000000000000000000600052602260045260246000fd5b7f4e487b7100000000000000000000000000000000000000000000000000000000600052604160045260246000fd5b6000601f19601f8301169050919050565b613560816133b4565b811461356b57600080fd5b5056fea26469706673582212205fb84bba9995d5b9a84157b693e4747a8b36221205b32faa8e0266c0c05e165064736f6c63430008000033",
  "immutableReferences": {},
  "source": "// SPDX-License-Identifier: MIT\r\npragma solidity ^0.8.0;\r\n\r\ncontract CertificateRegistry {\r\n\r\n    struct Students {\r\n        string name;\r\n        address studentAddress;\r\n    }\r\n\r\n    struct Admin {\r\n        string name;\r\n        address adminAddress;\r\n    }\r\n\r\n    struct Certificate {\r\n        string recipientName;\r\n        string eventName;\r\n        string issuedDate;\r\n        string certHash;\r\n        bool isValid;\r\n    }\r\n\r\n    mapping(address => Students) public students;\r\n    mapping(address => Admin) public admins;\r\n\r\n    address[] private studentAddresses;\r\n    address[] private adminAddresses;\r\n\r\n    mapping(string => Certificate) private certificates;\r\n    mapping(address => string[]) private ownerToCertHashes;\r\n\r\n    address public admin;\r\n\r\n    event CertificateIssued(string certHash, string recipientName, string eventName, string issuedDate);\r\n    event CertificateRevoked(string certHash);\r\n\r\n    modifier onlyAdmin() {\r\n        require(msg.sender == admin || admins[msg.sender].adminAddress != address(0), \"Only admin can perform this action\");\r\n        _;\r\n    }\r\n\r\n    constructor() {\r\n        admin = msg.sender;\r\n        admins[msg.sender] = Admin(\"Super Admin\", msg.sender);\r\n        adminAddresses.push(msg.sender);\r\n    }\r\n\r\n    function getMyAddress() public view returns (address) {\r\n        return msg.sender;\r\n    }\r\n\r\n    function addStudent(string memory _studentName, address _studentAddress) public {\r\n        require(students[_studentAddress].studentAddress == address(0), \"Student already exists\");\r\n        students[_studentAddress] = Students(_studentName, _studentAddress);\r\n        studentAddresses.push(_studentAddress);\r\n    }\r\n\r\n    function addAdmin(string memory _adminName, address _adminAddress) public onlyAdmin {\r\n        require(admins[_adminAddress].adminAddress == address(0), \"Admin already exists\");\r\n        admins[_adminAddress] = Admin(_adminName, _adminAddress);\r\n        adminAddresses.push(_adminAddress);\r\n    }\r\n\r\n    function getStudentNames() public view returns (string[] memory) {\r\n        string[] memory studentNames = new string[](studentAddresses.length);\r\n        for (uint256 i = 0; i < studentAddresses.length; i++) {\r\n            studentNames[i] = students[studentAddresses[i]].name;\r\n        }\r\n        return studentNames;\r\n    }\r\n\r\n    \r\n    function getStudentAddressByName(string memory _studentName) public view returns (address) {\r\n        for (uint256 i = 0; i < studentAddresses.length; i++) {\r\n            if (keccak256(abi.encodePacked(students[studentAddresses[i]].name)) == keccak256(abi.encodePacked(_studentName))) {\r\n                return studentAddresses[i];\r\n            }\r\n        }\r\n        return address(0);\r\n    }\r\n\r\n    function isStudent(address _studentAddress) public view returns (bool) {\r\n        return students[_studentAddress].studentAddress != address(0);\r\n    }\r\n\r\n\r\n\r\n    function getAdminNames() public view returns (string[] memory) {\r\n        string[] memory adminNames = new string[](adminAddresses.length);\r\n        for (uint256 i = 0; i < adminAddresses.length; i++) {\r\n            adminNames[i] = admins[adminAddresses[i]].name;\r\n        }\r\n        return adminNames;\r\n    }\r\n\r\n    \r\n    function getAdminAddressByName(string memory _adminName) public view returns (address) {\r\n        for (uint256 i = 0; i < adminAddresses.length; i++) {\r\n            if (keccak256(abi.encodePacked(admins[adminAddresses[i]].name)) == keccak256(abi.encodePacked(_adminName))) {\r\n                return adminAddresses[i];\r\n            }\r\n        }\r\n        return address(0);\r\n    }\r\n\r\n    function isAdmin(address _adminAddress) public view returns (bool) {\r\n        return admins[_adminAddress].adminAddress != address(0);\r\n    }\r\n\r\n    \r\n    function updateStudent(string memory _studentName) public {\r\n        require(students[msg.sender].studentAddress != address(0), \"Student does not exist\");\r\n        students[msg.sender].name = _studentName;\r\n    }\r\n\r\nfunction updateAdmin(string memory _adminName) public  onlyAdmin{\r\n    require(admins[msg.sender].adminAddress != address(0), \"Admin does not exist\");\r\n    admins[msg.sender].name = _adminName;\r\n}\r\n\r\n\r\n\r\n    function issueCertificate(\r\n        string memory _recipientName,\r\n        string memory _eventName,\r\n        string memory _issuedDate,\r\n        string memory _certHash,\r\n        address _studentAddress\r\n    ) public onlyAdmin {\r\n        require(!certificates[_certHash].isValid, \"Certificate with this hash already exists\");\r\n\r\n        Certificate memory newCert = Certificate({\r\n            recipientName: _recipientName,\r\n            eventName: _eventName,\r\n            issuedDate: _issuedDate,\r\n            certHash: _certHash,\r\n            isValid: true\r\n        });\r\n\r\n        certificates[_certHash] = newCert;\r\n        ownerToCertHashes[_studentAddress].push(_certHash);\r\n\r\n        emit CertificateIssued(_certHash, _recipientName, _eventName, _issuedDate);\r\n    }\r\n\r\n    function verifyCertificate(string memory _certHash)\r\n        public\r\n        view\r\n        returns (string memory, string memory, string memory, bool)\r\n    {\r\n        Certificate memory cert = certificates[_certHash];\r\n        require(cert.isValid, \"Certificate is not valid or doesn't exist\");\r\n        return (cert.recipientName, cert.eventName, cert.issuedDate, cert.isValid);\r\n    }\r\n\r\n    function revokeCertificate(string memory _certHash) public onlyAdmin {\r\n        require(certificates[_certHash].isValid, \"Certificate already revoked or doesn't exist\");\r\n        certificates[_certHash].isValid = false;\r\n\r\n        emit CertificateRevoked(_certHash);\r\n    }\r\n\r\n    function getCertificate(string memory _certHash) public view returns (Certificate memory) {\r\n        return certificates[_certHash];\r\n    }\r\n\r\n    function getCertificatesByOwner(address _owner) public view returns (Certificate[] memory) {\r\n        string[] memory hashes = ownerToCertHashes[_owner];\r\n        Certificate[] memory certList = new Certificate[](hashes.length);\r\n\r\n        for (uint i = 0; i < hashes.length; i++) {\r\n            certList[i] = certificates[hashes[i]];\r\n        }\r\n\r\n        return certList;\r\n    }\r\n}\r\n",
  "sourcePath": "C:\\Users\\PC\\Documents\\GitHub\\Cert\\contract\\contracts\\CertificateRegistry.sol",
  "compiler": {
    "name": "solc",
    "version": "0.8.0+commit.c7dfd78e.Emscripten.clang"
  },
  "schemaVersion": "3.4.16",
  "updatedAt": "2025-05-21T13:17:47.309Z",
  "networkType": "ethereum",
  "devdoc": {
    "kind": "dev",
    "methods": {},
    "version": 1
  },
  "userdoc": {
    "kind": "user",
    "methods": {},
    "version": 1
  }
}