{
  "contractName": "CertificateRegistry",
  "abi": [
    {
      "inputs": [],
      "stateMutability": "nonpayable",
      "type": "constructor"
    },
    {
      "anonymous": false,
      "inputs": [
        {
          "indexed": false,
          "internalType": "string",
          "name": "certHash",
          "type": "string"
        },
        {
          "indexed": false,
          "internalType": "string",
          "name": "recipientName",
          "type": "string"
        },
        {
          "indexed": false,
          "internalType": "string",
          "name": "eventName",
          "type": "string"
        },
        {
          "indexed": false,
          "internalType": "string",
          "name": "issuedDate",
          "type": "string"
        }
      ],
      "name": "CertificateIssued",
      "type": "event"
    },
    {
      "anonymous": false,
      "inputs": [
        {
          "indexed": false,
          "internalType": "string",
          "name": "certHash",
          "type": "string"
        }
      ],
      "name": "CertificateRevoked",
      "type": "event"
    },
    {
      "inputs": [],
      "name": "admin",
      "outputs": [
        {
          "internalType": "address",
          "name": "",
          "type": "address"
        }
      ],
      "stateMutability": "view",
      "type": "function",
      "constant": true
    },
    {
      "inputs": [
        {
          "internalType": "address",
          "name": "",
          "type": "address"
        }
      ],
      "name": "admins",
      "outputs": [
        {
          "internalType": "string",
          "name": "name",
          "type": "string"
        },
        {
          "internalType": "address",
          "name": "adminAddress",
          "type": "address"
        }
      ],
      "stateMutability": "view",
      "type": "function",
      "constant": true
    },
    {
      "inputs": [
        {
          "internalType": "address",
          "name": "",
          "type": "address"
        }
      ],
      "name": "students",
      "outputs": [
        {
          "internalType": "string",
          "name": "name",
          "type": "string"
        },
        {
          "internalType": "address",
          "name": "studentAddress",
          "type": "address"
        }
      ],
      "stateMutability": "view",
      "type": "function",
      "constant": true
    },
    {
      "inputs": [
        {
          "internalType": "string",
          "name": "_studentName",
          "type": "string"
        },
        {
          "internalType": "address",
          "name": "_studentAddress",
          "type": "address"
        }
      ],
      "name": "addStudent",
      "outputs": [],
      "stateMutability": "nonpayable",
      "type": "function"
    },
    {
      "inputs": [
        {
          "internalType": "string",
          "name": "_adminName",
          "type": "string"
        },
        {
          "internalType": "address",
          "name": "_adminAddress",
          "type": "address"
        }
      ],
      "name": "addAdmin",
      "outputs": [],
      "stateMutability": "nonpayable",
      "type": "function"
    },
    {
      "inputs": [],
      "name": "getStudentNames",
      "outputs": [
        {
          "internalType": "string[]",
          "name": "",
          "type": "string[]"
        }
      ],
      "stateMutability": "view",
      "type": "function",
      "constant": true
    },
    {
      "inputs": [
        {
          "internalType": "string",
          "name": "_studentName",
          "type": "string"
        }
      ],
      "name": "getStudentAddressByName",
      "outputs": [
        {
          "internalType": "address",
          "name": "",
          "type": "address"
        }
      ],
      "stateMutability": "view",
      "type": "function",
      "constant": true
    },
    {
      "inputs": [],
      "name": "getAdminNames",
      "outputs": [
        {
          "internalType": "string[]",
          "name": "",
          "type": "string[]"
        }
      ],
      "stateMutability": "view",
      "type": "function",
      "constant": true
    },
    {
      "inputs": [
        {
          "internalType": "string",
          "name": "_adminName",
          "type": "string"
        }
      ],
      "name": "getAdminAddressByName",
      "outputs": [
        {
          "internalType": "address",
          "name": "",
          "type": "address"
        }
      ],
      "stateMutability": "view",
      "type": "function",
      "constant": true
    },
    {
      "inputs": [
        {
          "internalType": "string",
          "name": "_studentName",
          "type": "string"
        }
      ],
      "name": "updateStudent",
      "outputs": [],
      "stateMutability": "nonpayable",
      "type": "function"
    },
    {
      "inputs": [
        {
          "internalType": "string",
          "name": "_adminName",
          "type": "string"
        }
      ],
      "name": "updateAdmin",
      "outputs": [],
      "stateMutability": "nonpayable",
      "type": "function"
    },
    {
      "inputs": [
        {
          "internalType": "string",
          "name": "_recipientName",
          "type": "string"
        },
        {
          "internalType": "string",
          "name": "_eventName",
          "type": "string"
        },
        {
          "internalType": "string",
          "name": "_issuedDate",
          "type": "string"
        },
        {
          "internalType": "string",
          "name": "_certHash",
          "type": "string"
        },
        {
          "internalType": "address",
          "name": "_studentAddress",
          "type": "address"
        }
      ],
      "name": "issueCertificate",
      "outputs": [],
      "stateMutability": "nonpayable",
      "type": "function"
    },
    {
      "inputs": [
        {
          "internalType": "string",
          "name": "_certHash",
          "type": "string"
        }
      ],
      "name": "verifyCertificate",
      "outputs": [
        {
          "internalType": "string",
          "name": "",
          "type": "string"
        },
        {
          "internalType": "string",
          "name": "",
          "type": "string"
        },
        {
          "internalType": "string",
          "name": "",
          "type": "string"
        },
        {
          "internalType": "bool",
          "name": "",
          "type": "bool"
        }
      ],
      "stateMutability": "view",
      "type": "function",
      "constant": true
    },
    {
      "inputs": [
        {
          "internalType": "string",
          "name": "_certHash",
          "type": "string"
        }
      ],
      "name": "revokeCertificate",
      "outputs": [],
      "stateMutability": "nonpayable",
      "type": "function"
    },
    {
      "inputs": [
        {
          "internalType": "string",
          "name": "_certHash",
          "type": "string"
        }
      ],
      "name": "getCertificate",
      "outputs": [
        {
          "components": [
            {
              "internalType": "string",
              "name": "recipientName",
              "type": "string"
            },
            {
              "internalType": "string",
              "name": "eventName",
              "type": "string"
            },
            {
              "internalType": "string",
              "name": "issuedDate",
              "type": "string"
            },
            {
              "internalType": "string",
              "name": "certHash",
              "type": "string"
            },
            {
              "internalType": "bool",
              "name": "isValid",
              "type": "bool"
            }
          ],
          "internalType": "struct CertificateRegistry.Certificate",
          "name": "",
          "type": "tuple"
        }
      ],
      "stateMutability": "view",
      "type": "function",
      "constant": true
    },
    {
      "inputs": [
        {
          "internalType": "address",
          "name": "_owner",
          "type": "address"
        }
      ],
      "name": "getCertificatesByOwner",
      "outputs": [
        {
          "components": [
            {
              "internalType": "string",
              "name": "recipientName",
              "type": "string"
            },
            {
              "internalType": "string",
              "name": "eventName",
              "type": "string"
            },
            {
              "internalType": "string",
              "name": "issuedDate",
              "type": "string"
            },
            {
              "internalType": "string",
              "name": "certHash",
              "type": "string"
            },
            {
              "internalType": "bool",
              "name": "isValid",
              "type": "bool"
            }
          ],
          "internalType": "struct CertificateRegistry.Certificate[]",
          "name": "",
          "type": "tuple[]"
        }
      ],
      "stateMutability": "view",
      "type": "function",
      "constant": true
    }
  ],
  "bytecode": "0x60806040523480156200001157600080fd5b5033600660006101000a81548173ffffffffffffffffffffffffffffffffffffffff021916908373ffffffffffffffffffffffffffffffffffffffff16021790555060405180604001604052806040518060400160405280600b81526020017f53757065722041646d696e00000000000000000000000000000000000000000081525081526020013373ffffffffffffffffffffffffffffffffffffffff16815250600160003373ffffffffffffffffffffffffffffffffffffffff1673ffffffffffffffffffffffffffffffffffffffff168152602001908152602001600020600082015181600001908051906020019062000110929190620001c4565b5060208201518160010160006101000a81548173ffffffffffffffffffffffffffffffffffffffff021916908373ffffffffffffffffffffffffffffffffffffffff1602179055509050506003339080600181540180825580915050600190039060005260206000200160009091909190916101000a81548173ffffffffffffffffffffffffffffffffffffffff021916908373ffffffffffffffffffffffffffffffffffffffff160217905550620002d9565b828054620001d29062000274565b90600052602060002090601f016020900481019282620001f6576000855562000242565b82601f106200021157805160ff191683800117855562000242565b8280016001018555821562000242579182015b828111156200024157825182559160200191906001019062000224565b5b50905062000251919062000255565b5090565b5b808211156200027057600081600090555060010162000256565b5090565b600060028204905060018216806200028d57607f821691505b60208210811415620002a457620002a3620002aa565b5b50919050565b7f4e487b7100000000000000000000000000000000000000000000000000000000600052602260045260246000fd5b6134d780620002e96000396000f3fe608060405234801561001057600080fd5b50600436106101005760003560e01c806372c27fc511610097578063bfe8aea211610066578063bfe8aea2146102d2578063ed0f2e75146102f0578063f851a44014610320578063fdb668eb1461033e57610100565b806372c27fc5146102365780638b23d87514610252578063a6c807a914610285578063bed88208146102b657610100565b80631db73840116100d35780631db7384014610189578063229efd24146101b957806338268bd8146101d5578063429b62e51461020557610100565b806301a23739146101055780630831b05f1461013557806310468c2f14610151578063142e15421461016d575b600080fd5b61011f600480360381019061011a9190612790565b61035c565b60405161012c9190612f39565b60405180910390f35b61014f600480360381019061014a91906127d1565b6104f5565b005b61016b600480360381019061016691906127d1565b610828565b005b61018760048036038101906101829190612790565b610b59565b005b6101a3600480360381019061019e9190612767565b610d65565b6040516101b09190612f76565b60405180910390f35b6101d360048036038101906101ce9190612825565b611233565b005b6101ef60048036038101906101ea9190612790565b61156e565b6040516101fc9190612f39565b60405180910390f35b61021f600480360381019061021a9190612767565b611706565b60405161022d929190612fba565b60405180910390f35b610250600480360381019061024b9190612790565b6117d2565b005b61026c60048036038101906102679190612790565b6118fc565b60405161027c9493929190612fea565b60405180910390f35b61029f600480360381019061029a9190612767565b611bfa565b6040516102ad929190612fba565b60405180910390f35b6102d060048036038101906102cb9190612790565b611cc6565b005b6102da611f1c565b6040516102e79190612f54565b60405180910390f35b61030a60048036038101906103059190612790565b612139565b60405161031791906131a5565b60405180910390f35b6103286123d4565b6040516103359190612f39565b60405180910390f35b6103466123fa565b6040516103539190612f54565b60405180910390f35b600080600090505b6003805490508110156104ea57826040516020016103829190612f0b565b6040516020818303038152906040528051906020012060016000600384815481106103d6577f4e487b7100000000000000000000000000000000000000000000000000000000600052603260045260246000fd5b9060005260206000200160009054906101000a900473ffffffffffffffffffffffffffffffffffffffff1673ffffffffffffffffffffffffffffffffffffffff1673ffffffffffffffffffffffffffffffffffffffff16815260200190815260200160002060000160405160200161044e9190612f22565b6040516020818303038152906040528051906020012014156104d757600381815481106104a4577f4e487b7100000000000000000000000000000000000000000000000000000000600052603260045260246000fd5b9060005260206000200160009054906101000a900473ffffffffffffffffffffffffffffffffffffffff169150506104f0565b80806104e2906133a3565b915050610364565b50600090505b919050565b600660009054906101000a900473ffffffffffffffffffffffffffffffffffffffff1673ffffffffffffffffffffffffffffffffffffffff163373ffffffffffffffffffffffffffffffffffffffff1614806105e05750600073ffffffffffffffffffffffffffffffffffffffff16600160003373ffffffffffffffffffffffffffffffffffffffff1673ffffffffffffffffffffffffffffffffffffffff16815260200190815260200160002060010160009054906101000a900473ffffffffffffffffffffffffffffffffffffffff1673ffffffffffffffffffffffffffffffffffffffff1614155b61061f576040517f08c379a000000000000000000000000000000000000000000000000000000000815260040161061690613125565b60405180910390fd5b600073ffffffffffffffffffffffffffffffffffffffff16600160008373ffffffffffffffffffffffffffffffffffffffff1673ffffffffffffffffffffffffffffffffffffffff16815260200190815260200160002060010160009054906101000a900473ffffffffffffffffffffffffffffffffffffffff1673ffffffffffffffffffffffffffffffffffffffff16146106f0576040517f08c379a00000000000000000000000000000000000000000000000000000000081526004016106e790613165565b60405180910390fd5b60405180604001604052808381526020018273ffffffffffffffffffffffffffffffffffffffff16815250600160008373ffffffffffffffffffffffffffffffffffffffff1673ffffffffffffffffffffffffffffffffffffffff1681526020019081526020016000206000820151816000019080519060200190610776929190612616565b5060208201518160010160006101000a81548173ffffffffffffffffffffffffffffffffffffffff021916908373ffffffffffffffffffffffffffffffffffffffff1602179055509050506003819080600181540180825580915050600190039060005260206000200160009091909190916101000a81548173ffffffffffffffffffffffffffffffffffffffff021916908373ffffffffffffffffffffffffffffffffffffffff1602179055505050565b600660009054906101000a900473ffffffffffffffffffffffffffffffffffffffff1673ffffffffffffffffffffffffffffffffffffffff163373ffffffffffffffffffffffffffffffffffffffff1614806109135750600073ffffffffffffffffffffffffffffffffffffffff16600160003373ffffffffffffffffffffffffffffffffffffffff1673ffffffffffffffffffffffffffffffffffffffff16815260200190815260200160002060010160009054906101000a900473ffffffffffffffffffffffffffffffffffffffff1673ffffffffffffffffffffffffffffffffffffffff1614155b610952576040517f08c379a000000000000000000000000000000000000000000000000000000000815260040161094990613125565b60405180910390fd5b600073ffffffffffffffffffffffffffffffffffffffff166000808373ffffffffffffffffffffffffffffffffffffffff1673ffffffffffffffffffffffffffffffffffffffff16815260200190815260200160002060010160009054906101000a900473ffffffffffffffffffffffffffffffffffffffff1673ffffffffffffffffffffffffffffffffffffffff1614610a22576040517f08c379a0000000000000000000000000000000000000000000000000000000008152600401610a1990613105565b60405180910390fd5b60405180604001604052808381526020018273ffffffffffffffffffffffffffffffffffffffff168152506000808373ffffffffffffffffffffffffffffffffffffffff1673ffffffffffffffffffffffffffffffffffffffff1681526020019081526020016000206000820151816000019080519060200190610aa7929190612616565b5060208201518160010160006101000a81548173ffffffffffffffffffffffffffffffffffffffff021916908373ffffffffffffffffffffffffffffffffffffffff1602179055509050506002819080600181540180825580915050600190039060005260206000200160009091909190916101000a81548173ffffffffffffffffffffffffffffffffffffffff021916908373ffffffffffffffffffffffffffffffffffffffff1602179055505050565b600660009054906101000a900473ffffffffffffffffffffffffffffffffffffffff1673ffffffffffffffffffffffffffffffffffffffff163373ffffffffffffffffffffffffffffffffffffffff161480610c445750600073ffffffffffffffffffffffffffffffffffffffff16600160003373ffffffffffffffffffffffffffffffffffffffff1673ffffffffffffffffffffffffffffffffffffffff16815260200190815260200160002060010160009054906101000a900473ffffffffffffffffffffffffffffffffffffffff1673ffffffffffffffffffffffffffffffffffffffff1614155b610c83576040517f08c379a0000000000000000000000000000000000000000000000000000000008152600401610c7a90613125565b60405180910390fd5b600481604051610c939190612f0b565b908152602001604051809103902060040160009054906101000a900460ff16610cf1576040517f08c379a0000000000000000000000000000000000000000000000000000000008152600401610ce890613185565b60405180910390fd5b6000600482604051610d039190612f0b565b908152602001604051809103902060040160006101000a81548160ff0219169083151502179055507f266095b5af7e2323760fef151f1d78896740cd2cc1b73a6357ff9e4c3fdae74081604051610d5a9190612f98565b60405180910390a150565b60606000600560008473ffffffffffffffffffffffffffffffffffffffff1673ffffffffffffffffffffffffffffffffffffffff168152602001908152602001600020805480602002602001604051908101604052809291908181526020016000905b82821015610e74578382906000526020600020018054610de790613371565b80601f0160208091040260200160405190810160405280929190818152602001828054610e1390613371565b8015610e605780601f10610e3557610100808354040283529160200191610e60565b820191906000526020600020905b815481529060010190602001808311610e4357829003601f168201915b505050505081526020019060010190610dc8565b5050505090506000815167ffffffffffffffff811115610ebd577f4e487b7100000000000000000000000000000000000000000000000000000000600052604160045260246000fd5b604051908082528060200260200182016040528015610ef657816020015b610ee361269c565b815260200190600190039081610edb5790505b50905060005b8251811015611228576004838281518110610f40577f4e487b7100000000000000000000000000000000000000000000000000000000600052603260045260246000fd5b6020026020010151604051610f559190612f0b565b90815260200160405180910390206040518060a0016040529081600082018054610f7e90613371565b80601f0160208091040260200160405190810160405280929190818152602001828054610faa90613371565b8015610ff75780601f10610fcc57610100808354040283529160200191610ff7565b820191906000526020600020905b815481529060010190602001808311610fda57829003601f168201915b5050505050815260200160018201805461101090613371565b80601f016020809104026020016040519081016040528092919081815260200182805461103c90613371565b80156110895780601f1061105e57610100808354040283529160200191611089565b820191906000526020600020905b81548152906001019060200180831161106c57829003601f168201915b505050505081526020016002820180546110a290613371565b80601f01602080910402602001604051908101604052809291908181526020018280546110ce90613371565b801561111b5780601f106110f05761010080835404028352916020019161111b565b820191906000526020600020905b8154815290600101906020018083116110fe57829003601f168201915b5050505050815260200160038201805461113490613371565b80601f016020809104026020016040519081016040528092919081815260200182805461116090613371565b80156111ad5780601f10611182576101008083540402835291602001916111ad565b820191906000526020600020905b81548152906001019060200180831161119057829003601f168201915b505050505081526020016004820160009054906101000a900460ff16151515158152505082828151811061120a577f4e487b7100000000000000000000000000000000000000000000000000000000600052603260045260246000fd5b60200260200101819052508080611220906133a3565b915050610efc565b508092505050919050565b600660009054906101000a900473ffffffffffffffffffffffffffffffffffffffff1673ffffffffffffffffffffffffffffffffffffffff163373ffffffffffffffffffffffffffffffffffffffff16148061131e5750600073ffffffffffffffffffffffffffffffffffffffff16600160003373ffffffffffffffffffffffffffffffffffffffff1673ffffffffffffffffffffffffffffffffffffffff16815260200190815260200160002060010160009054906101000a900473ffffffffffffffffffffffffffffffffffffffff1673ffffffffffffffffffffffffffffffffffffffff1614155b61135d576040517f08c379a000000000000000000000000000000000000000000000000000000000815260040161135490613125565b60405180910390fd5b60048260405161136d9190612f0b565b908152602001604051809103902060040160009054906101000a900460ff16156113cc576040517f08c379a00000000000000000000000000000000000000000000000000000000081526004016113c3906130a5565b60405180910390fd5b60006040518060a001604052808781526020018681526020018581526020018481526020016001151581525090508060048460405161140b9190612f0b565b90815260200160405180910390206000820151816000019080519060200190611435929190612616565b506020820151816001019080519060200190611452929190612616565b50604082015181600201908051906020019061146f929190612616565b50606082015181600301908051906020019061148c929190612616565b5060808201518160040160006101000a81548160ff021916908315150217905550905050600560008373ffffffffffffffffffffffffffffffffffffffff1673ffffffffffffffffffffffffffffffffffffffff16815260200190815260200160002083908060018154018082558091505060019003906000526020600020016000909190919091509080519060200190611528929190612616565b507f5b93630a6e8094d935e3329a9bc9d517943d525511136733ade8d280cce21cb68387878760405161155e9493929190613044565b60405180910390a1505050505050565b600080600090505b6002805490508110156116fb57826040516020016115949190612f0b565b60405160208183030381529060405280519060200120600080600284815481106115e7577f4e487b7100000000000000000000000000000000000000000000000000000000600052603260045260246000fd5b9060005260206000200160009054906101000a900473ffffffffffffffffffffffffffffffffffffffff1673ffffffffffffffffffffffffffffffffffffffff1673ffffffffffffffffffffffffffffffffffffffff16815260200190815260200160002060000160405160200161165f9190612f22565b6040516020818303038152906040528051906020012014156116e857600281815481106116b5577f4e487b7100000000000000000000000000000000000000000000000000000000600052603260045260246000fd5b9060005260206000200160009054906101000a900473ffffffffffffffffffffffffffffffffffffffff16915050611701565b80806116f3906133a3565b915050611576565b50600090505b919050565b600160205280600052604060002060009150905080600001805461172990613371565b80601f016020809104026020016040519081016040528092919081815260200182805461175590613371565b80156117a25780601f10611777576101008083540402835291602001916117a2565b820191906000526020600020905b81548152906001019060200180831161178557829003601f168201915b5050505050908060010160009054906101000a900473ffffffffffffffffffffffffffffffffffffffff16905082565b600073ffffffffffffffffffffffffffffffffffffffff166000803373ffffffffffffffffffffffffffffffffffffffff1673ffffffffffffffffffffffffffffffffffffffff16815260200190815260200160002060010160009054906101000a900473ffffffffffffffffffffffffffffffffffffffff1673ffffffffffffffffffffffffffffffffffffffff1614156118a3576040517f08c379a000000000000000000000000000000000000000000000000000000000815260040161189a906130e5565b60405180910390fd5b806000803373ffffffffffffffffffffffffffffffffffffffff1673ffffffffffffffffffffffffffffffffffffffff16815260200190815260200160002060000190805190602001906118f8929190612616565b5050565b60608060606000806004866040516119149190612f0b565b90815260200160405180910390206040518060a001604052908160008201805461193d90613371565b80601f016020809104026020016040519081016040528092919081815260200182805461196990613371565b80156119b65780601f1061198b576101008083540402835291602001916119b6565b820191906000526020600020905b81548152906001019060200180831161199957829003601f168201915b505050505081526020016001820180546119cf90613371565b80601f01602080910402602001604051908101604052809291908181526020018280546119fb90613371565b8015611a485780601f10611a1d57610100808354040283529160200191611a48565b820191906000526020600020905b815481529060010190602001808311611a2b57829003601f168201915b50505050508152602001600282018054611a6190613371565b80601f0160208091040260200160405190810160405280929190818152602001828054611a8d90613371565b8015611ada5780601f10611aaf57610100808354040283529160200191611ada565b820191906000526020600020905b815481529060010190602001808311611abd57829003601f168201915b50505050508152602001600382018054611af390613371565b80601f0160208091040260200160405190810160405280929190818152602001828054611b1f90613371565b8015611b6c5780601f10611b4157610100808354040283529160200191611b6c565b820191906000526020600020905b815481529060010190602001808311611b4f57829003601f168201915b505050505081526020016004820160009054906101000a900460ff16151515158152505090508060800151611bd6576040517f08c379a0000000000000000000000000000000000000000000000000000000008152600401611bcd90613145565b60405180910390fd5b80600001518160200151826040015183608001519450945094509450509193509193565b6000602052806000526040600020600091509050806000018054611c1d90613371565b80601f0160208091040260200160405190810160405280929190818152602001828054611c4990613371565b8015611c965780601f10611c6b57610100808354040283529160200191611c96565b820191906000526020600020905b815481529060010190602001808311611c7957829003601f168201915b5050505050908060010160009054906101000a900473ffffffffffffffffffffffffffffffffffffffff16905082565b600660009054906101000a900473ffffffffffffffffffffffffffffffffffffffff1673ffffffffffffffffffffffffffffffffffffffff163373ffffffffffffffffffffffffffffffffffffffff161480611db15750600073ffffffffffffffffffffffffffffffffffffffff16600160003373ffffffffffffffffffffffffffffffffffffffff1673ffffffffffffffffffffffffffffffffffffffff16815260200190815260200160002060010160009054906101000a900473ffffffffffffffffffffffffffffffffffffffff1673ffffffffffffffffffffffffffffffffffffffff1614155b611df0576040517f08c379a0000000000000000000000000000000000000000000000000000000008152600401611de790613125565b60405180910390fd5b600073ffffffffffffffffffffffffffffffffffffffff16600160003373ffffffffffffffffffffffffffffffffffffffff1673ffffffffffffffffffffffffffffffffffffffff16815260200190815260200160002060010160009054906101000a900473ffffffffffffffffffffffffffffffffffffffff1673ffffffffffffffffffffffffffffffffffffffff161415611ec2576040517f08c379a0000000000000000000000000000000000000000000000000000000008152600401611eb9906130c5565b60405180910390fd5b80600160003373ffffffffffffffffffffffffffffffffffffffff1673ffffffffffffffffffffffffffffffffffffffff1681526020019081526020016000206000019080519060200190611f18929190612616565b5050565b6060600060038054905067ffffffffffffffff811115611f65577f4e487b7100000000000000000000000000000000000000000000000000000000600052604160045260246000fd5b604051908082528060200260200182016040528015611f9857816020015b6060815260200190600190039081611f835790505b50905060005b600380549050811015612131576001600060038381548110611fe9577f4e487b7100000000000000000000000000000000000000000000000000000000600052603260045260246000fd5b9060005260206000200160009054906101000a900473ffffffffffffffffffffffffffffffffffffffff1673ffffffffffffffffffffffffffffffffffffffff1673ffffffffffffffffffffffffffffffffffffffff168152602001908152602001600020600001805461205c90613371565b80601f016020809104026020016040519081016040528092919081815260200182805461208890613371565b80156120d55780601f106120aa576101008083540402835291602001916120d5565b820191906000526020600020905b8154815290600101906020018083116120b857829003601f168201915b5050505050828281518110612113577f4e487b7100000000000000000000000000000000000000000000000000000000600052603260045260246000fd5b60200260200101819052508080612129906133a3565b915050611f9e565b508091505090565b61214161269c565b6004826040516121519190612f0b565b90815260200160405180910390206040518060a001604052908160008201805461217a90613371565b80601f01602080910402602001604051908101604052809291908181526020018280546121a690613371565b80156121f35780601f106121c8576101008083540402835291602001916121f3565b820191906000526020600020905b8154815290600101906020018083116121d657829003601f168201915b5050505050815260200160018201805461220c90613371565b80601f016020809104026020016040519081016040528092919081815260200182805461223890613371565b80156122855780601f1061225a57610100808354040283529160200191612285565b820191906000526020600020905b81548152906001019060200180831161226857829003601f168201915b5050505050815260200160028201805461229e90613371565b80601f01602080910402602001604051908101604052809291908181526020018280546122ca90613371565b80156123175780601f106122ec57610100808354040283529160200191612317565b820191906000526020600020905b8154815290600101906020018083116122fa57829003601f168201915b5050505050815260200160038201805461233090613371565b80601f016020809104026020016040519081016040528092919081815260200182805461235c90613371565b80156123a95780601f1061237e576101008083540402835291602001916123a9565b820191906000526020600020905b81548152906001019060200180831161238c57829003601f168201915b505050505081526020016004820160009054906101000a900460ff1615151515815250509050919050565b600660009054906101000a900473ffffffffffffffffffffffffffffffffffffffff1681565b6060600060028054905067ffffffffffffffff811115612443577f4e487b7100000000000000000000000000000000000000000000000000000000600052604160045260246000fd5b60405190808252806020026020018201604052801561247657816020015b60608152602001906001900390816124615790505b50905060005b60028054905081101561260e57600080600283815481106124c6577f4e487b7100000000000000000000000000000000000000000000000000000000600052603260045260246000fd5b9060005260206000200160009054906101000a900473ffffffffffffffffffffffffffffffffffffffff1673ffffffffffffffffffffffffffffffffffffffff1673ffffffffffffffffffffffffffffffffffffffff168152602001908152602001600020600001805461253990613371565b80601f016020809104026020016040519081016040528092919081815260200182805461256590613371565b80156125b25780601f10612587576101008083540402835291602001916125b2565b820191906000526020600020905b81548152906001019060200180831161259557829003601f168201915b50505050508282815181106125f0577f4e487b7100000000000000000000000000000000000000000000000000000000600052603260045260246000fd5b60200260200101819052508080612606906133a3565b91505061247c565b508091505090565b82805461262290613371565b90600052602060002090601f016020900481019282612644576000855561268b565b82601f1061265d57805160ff191683800117855561268b565b8280016001018555821561268b579182015b8281111561268a57825182559160200191906001019061266f565b5b50905061269891906126cd565b5090565b6040518060a00160405280606081526020016060815260200160608152602001606081526020016000151581525090565b5b808211156126e65760008160009055506001016126ce565b5090565b60006126fd6126f8846131f8565b6131c7565b90508281526020810184848401111561271557600080fd5b61272084828561332f565b509392505050565b6000813590506127378161348a565b92915050565b600082601f83011261274e57600080fd5b813561275e8482602086016126ea565b91505092915050565b60006020828403121561277957600080fd5b600061278784828501612728565b91505092915050565b6000602082840312156127a257600080fd5b600082013567ffffffffffffffff8111156127bc57600080fd5b6127c88482850161273d565b91505092915050565b600080604083850312156127e457600080fd5b600083013567ffffffffffffffff8111156127fe57600080fd5b61280a8582860161273d565b925050602061281b85828601612728565b9150509250929050565b600080600080600060a0868803121561283d57600080fd5b600086013567ffffffffffffffff81111561285757600080fd5b6128638882890161273d565b955050602086013567ffffffffffffffff81111561288057600080fd5b61288c8882890161273d565b945050604086013567ffffffffffffffff8111156128a957600080fd5b6128b58882890161273d565b935050606086013567ffffffffffffffff8111156128d257600080fd5b6128de8882890161273d565b92505060806128ef88828901612728565b9150509295509295909350565b60006129088383612a3b565b905092915050565b600061291c8383612df5565b905092915050565b61292d816132e7565b82525050565b600061293e8261325d565b6129488185613298565b93508360208202850161295a85613228565b8060005b85811015612996578484038952815161297785826128fc565b94506129828361327e565b925060208a0199505060018101905061295e565b50829750879550505050505092915050565b60006129b382613268565b6129bd81856132a9565b9350836020820285016129cf85613238565b8060005b85811015612a0b57848403895281516129ec8582612910565b94506129f78361328b565b925060208a019950506001810190506129d3565b50829750879550505050505092915050565b612a26816132f9565b82525050565b612a35816132f9565b82525050565b6000612a4682613273565b612a5081856132ba565b9350612a6081856020860161333e565b612a6981613479565b840191505092915050565b6000612a7f82613273565b612a8981856132cb565b9350612a9981856020860161333e565b612aa281613479565b840191505092915050565b6000612ab882613273565b612ac281856132dc565b9350612ad281856020860161333e565b80840191505092915050565b60008154612aeb81613371565b612af581866132dc565b94506001821660008114612b105760018114612b2157612b54565b60ff19831686528186019350612b54565b612b2a85613248565b60005b83811015612b4c57815481890152600182019150602081019050612b2d565b838801955050505b50505092915050565b6000612b6a6029836132cb565b91507f436572746966696361746520776974682074686973206861736820616c72656160008301527f64792065786973747300000000000000000000000000000000000000000000006020830152604082019050919050565b6000612bd06014836132cb565b91507f41646d696e20646f6573206e6f742065786973740000000000000000000000006000830152602082019050919050565b6000612c106016836132cb565b91507f53747564656e7420646f6573206e6f74206578697374000000000000000000006000830152602082019050919050565b6000612c506016836132cb565b91507f53747564656e7420616c726561647920657869737473000000000000000000006000830152602082019050919050565b6000612c906022836132cb565b91507f4f6e6c792061646d696e2063616e20706572666f726d2074686973206163746960008301527f6f6e0000000000000000000000000000000000000000000000000000000000006020830152604082019050919050565b6000612cf66029836132cb565b91507f4365727469666963617465206973206e6f742076616c6964206f7220646f657360008301527f6e277420657869737400000000000000000000000000000000000000000000006020830152604082019050919050565b6000612d5c6014836132cb565b91507f41646d696e20616c7265616479206578697374730000000000000000000000006000830152602082019050919050565b6000612d9c602c836132cb565b91507f436572746966696361746520616c7265616479207265766f6b6564206f72206460008301527f6f65736e277420657869737400000000000000000000000000000000000000006020830152604082019050919050565b600060a0830160008301518482036000860152612e128282612a3b565b91505060208301518482036020860152612e2c8282612a3b565b91505060408301518482036040860152612e468282612a3b565b91505060608301518482036060860152612e608282612a3b565b9150506080830151612e756080860182612a1d565b508091505092915050565b600060a0830160008301518482036000860152612e9d8282612a3b565b91505060208301518482036020860152612eb78282612a3b565b91505060408301518482036040860152612ed18282612a3b565b91505060608301518482036060860152612eeb8282612a3b565b9150506080830151612f006080860182612a1d565b508091505092915050565b6000612f178284612aad565b915081905092915050565b6000612f2e8284612ade565b915081905092915050565b6000602082019050612f4e6000830184612924565b92915050565b60006020820190508181036000830152612f6e8184612933565b905092915050565b60006020820190508181036000830152612f9081846129a8565b905092915050565b60006020820190508181036000830152612fb28184612a74565b905092915050565b60006040820190508181036000830152612fd48185612a74565b9050612fe36020830184612924565b9392505050565b600060808201905081810360008301526130048187612a74565b905081810360208301526130188186612a74565b9050818103604083015261302c8185612a74565b905061303b6060830184612a2c565b95945050505050565b6000608082019050818103600083015261305e8187612a74565b905081810360208301526130728186612a74565b905081810360408301526130868185612a74565b9050818103606083015261309a8184612a74565b905095945050505050565b600060208201905081810360008301526130be81612b5d565b9050919050565b600060208201905081810360008301526130de81612bc3565b9050919050565b600060208201905081810360008301526130fe81612c03565b9050919050565b6000602082019050818103600083015261311e81612c43565b9050919050565b6000602082019050818103600083015261313e81612c83565b9050919050565b6000602082019050818103600083015261315e81612ce9565b9050919050565b6000602082019050818103600083015261317e81612d4f565b9050919050565b6000602082019050818103600083015261319e81612d8f565b9050919050565b600060208201905081810360008301526131bf8184612e80565b905092915050565b6000604051905081810181811067ffffffffffffffff821117156131ee576131ed61344a565b5b8060405250919050565b600067ffffffffffffffff8211156132135761321261344a565b5b601f19601f8301169050602081019050919050565b6000819050602082019050919050565b6000819050602082019050919050565b60008190508160005260206000209050919050565b600081519050919050565b600081519050919050565b600081519050919050565b6000602082019050919050565b6000602082019050919050565b600082825260208201905092915050565b600082825260208201905092915050565b600082825260208201905092915050565b600082825260208201905092915050565b600081905092915050565b60006132f282613305565b9050919050565b60008115159050919050565b600073ffffffffffffffffffffffffffffffffffffffff82169050919050565b6000819050919050565b82818337600083830152505050565b60005b8381101561335c578082015181840152602081019050613341565b8381111561336b576000848401525b50505050565b6000600282049050600182168061338957607f821691505b6020821081141561339d5761339c61341b565b5b50919050565b60006133ae82613325565b91507fffffffffffffffffffffffffffffffffffffffffffffffffffffffffffffffff8214156133e1576133e06133ec565b5b600182019050919050565b7f4e487b7100000000000000000000000000000000000000000000000000000000600052601160045260246000fd5b7f4e487b7100000000000000000000000000000000000000000000000000000000600052602260045260246000fd5b7f4e487b7100000000000000000000000000000000000000000000000000000000600052604160045260246000fd5b6000601f19601f8301169050919050565b613493816132e7565b811461349e57600080fd5b5056fea2646970667358221220eb94be1074d108cb51cb56a1803af6e470db41f0c90365a0cc837d763c2d5eed64736f6c63430008000033",
  "immutableReferences": {},
  "source": "// SPDX-License-Identifier: MIT\r\npragma solidity ^0.8.0;\r\n\r\ncontract CertificateRegistry {\r\n\r\n    struct Students {\r\n        string name;\r\n        address studentAddress;\r\n    }\r\n\r\n    struct Admin {\r\n        string name;\r\n        address adminAddress;\r\n    }\r\n\r\n    struct Certificate {\r\n        string recipientName;\r\n        string eventName;\r\n        string issuedDate;\r\n        string certHash;\r\n        bool isValid;\r\n    }\r\n\r\n    mapping(address => Students) public students;\r\n    mapping(address => Admin) public admins;\r\n\r\n    address[] private studentAddresses;\r\n    address[] private adminAddresses;\r\n\r\n    mapping(string => Certificate) private certificates;\r\n    mapping(address => string[]) private ownerToCertHashes;\r\n\r\n    address public admin;\r\n\r\n    event CertificateIssued(string certHash, string recipientName, string eventName, string issuedDate);\r\n    event CertificateRevoked(string certHash);\r\n\r\n    modifier onlyAdmin() {\r\n        require(msg.sender == admin || admins[msg.sender].adminAddress != address(0), \"Only admin can perform this action\");\r\n        _;\r\n    }\r\n\r\n    constructor() {\r\n        admin = msg.sender;\r\n        admins[msg.sender] = Admin(\"Super Admin\", msg.sender);\r\n        adminAddresses.push(msg.sender);\r\n    }\r\n\r\n    function addStudent(string memory _studentName, address _studentAddress) public onlyAdmin {\r\n        require(students[_studentAddress].studentAddress == address(0), \"Student already exists\");\r\n        students[_studentAddress] = Students(_studentName, _studentAddress);\r\n        studentAddresses.push(_studentAddress);\r\n    }\r\n\r\n    function addAdmin(string memory _adminName, address _adminAddress) public onlyAdmin {\r\n        require(admins[_adminAddress].adminAddress == address(0), \"Admin already exists\");\r\n        admins[_adminAddress] = Admin(_adminName, _adminAddress);\r\n        adminAddresses.push(_adminAddress);\r\n    }\r\n\r\n    function getStudentNames() public view returns (string[] memory) {\r\n        string[] memory studentNames = new string[](studentAddresses.length);\r\n        for (uint256 i = 0; i < studentAddresses.length; i++) {\r\n            studentNames[i] = students[studentAddresses[i]].name;\r\n        }\r\n        return studentNames;\r\n    }\r\n\r\n    \r\n    function getStudentAddressByName(string memory _studentName) public view returns (address) {\r\n        for (uint256 i = 0; i < studentAddresses.length; i++) {\r\n            if (keccak256(abi.encodePacked(students[studentAddresses[i]].name)) == keccak256(abi.encodePacked(_studentName))) {\r\n                return studentAddresses[i];\r\n            }\r\n        }\r\n        return address(0);\r\n    }\r\n\r\n\r\n\r\n    function getAdminNames() public view returns (string[] memory) {\r\n        string[] memory adminNames = new string[](adminAddresses.length);\r\n        for (uint256 i = 0; i < adminAddresses.length; i++) {\r\n            adminNames[i] = admins[adminAddresses[i]].name;\r\n        }\r\n        return adminNames;\r\n    }\r\n\r\n    \r\n    function getAdminAddressByName(string memory _adminName) public view returns (address) {\r\n        for (uint256 i = 0; i < adminAddresses.length; i++) {\r\n            if (keccak256(abi.encodePacked(admins[adminAddresses[i]].name)) == keccak256(abi.encodePacked(_adminName))) {\r\n                return adminAddresses[i];\r\n            }\r\n        }\r\n        return address(0);\r\n    }\r\n\r\n    \r\n    function updateStudent(string memory _studentName) public {\r\n        require(students[msg.sender].studentAddress != address(0), \"Student does not exist\");\r\n        students[msg.sender].name = _studentName;\r\n    }\r\n\r\nfunction updateAdmin(string memory _adminName) public  onlyAdmin{\r\n    require(admins[msg.sender].adminAddress != address(0), \"Admin does not exist\");\r\n    admins[msg.sender].name = _adminName;\r\n}\r\n\r\n\r\n\r\n    function issueCertificate(\r\n        string memory _recipientName,\r\n        string memory _eventName,\r\n        string memory _issuedDate,\r\n        string memory _certHash,\r\n        address _studentAddress\r\n    ) public onlyAdmin {\r\n        require(!certificates[_certHash].isValid, \"Certificate with this hash already exists\");\r\n\r\n        Certificate memory newCert = Certificate({\r\n            recipientName: _recipientName,\r\n            eventName: _eventName,\r\n            issuedDate: _issuedDate,\r\n            certHash: _certHash,\r\n            isValid: true\r\n        });\r\n\r\n        certificates[_certHash] = newCert;\r\n        ownerToCertHashes[_studentAddress].push(_certHash);\r\n\r\n        emit CertificateIssued(_certHash, _recipientName, _eventName, _issuedDate);\r\n    }\r\n\r\n    function verifyCertificate(string memory _certHash)\r\n        public\r\n        view\r\n        returns (string memory, string memory, string memory, bool)\r\n    {\r\n        Certificate memory cert = certificates[_certHash];\r\n        require(cert.isValid, \"Certificate is not valid or doesn't exist\");\r\n        return (cert.recipientName, cert.eventName, cert.issuedDate, cert.isValid);\r\n    }\r\n\r\n    function revokeCertificate(string memory _certHash) public onlyAdmin {\r\n        require(certificates[_certHash].isValid, \"Certificate already revoked or doesn't exist\");\r\n        certificates[_certHash].isValid = false;\r\n\r\n        emit CertificateRevoked(_certHash);\r\n    }\r\n\r\n    function getCertificate(string memory _certHash) public view returns (Certificate memory) {\r\n        return certificates[_certHash];\r\n    }\r\n\r\n    function getCertificatesByOwner(address _owner) public view returns (Certificate[] memory) {\r\n        string[] memory hashes = ownerToCertHashes[_owner];\r\n        Certificate[] memory certList = new Certificate[](hashes.length);\r\n\r\n        for (uint i = 0; i < hashes.length; i++) {\r\n            certList[i] = certificates[hashes[i]];\r\n        }\r\n\r\n        return certList;\r\n    }\r\n}\r\n",
  "sourcePath": "C:\\Users\\PC\\Documents\\GitHub\\Cert\\contract\\contracts\\CertificateRegistry.sol",
  "compiler": {
    "name": "solc",
    "version": "0.8.0+commit.c7dfd78e.Emscripten.clang"
  },
  "schemaVersion": "3.4.16",
  "updatedAt": "2025-05-21T11:57:35.745Z",
  "networkType": "ethereum",
  "devdoc": {
    "kind": "dev",
    "methods": {},
    "version": 1
  },
  "userdoc": {
    "kind": "user",
    "methods": {},
    "version": 1
  }
}