{
  "contractName": "CertificateRegistry",
  "abi": [
    {
      "inputs": [],
      "stateMutability": "nonpayable",
      "type": "constructor"
    },
    {
      "anonymous": false,
      "inputs": [
        {
          "indexed": false,
          "internalType": "string",
          "name": "certHash",
          "type": "string"
        },
        {
          "indexed": false,
          "internalType": "string",
          "name": "recipientName",
          "type": "string"
        },
        {
          "indexed": false,
          "internalType": "string",
          "name": "eventName",
          "type": "string"
        },
        {
          "indexed": false,
          "internalType": "string",
          "name": "issuedDate",
          "type": "string"
        }
      ],
      "name": "CertificateIssued",
      "type": "event"
    },
    {
      "anonymous": false,
      "inputs": [
        {
          "indexed": false,
          "internalType": "string",
          "name": "certHash",
          "type": "string"
        }
      ],
      "name": "CertificateRevoked",
      "type": "event"
    },
    {
      "inputs": [],
      "name": "admin",
      "outputs": [
        {
          "internalType": "address",
          "name": "",
          "type": "address"
        }
      ],
      "stateMutability": "view",
      "type": "function",
      "constant": true
    },
    {
      "inputs": [
        {
          "internalType": "address",
          "name": "",
          "type": "address"
        }
      ],
      "name": "admins",
      "outputs": [
        {
          "internalType": "string",
          "name": "name",
          "type": "string"
        },
        {
          "internalType": "address",
          "name": "adminAddress",
          "type": "address"
        }
      ],
      "stateMutability": "view",
      "type": "function",
      "constant": true
    },
    {
      "inputs": [
        {
          "internalType": "address",
          "name": "",
          "type": "address"
        }
      ],
      "name": "students",
      "outputs": [
        {
          "internalType": "string",
          "name": "name",
          "type": "string"
        },
        {
          "internalType": "address",
          "name": "studentAddress",
          "type": "address"
        }
      ],
      "stateMutability": "view",
      "type": "function",
      "constant": true
    },
    {
      "inputs": [],
      "name": "getMyAddress",
      "outputs": [
        {
          "internalType": "address",
          "name": "",
          "type": "address"
        }
      ],
      "stateMutability": "view",
      "type": "function",
      "constant": true
    },
    {
      "inputs": [
        {
          "internalType": "string",
          "name": "_studentName",
          "type": "string"
        },
        {
          "internalType": "address",
          "name": "_studentAddress",
          "type": "address"
        }
      ],
      "name": "addStudent",
      "outputs": [],
      "stateMutability": "nonpayable",
      "type": "function"
    },
    {
      "inputs": [
        {
          "internalType": "string",
          "name": "_adminName",
          "type": "string"
        },
        {
          "internalType": "address",
          "name": "_adminAddress",
          "type": "address"
        }
      ],
      "name": "addAdmin",
      "outputs": [],
      "stateMutability": "nonpayable",
      "type": "function"
    },
    {
      "inputs": [],
      "name": "getStudentNames",
      "outputs": [
        {
          "internalType": "string[]",
          "name": "",
          "type": "string[]"
        }
      ],
      "stateMutability": "view",
      "type": "function",
      "constant": true
    },
    {
      "inputs": [
        {
          "internalType": "string",
          "name": "_studentName",
          "type": "string"
        }
      ],
      "name": "getStudentAddressByName",
      "outputs": [
        {
          "internalType": "address",
          "name": "",
          "type": "address"
        }
      ],
      "stateMutability": "view",
      "type": "function",
      "constant": true
    },
    {
      "inputs": [
        {
          "internalType": "address",
          "name": "_studentAddress",
          "type": "address"
        }
      ],
      "name": "isStudent",
      "outputs": [
        {
          "internalType": "bool",
          "name": "",
          "type": "bool"
        }
      ],
      "stateMutability": "view",
      "type": "function",
      "constant": true
    },
    {
      "inputs": [],
      "name": "getAdminNames",
      "outputs": [
        {
          "internalType": "string[]",
          "name": "",
          "type": "string[]"
        }
      ],
      "stateMutability": "view",
      "type": "function",
      "constant": true
    },
    {
      "inputs": [
        {
          "internalType": "string",
          "name": "_adminName",
          "type": "string"
        }
      ],
      "name": "getAdminAddressByName",
      "outputs": [
        {
          "internalType": "address",
          "name": "",
          "type": "address"
        }
      ],
      "stateMutability": "view",
      "type": "function",
      "constant": true
    },
    {
      "inputs": [
        {
          "internalType": "address",
          "name": "_adminAddress",
          "type": "address"
        }
      ],
      "name": "isAdmin",
      "outputs": [
        {
          "internalType": "bool",
          "name": "",
          "type": "bool"
        }
      ],
      "stateMutability": "view",
      "type": "function",
      "constant": true
    },
    {
      "inputs": [
        {
          "internalType": "string",
          "name": "_studentName",
          "type": "string"
        }
      ],
      "name": "updateStudent",
      "outputs": [],
      "stateMutability": "nonpayable",
      "type": "function"
    },
    {
      "inputs": [
        {
          "internalType": "string",
          "name": "_adminName",
          "type": "string"
        }
      ],
      "name": "updateAdmin",
      "outputs": [],
      "stateMutability": "nonpayable",
      "type": "function"
    },
    {
      "inputs": [
        {
          "internalType": "string",
          "name": "_recipientName",
          "type": "string"
        },
        {
          "internalType": "string",
          "name": "_eventName",
          "type": "string"
        },
        {
          "internalType": "string",
          "name": "_issuedDate",
          "type": "string"
        },
        {
          "internalType": "string",
          "name": "_certHash",
          "type": "string"
        },
        {
          "internalType": "address",
          "name": "_studentAddress",
          "type": "address"
        }
      ],
      "name": "issueCertificate",
      "outputs": [],
      "stateMutability": "nonpayable",
      "type": "function"
    },
    {
      "inputs": [
        {
          "internalType": "string",
          "name": "_certHash",
          "type": "string"
        }
      ],
      "name": "verifyCertificate",
      "outputs": [
        {
          "internalType": "string",
          "name": "",
          "type": "string"
        },
        {
          "internalType": "string",
          "name": "",
          "type": "string"
        },
        {
          "internalType": "string",
          "name": "",
          "type": "string"
        },
        {
          "internalType": "bool",
          "name": "",
          "type": "bool"
        }
      ],
      "stateMutability": "view",
      "type": "function",
      "constant": true
    },
    {
      "inputs": [
        {
          "internalType": "string",
          "name": "_certHash",
          "type": "string"
        }
      ],
      "name": "revokeCertificate",
      "outputs": [],
      "stateMutability": "nonpayable",
      "type": "function"
    },
    {
      "inputs": [
        {
          "internalType": "string",
          "name": "_certHash",
          "type": "string"
        }
      ],
      "name": "getCertificate",
      "outputs": [
        {
          "components": [
            {
              "internalType": "string",
              "name": "recipientName",
              "type": "string"
            },
            {
              "internalType": "string",
              "name": "eventName",
              "type": "string"
            },
            {
              "internalType": "string",
              "name": "issuedDate",
              "type": "string"
            },
            {
              "internalType": "string",
              "name": "certHash",
              "type": "string"
            },
            {
              "internalType": "bool",
              "name": "isValid",
              "type": "bool"
            }
          ],
          "internalType": "struct CertificateRegistry.Certificate",
          "name": "",
          "type": "tuple"
        }
      ],
      "stateMutability": "view",
      "type": "function",
      "constant": true
    },
    {
      "inputs": [
        {
          "internalType": "address",
          "name": "_owner",
          "type": "address"
        }
      ],
      "name": "getCertificatesByOwner",
      "outputs": [
        {
          "components": [
            {
              "internalType": "string",
              "name": "recipientName",
              "type": "string"
            },
            {
              "internalType": "string",
              "name": "eventName",
              "type": "string"
            },
            {
              "internalType": "string",
              "name": "issuedDate",
              "type": "string"
            },
            {
              "internalType": "string",
              "name": "certHash",
              "type": "string"
            },
            {
              "internalType": "bool",
              "name": "isValid",
              "type": "bool"
            }
          ],
          "internalType": "struct CertificateRegistry.Certificate[]",
          "name": "",
          "type": "tuple[]"
        }
      ],
      "stateMutability": "view",
      "type": "function",
      "constant": true
    }
  ],
  "bytecode": "0x60806040523480156200001157600080fd5b5033600660006101000a81548173ffffffffffffffffffffffffffffffffffffffff021916908373ffffffffffffffffffffffffffffffffffffffff16021790555060405180604001604052806040518060400160405280600b81526020017f53757065722041646d696e00000000000000000000000000000000000000000081525081526020013373ffffffffffffffffffffffffffffffffffffffff16815250600160003373ffffffffffffffffffffffffffffffffffffffff1673ffffffffffffffffffffffffffffffffffffffff168152602001908152602001600020600082015181600001908051906020019062000110929190620001c4565b5060208201518160010160006101000a81548173ffffffffffffffffffffffffffffffffffffffff021916908373ffffffffffffffffffffffffffffffffffffffff1602179055509050506003339080600181540180825580915050600190039060005260206000200160009091909190916101000a81548173ffffffffffffffffffffffffffffffffffffffff021916908373ffffffffffffffffffffffffffffffffffffffff160217905550620002d9565b828054620001d29062000274565b90600052602060002090601f016020900481019282620001f6576000855562000242565b82601f106200021157805160ff191683800117855562000242565b8280016001018555821562000242579182015b828111156200024157825182559160200191906001019062000224565b5b50905062000251919062000255565b5090565b5b808211156200027057600081600090555060010162000256565b5090565b600060028204905060018216806200028d57607f821691505b60208210811415620002a457620002a3620002aa565b5b50919050565b7f4e487b7100000000000000000000000000000000000000000000000000000000600052602260045260246000fd5b6136ce80620002e96000396000f3fe608060405234801561001057600080fd5b50600436106101215760003560e01c806372c27fc5116100ad578063bed8820811610071578063bed8820814610355578063bfe8aea214610371578063ed0f2e751461038f578063f851a440146103bf578063fdb668eb146103dd57610121565b806372c27fc51461028757806382f7d392146102a35780638b23d875146102d35780639a16629914610306578063a6c807a91461032457610121565b80631db73840116100f45780631db73840146101aa578063229efd24146101da57806324d7806c146101f657806338268bd814610226578063429b62e51461025657610121565b806301a23739146101265780630831b05f1461015657806310468c2f14610172578063142e15421461018e575b600080fd5b610140600480360381019061013b919061296c565b6103fb565b60405161014d9190613115565b60405180910390f35b610170600480360381019061016b91906129ad565b610594565b005b61018c600480360381019061018791906129ad565b6108c7565b005b6101a860048036038101906101a3919061296c565b610bf8565b005b6101c460048036038101906101bf9190612943565b610e04565b6040516101d19190613152565b60405180910390f35b6101f460048036038101906101ef9190612a01565b6112d2565b005b610210600480360381019061020b9190612943565b61160d565b60405161021d9190613174565b60405180910390f35b610240600480360381019061023b919061296c565b6116a8565b60405161024d9190613115565b60405180910390f35b610270600480360381019061026b9190612943565b611840565b60405161027e9291906131b1565b60405180910390f35b6102a1600480360381019061029c919061296c565b61190c565b005b6102bd60048036038101906102b89190612943565b611a36565b6040516102ca9190613174565b60405180910390f35b6102ed60048036038101906102e8919061296c565b611ad0565b6040516102fd94939291906131e1565b60405180910390f35b61030e611dce565b60405161031b9190613115565b60405180910390f35b61033e60048036038101906103399190612943565b611dd6565b60405161034c9291906131b1565b60405180910390f35b61036f600480360381019061036a919061296c565b611ea2565b005b6103796120f8565b6040516103869190613130565b60405180910390f35b6103a960048036038101906103a4919061296c565b612315565b6040516103b6919061339c565b60405180910390f35b6103c76125b0565b6040516103d49190613115565b60405180910390f35b6103e56125d6565b6040516103f29190613130565b60405180910390f35b600080600090505b600380549050811015610589578260405160200161042191906130e7565b604051602081830303815290604052805190602001206001600060038481548110610475577f4e487b7100000000000000000000000000000000000000000000000000000000600052603260045260246000fd5b9060005260206000200160009054906101000a900473ffffffffffffffffffffffffffffffffffffffff1673ffffffffffffffffffffffffffffffffffffffff1673ffffffffffffffffffffffffffffffffffffffff1681526020019081526020016000206000016040516020016104ed91906130fe565b6040516020818303038152906040528051906020012014156105765760038181548110610543577f4e487b7100000000000000000000000000000000000000000000000000000000600052603260045260246000fd5b9060005260206000200160009054906101000a900473ffffffffffffffffffffffffffffffffffffffff1691505061058f565b80806105819061359a565b915050610403565b50600090505b919050565b600660009054906101000a900473ffffffffffffffffffffffffffffffffffffffff1673ffffffffffffffffffffffffffffffffffffffff163373ffffffffffffffffffffffffffffffffffffffff16148061067f5750600073ffffffffffffffffffffffffffffffffffffffff16600160003373ffffffffffffffffffffffffffffffffffffffff1673ffffffffffffffffffffffffffffffffffffffff16815260200190815260200160002060010160009054906101000a900473ffffffffffffffffffffffffffffffffffffffff1673ffffffffffffffffffffffffffffffffffffffff1614155b6106be576040517f08c379a00000000000000000000000000000000000000000000000000000000081526004016106b59061331c565b60405180910390fd5b600073ffffffffffffffffffffffffffffffffffffffff16600160008373ffffffffffffffffffffffffffffffffffffffff1673ffffffffffffffffffffffffffffffffffffffff16815260200190815260200160002060010160009054906101000a900473ffffffffffffffffffffffffffffffffffffffff1673ffffffffffffffffffffffffffffffffffffffff161461078f576040517f08c379a00000000000000000000000000000000000000000000000000000000081526004016107869061335c565b60405180910390fd5b60405180604001604052808381526020018273ffffffffffffffffffffffffffffffffffffffff16815250600160008373ffffffffffffffffffffffffffffffffffffffff1673ffffffffffffffffffffffffffffffffffffffff16815260200190815260200160002060008201518160000190805190602001906108159291906127f2565b5060208201518160010160006101000a81548173ffffffffffffffffffffffffffffffffffffffff021916908373ffffffffffffffffffffffffffffffffffffffff1602179055509050506003819080600181540180825580915050600190039060005260206000200160009091909190916101000a81548173ffffffffffffffffffffffffffffffffffffffff021916908373ffffffffffffffffffffffffffffffffffffffff1602179055505050565b600660009054906101000a900473ffffffffffffffffffffffffffffffffffffffff1673ffffffffffffffffffffffffffffffffffffffff163373ffffffffffffffffffffffffffffffffffffffff1614806109b25750600073ffffffffffffffffffffffffffffffffffffffff16600160003373ffffffffffffffffffffffffffffffffffffffff1673ffffffffffffffffffffffffffffffffffffffff16815260200190815260200160002060010160009054906101000a900473ffffffffffffffffffffffffffffffffffffffff1673ffffffffffffffffffffffffffffffffffffffff1614155b6109f1576040517f08c379a00000000000000000000000000000000000000000000000000000000081526004016109e89061331c565b60405180910390fd5b600073ffffffffffffffffffffffffffffffffffffffff166000808373ffffffffffffffffffffffffffffffffffffffff1673ffffffffffffffffffffffffffffffffffffffff16815260200190815260200160002060010160009054906101000a900473ffffffffffffffffffffffffffffffffffffffff1673ffffffffffffffffffffffffffffffffffffffff1614610ac1576040517f08c379a0000000000000000000000000000000000000000000000000000000008152600401610ab8906132fc565b60405180910390fd5b60405180604001604052808381526020018273ffffffffffffffffffffffffffffffffffffffff168152506000808373ffffffffffffffffffffffffffffffffffffffff1673ffffffffffffffffffffffffffffffffffffffff1681526020019081526020016000206000820151816000019080519060200190610b469291906127f2565b5060208201518160010160006101000a81548173ffffffffffffffffffffffffffffffffffffffff021916908373ffffffffffffffffffffffffffffffffffffffff1602179055509050506002819080600181540180825580915050600190039060005260206000200160009091909190916101000a81548173ffffffffffffffffffffffffffffffffffffffff021916908373ffffffffffffffffffffffffffffffffffffffff1602179055505050565b600660009054906101000a900473ffffffffffffffffffffffffffffffffffffffff1673ffffffffffffffffffffffffffffffffffffffff163373ffffffffffffffffffffffffffffffffffffffff161480610ce35750600073ffffffffffffffffffffffffffffffffffffffff16600160003373ffffffffffffffffffffffffffffffffffffffff1673ffffffffffffffffffffffffffffffffffffffff16815260200190815260200160002060010160009054906101000a900473ffffffffffffffffffffffffffffffffffffffff1673ffffffffffffffffffffffffffffffffffffffff1614155b610d22576040517f08c379a0000000000000000000000000000000000000000000000000000000008152600401610d199061331c565b60405180910390fd5b600481604051610d3291906130e7565b908152602001604051809103902060040160009054906101000a900460ff16610d90576040517f08c379a0000000000000000000000000000000000000000000000000000000008152600401610d879061337c565b60405180910390fd5b6000600482604051610da291906130e7565b908152602001604051809103902060040160006101000a81548160ff0219169083151502179055507f266095b5af7e2323760fef151f1d78896740cd2cc1b73a6357ff9e4c3fdae74081604051610df9919061318f565b60405180910390a150565b60606000600560008473ffffffffffffffffffffffffffffffffffffffff1673ffffffffffffffffffffffffffffffffffffffff168152602001908152602001600020805480602002602001604051908101604052809291908181526020016000905b82821015610f13578382906000526020600020018054610e8690613568565b80601f0160208091040260200160405190810160405280929190818152602001828054610eb290613568565b8015610eff5780601f10610ed457610100808354040283529160200191610eff565b820191906000526020600020905b815481529060010190602001808311610ee257829003601f168201915b505050505081526020019060010190610e67565b5050505090506000815167ffffffffffffffff811115610f5c577f4e487b7100000000000000000000000000000000000000000000000000000000600052604160045260246000fd5b604051908082528060200260200182016040528015610f9557816020015b610f82612878565b815260200190600190039081610f7a5790505b50905060005b82518110156112c7576004838281518110610fdf577f4e487b7100000000000000000000000000000000000000000000000000000000600052603260045260246000fd5b6020026020010151604051610ff491906130e7565b90815260200160405180910390206040518060a001604052908160008201805461101d90613568565b80601f016020809104026020016040519081016040528092919081815260200182805461104990613568565b80156110965780601f1061106b57610100808354040283529160200191611096565b820191906000526020600020905b81548152906001019060200180831161107957829003601f168201915b505050505081526020016001820180546110af90613568565b80601f01602080910402602001604051908101604052809291908181526020018280546110db90613568565b80156111285780601f106110fd57610100808354040283529160200191611128565b820191906000526020600020905b81548152906001019060200180831161110b57829003601f168201915b5050505050815260200160028201805461114190613568565b80601f016020809104026020016040519081016040528092919081815260200182805461116d90613568565b80156111ba5780601f1061118f576101008083540402835291602001916111ba565b820191906000526020600020905b81548152906001019060200180831161119d57829003601f168201915b505050505081526020016003820180546111d390613568565b80601f01602080910402602001604051908101604052809291908181526020018280546111ff90613568565b801561124c5780601f106112215761010080835404028352916020019161124c565b820191906000526020600020905b81548152906001019060200180831161122f57829003601f168201915b505050505081526020016004820160009054906101000a900460ff1615151515815250508282815181106112a9577f4e487b7100000000000000000000000000000000000000000000000000000000600052603260045260246000fd5b602002602001018190525080806112bf9061359a565b915050610f9b565b508092505050919050565b600660009054906101000a900473ffffffffffffffffffffffffffffffffffffffff1673ffffffffffffffffffffffffffffffffffffffff163373ffffffffffffffffffffffffffffffffffffffff1614806113bd5750600073ffffffffffffffffffffffffffffffffffffffff16600160003373ffffffffffffffffffffffffffffffffffffffff1673ffffffffffffffffffffffffffffffffffffffff16815260200190815260200160002060010160009054906101000a900473ffffffffffffffffffffffffffffffffffffffff1673ffffffffffffffffffffffffffffffffffffffff1614155b6113fc576040517f08c379a00000000000000000000000000000000000000000000000000000000081526004016113f39061331c565b60405180910390fd5b60048260405161140c91906130e7565b908152602001604051809103902060040160009054906101000a900460ff161561146b576040517f08c379a00000000000000000000000000000000000000000000000000000000081526004016114629061329c565b60405180910390fd5b60006040518060a00160405280878152602001868152602001858152602001848152602001600115158152509050806004846040516114aa91906130e7565b908152602001604051809103902060008201518160000190805190602001906114d49291906127f2565b5060208201518160010190805190602001906114f19291906127f2565b50604082015181600201908051906020019061150e9291906127f2565b50606082015181600301908051906020019061152b9291906127f2565b5060808201518160040160006101000a81548160ff021916908315150217905550905050600560008373ffffffffffffffffffffffffffffffffffffffff1673ffffffffffffffffffffffffffffffffffffffff168152602001908152602001600020839080600181540180825580915050600190039060005260206000200160009091909190915090805190602001906115c79291906127f2565b507f5b93630a6e8094d935e3329a9bc9d517943d525511136733ade8d280cce21cb6838787876040516115fd949392919061323b565b60405180910390a1505050505050565b60008073ffffffffffffffffffffffffffffffffffffffff16600160008473ffffffffffffffffffffffffffffffffffffffff1673ffffffffffffffffffffffffffffffffffffffff16815260200190815260200160002060010160009054906101000a900473ffffffffffffffffffffffffffffffffffffffff1673ffffffffffffffffffffffffffffffffffffffff1614159050919050565b600080600090505b60028054905081101561183557826040516020016116ce91906130e7565b6040516020818303038152906040528051906020012060008060028481548110611721577f4e487b7100000000000000000000000000000000000000000000000000000000600052603260045260246000fd5b9060005260206000200160009054906101000a900473ffffffffffffffffffffffffffffffffffffffff1673ffffffffffffffffffffffffffffffffffffffff1673ffffffffffffffffffffffffffffffffffffffff16815260200190815260200160002060000160405160200161179991906130fe565b60405160208183030381529060405280519060200120141561182257600281815481106117ef577f4e487b7100000000000000000000000000000000000000000000000000000000600052603260045260246000fd5b9060005260206000200160009054906101000a900473ffffffffffffffffffffffffffffffffffffffff1691505061183b565b808061182d9061359a565b9150506116b0565b50600090505b919050565b600160205280600052604060002060009150905080600001805461186390613568565b80601f016020809104026020016040519081016040528092919081815260200182805461188f90613568565b80156118dc5780601f106118b1576101008083540402835291602001916118dc565b820191906000526020600020905b8154815290600101906020018083116118bf57829003601f168201915b5050505050908060010160009054906101000a900473ffffffffffffffffffffffffffffffffffffffff16905082565b600073ffffffffffffffffffffffffffffffffffffffff166000803373ffffffffffffffffffffffffffffffffffffffff1673ffffffffffffffffffffffffffffffffffffffff16815260200190815260200160002060010160009054906101000a900473ffffffffffffffffffffffffffffffffffffffff1673ffffffffffffffffffffffffffffffffffffffff1614156119dd576040517f08c379a00000000000000000000000000000000000000000000000000000000081526004016119d4906132dc565b60405180910390fd5b806000803373ffffffffffffffffffffffffffffffffffffffff1673ffffffffffffffffffffffffffffffffffffffff1681526020019081526020016000206000019080519060200190611a329291906127f2565b5050565b60008073ffffffffffffffffffffffffffffffffffffffff166000808473ffffffffffffffffffffffffffffffffffffffff1673ffffffffffffffffffffffffffffffffffffffff16815260200190815260200160002060010160009054906101000a900473ffffffffffffffffffffffffffffffffffffffff1673ffffffffffffffffffffffffffffffffffffffff1614159050919050565b6060806060600080600486604051611ae891906130e7565b90815260200160405180910390206040518060a0016040529081600082018054611b1190613568565b80601f0160208091040260200160405190810160405280929190818152602001828054611b3d90613568565b8015611b8a5780601f10611b5f57610100808354040283529160200191611b8a565b820191906000526020600020905b815481529060010190602001808311611b6d57829003601f168201915b50505050508152602001600182018054611ba390613568565b80601f0160208091040260200160405190810160405280929190818152602001828054611bcf90613568565b8015611c1c5780601f10611bf157610100808354040283529160200191611c1c565b820191906000526020600020905b815481529060010190602001808311611bff57829003601f168201915b50505050508152602001600282018054611c3590613568565b80601f0160208091040260200160405190810160405280929190818152602001828054611c6190613568565b8015611cae5780601f10611c8357610100808354040283529160200191611cae565b820191906000526020600020905b815481529060010190602001808311611c9157829003601f168201915b50505050508152602001600382018054611cc790613568565b80601f0160208091040260200160405190810160405280929190818152602001828054611cf390613568565b8015611d405780601f10611d1557610100808354040283529160200191611d40565b820191906000526020600020905b815481529060010190602001808311611d2357829003601f168201915b505050505081526020016004820160009054906101000a900460ff16151515158152505090508060800151611daa576040517f08c379a0000000000000000000000000000000000000000000000000000000008152600401611da19061333c565b60405180910390fd5b80600001518160200151826040015183608001519450945094509450509193509193565b600033905090565b6000602052806000526040600020600091509050806000018054611df990613568565b80601f0160208091040260200160405190810160405280929190818152602001828054611e2590613568565b8015611e725780601f10611e4757610100808354040283529160200191611e72565b820191906000526020600020905b815481529060010190602001808311611e5557829003601f168201915b5050505050908060010160009054906101000a900473ffffffffffffffffffffffffffffffffffffffff16905082565b600660009054906101000a900473ffffffffffffffffffffffffffffffffffffffff1673ffffffffffffffffffffffffffffffffffffffff163373ffffffffffffffffffffffffffffffffffffffff161480611f8d5750600073ffffffffffffffffffffffffffffffffffffffff16600160003373ffffffffffffffffffffffffffffffffffffffff1673ffffffffffffffffffffffffffffffffffffffff16815260200190815260200160002060010160009054906101000a900473ffffffffffffffffffffffffffffffffffffffff1673ffffffffffffffffffffffffffffffffffffffff1614155b611fcc576040517f08c379a0000000000000000000000000000000000000000000000000000000008152600401611fc39061331c565b60405180910390fd5b600073ffffffffffffffffffffffffffffffffffffffff16600160003373ffffffffffffffffffffffffffffffffffffffff1673ffffffffffffffffffffffffffffffffffffffff16815260200190815260200160002060010160009054906101000a900473ffffffffffffffffffffffffffffffffffffffff1673ffffffffffffffffffffffffffffffffffffffff16141561209e576040517f08c379a0000000000000000000000000000000000000000000000000000000008152600401612095906132bc565b60405180910390fd5b80600160003373ffffffffffffffffffffffffffffffffffffffff1673ffffffffffffffffffffffffffffffffffffffff16815260200190815260200160002060000190805190602001906120f49291906127f2565b5050565b6060600060038054905067ffffffffffffffff811115612141577f4e487b7100000000000000000000000000000000000000000000000000000000600052604160045260246000fd5b60405190808252806020026020018201604052801561217457816020015b606081526020019060019003908161215f5790505b50905060005b60038054905081101561230d5760016000600383815481106121c5577f4e487b7100000000000000000000000000000000000000000000000000000000600052603260045260246000fd5b9060005260206000200160009054906101000a900473ffffffffffffffffffffffffffffffffffffffff1673ffffffffffffffffffffffffffffffffffffffff1673ffffffffffffffffffffffffffffffffffffffff168152602001908152602001600020600001805461223890613568565b80601f016020809104026020016040519081016040528092919081815260200182805461226490613568565b80156122b15780601f10612286576101008083540402835291602001916122b1565b820191906000526020600020905b81548152906001019060200180831161229457829003601f168201915b50505050508282815181106122ef577f4e487b7100000000000000000000000000000000000000000000000000000000600052603260045260246000fd5b602002602001018190525080806123059061359a565b91505061217a565b508091505090565b61231d612878565b60048260405161232d91906130e7565b90815260200160405180910390206040518060a001604052908160008201805461235690613568565b80601f016020809104026020016040519081016040528092919081815260200182805461238290613568565b80156123cf5780601f106123a4576101008083540402835291602001916123cf565b820191906000526020600020905b8154815290600101906020018083116123b257829003601f168201915b505050505081526020016001820180546123e890613568565b80601f016020809104026020016040519081016040528092919081815260200182805461241490613568565b80156124615780601f1061243657610100808354040283529160200191612461565b820191906000526020600020905b81548152906001019060200180831161244457829003601f168201915b5050505050815260200160028201805461247a90613568565b80601f01602080910402602001604051908101604052809291908181526020018280546124a690613568565b80156124f35780601f106124c8576101008083540402835291602001916124f3565b820191906000526020600020905b8154815290600101906020018083116124d657829003601f168201915b5050505050815260200160038201805461250c90613568565b80601f016020809104026020016040519081016040528092919081815260200182805461253890613568565b80156125855780601f1061255a57610100808354040283529160200191612585565b820191906000526020600020905b81548152906001019060200180831161256857829003601f168201915b505050505081526020016004820160009054906101000a900460ff1615151515815250509050919050565b600660009054906101000a900473ffffffffffffffffffffffffffffffffffffffff1681565b6060600060028054905067ffffffffffffffff81111561261f577f4e487b7100000000000000000000000000000000000000000000000000000000600052604160045260246000fd5b60405190808252806020026020018201604052801561265257816020015b606081526020019060019003908161263d5790505b50905060005b6002805490508110156127ea57600080600283815481106126a2577f4e487b7100000000000000000000000000000000000000000000000000000000600052603260045260246000fd5b9060005260206000200160009054906101000a900473ffffffffffffffffffffffffffffffffffffffff1673ffffffffffffffffffffffffffffffffffffffff1673ffffffffffffffffffffffffffffffffffffffff168152602001908152602001600020600001805461271590613568565b80601f016020809104026020016040519081016040528092919081815260200182805461274190613568565b801561278e5780601f106127635761010080835404028352916020019161278e565b820191906000526020600020905b81548152906001019060200180831161277157829003601f168201915b50505050508282815181106127cc577f4e487b7100000000000000000000000000000000000000000000000000000000600052603260045260246000fd5b602002602001018190525080806127e29061359a565b915050612658565b508091505090565b8280546127fe90613568565b90600052602060002090601f0160209004810192826128205760008555612867565b82601f1061283957805160ff1916838001178555612867565b82800160010185558215612867579182015b8281111561286657825182559160200191906001019061284b565b5b50905061287491906128a9565b5090565b6040518060a00160405280606081526020016060815260200160608152602001606081526020016000151581525090565b5b808211156128c25760008160009055506001016128aa565b5090565b60006128d96128d4846133ef565b6133be565b9050828152602081018484840111156128f157600080fd5b6128fc848285613526565b509392505050565b60008135905061291381613681565b92915050565b600082601f83011261292a57600080fd5b813561293a8482602086016128c6565b91505092915050565b60006020828403121561295557600080fd5b600061296384828501612904565b91505092915050565b60006020828403121561297e57600080fd5b600082013567ffffffffffffffff81111561299857600080fd5b6129a484828501612919565b91505092915050565b600080604083850312156129c057600080fd5b600083013567ffffffffffffffff8111156129da57600080fd5b6129e685828601612919565b92505060206129f785828601612904565b9150509250929050565b600080600080600060a08688031215612a1957600080fd5b600086013567ffffffffffffffff811115612a3357600080fd5b612a3f88828901612919565b955050602086013567ffffffffffffffff811115612a5c57600080fd5b612a6888828901612919565b945050604086013567ffffffffffffffff811115612a8557600080fd5b612a9188828901612919565b935050606086013567ffffffffffffffff811115612aae57600080fd5b612aba88828901612919565b9250506080612acb88828901612904565b9150509295509295909350565b6000612ae48383612c17565b905092915050565b6000612af88383612fd1565b905092915050565b612b09816134de565b82525050565b6000612b1a82613454565b612b24818561348f565b935083602082028501612b368561341f565b8060005b85811015612b725784840389528151612b538582612ad8565b9450612b5e83613475565b925060208a01995050600181019050612b3a565b50829750879550505050505092915050565b6000612b8f8261345f565b612b9981856134a0565b935083602082028501612bab8561342f565b8060005b85811015612be75784840389528151612bc88582612aec565b9450612bd383613482565b925060208a01995050600181019050612baf565b50829750879550505050505092915050565b612c02816134f0565b82525050565b612c11816134f0565b82525050565b6000612c228261346a565b612c2c81856134b1565b9350612c3c818560208601613535565b612c4581613670565b840191505092915050565b6000612c5b8261346a565b612c6581856134c2565b9350612c75818560208601613535565b612c7e81613670565b840191505092915050565b6000612c948261346a565b612c9e81856134d3565b9350612cae818560208601613535565b80840191505092915050565b60008154612cc781613568565b612cd181866134d3565b94506001821660008114612cec5760018114612cfd57612d30565b60ff19831686528186019350612d30565b612d068561343f565b60005b83811015612d2857815481890152600182019150602081019050612d09565b838801955050505b50505092915050565b6000612d466029836134c2565b91507f436572746966696361746520776974682074686973206861736820616c72656160008301527f64792065786973747300000000000000000000000000000000000000000000006020830152604082019050919050565b6000612dac6014836134c2565b91507f41646d696e20646f6573206e6f742065786973740000000000000000000000006000830152602082019050919050565b6000612dec6016836134c2565b91507f53747564656e7420646f6573206e6f74206578697374000000000000000000006000830152602082019050919050565b6000612e2c6016836134c2565b91507f53747564656e7420616c726561647920657869737473000000000000000000006000830152602082019050919050565b6000612e6c6022836134c2565b91507f4f6e6c792061646d696e2063616e20706572666f726d2074686973206163746960008301527f6f6e0000000000000000000000000000000000000000000000000000000000006020830152604082019050919050565b6000612ed26029836134c2565b91507f4365727469666963617465206973206e6f742076616c6964206f7220646f657360008301527f6e277420657869737400000000000000000000000000000000000000000000006020830152604082019050919050565b6000612f386014836134c2565b91507f41646d696e20616c7265616479206578697374730000000000000000000000006000830152602082019050919050565b6000612f78602c836134c2565b91507f436572746966696361746520616c7265616479207265766f6b6564206f72206460008301527f6f65736e277420657869737400000000000000000000000000000000000000006020830152604082019050919050565b600060a0830160008301518482036000860152612fee8282612c17565b915050602083015184820360208601526130088282612c17565b915050604083015184820360408601526130228282612c17565b9150506060830151848203606086015261303c8282612c17565b91505060808301516130516080860182612bf9565b508091505092915050565b600060a08301600083015184820360008601526130798282612c17565b915050602083015184820360208601526130938282612c17565b915050604083015184820360408601526130ad8282612c17565b915050606083015184820360608601526130c78282612c17565b91505060808301516130dc6080860182612bf9565b508091505092915050565b60006130f38284612c89565b915081905092915050565b600061310a8284612cba565b915081905092915050565b600060208201905061312a6000830184612b00565b92915050565b6000602082019050818103600083015261314a8184612b0f565b905092915050565b6000602082019050818103600083015261316c8184612b84565b905092915050565b60006020820190506131896000830184612c08565b92915050565b600060208201905081810360008301526131a98184612c50565b905092915050565b600060408201905081810360008301526131cb8185612c50565b90506131da6020830184612b00565b9392505050565b600060808201905081810360008301526131fb8187612c50565b9050818103602083015261320f8186612c50565b905081810360408301526132238185612c50565b90506132326060830184612c08565b95945050505050565b600060808201905081810360008301526132558187612c50565b905081810360208301526132698186612c50565b9050818103604083015261327d8185612c50565b905081810360608301526132918184612c50565b905095945050505050565b600060208201905081810360008301526132b581612d39565b9050919050565b600060208201905081810360008301526132d581612d9f565b9050919050565b600060208201905081810360008301526132f581612ddf565b9050919050565b6000602082019050818103600083015261331581612e1f565b9050919050565b6000602082019050818103600083015261333581612e5f565b9050919050565b6000602082019050818103600083015261335581612ec5565b9050919050565b6000602082019050818103600083015261337581612f2b565b9050919050565b6000602082019050818103600083015261339581612f6b565b9050919050565b600060208201905081810360008301526133b6818461305c565b905092915050565b6000604051905081810181811067ffffffffffffffff821117156133e5576133e4613641565b5b8060405250919050565b600067ffffffffffffffff82111561340a57613409613641565b5b601f19601f8301169050602081019050919050565b6000819050602082019050919050565b6000819050602082019050919050565b60008190508160005260206000209050919050565b600081519050919050565b600081519050919050565b600081519050919050565b6000602082019050919050565b6000602082019050919050565b600082825260208201905092915050565b600082825260208201905092915050565b600082825260208201905092915050565b600082825260208201905092915050565b600081905092915050565b60006134e9826134fc565b9050919050565b60008115159050919050565b600073ffffffffffffffffffffffffffffffffffffffff82169050919050565b6000819050919050565b82818337600083830152505050565b60005b83811015613553578082015181840152602081019050613538565b83811115613562576000848401525b50505050565b6000600282049050600182168061358057607f821691505b6020821081141561359457613593613612565b5b50919050565b60006135a58261351c565b91507fffffffffffffffffffffffffffffffffffffffffffffffffffffffffffffffff8214156135d8576135d76135e3565b5b600182019050919050565b7f4e487b7100000000000000000000000000000000000000000000000000000000600052601160045260246000fd5b7f4e487b7100000000000000000000000000000000000000000000000000000000600052602260045260246000fd5b7f4e487b7100000000000000000000000000000000000000000000000000000000600052604160045260246000fd5b6000601f19601f8301169050919050565b61368a816134de565b811461369557600080fd5b5056fea264697066735822122080c3ad74784c0fa3fddc6eb7a3fa80193c75012650943bc6c2b346e2e175e99c64736f6c63430008000033",
  "immutableReferences": {},
  "source": "// SPDX-License-Identifier: MIT\r\npragma solidity ^0.8.0;\r\n\r\ncontract CertificateRegistry {\r\n\r\n    struct Students {\r\n        string name;\r\n        address studentAddress;\r\n    }\r\n\r\n    struct Admin {\r\n        string name;\r\n        address adminAddress;\r\n    }\r\n\r\n    struct Certificate {\r\n        string recipientName;\r\n        string eventName;\r\n        string issuedDate;\r\n        string certHash;\r\n        bool isValid;\r\n    }\r\n\r\n    mapping(address => Students) public students;\r\n    mapping(address => Admin) public admins;\r\n\r\n    address[] private studentAddresses;\r\n    address[] private adminAddresses;\r\n\r\n    mapping(string => Certificate) private certificates;\r\n    mapping(address => string[]) private ownerToCertHashes;\r\n\r\n    address public admin;\r\n\r\n    event CertificateIssued(string certHash, string recipientName, string eventName, string issuedDate);\r\n    event CertificateRevoked(string certHash);\r\n\r\n    modifier onlyAdmin() {\r\n        require(msg.sender == admin || admins[msg.sender].adminAddress != address(0), \"Only admin can perform this action\");\r\n        _;\r\n    }\r\n\r\n    constructor() {\r\n        admin = msg.sender;\r\n        admins[msg.sender] = Admin(\"Super Admin\", msg.sender);\r\n        adminAddresses.push(msg.sender);\r\n    }\r\n\r\n    function getMyAddress() public view returns (address) {\r\n        return msg.sender;\r\n    }\r\n\r\n    function addStudent(string memory _studentName, address _studentAddress) public onlyAdmin {\r\n        require(students[_studentAddress].studentAddress == address(0), \"Student already exists\");\r\n        students[_studentAddress] = Students(_studentName, _studentAddress);\r\n        studentAddresses.push(_studentAddress);\r\n    }\r\n\r\n    function addAdmin(string memory _adminName, address _adminAddress) public onlyAdmin {\r\n        require(admins[_adminAddress].adminAddress == address(0), \"Admin already exists\");\r\n        admins[_adminAddress] = Admin(_adminName, _adminAddress);\r\n        adminAddresses.push(_adminAddress);\r\n    }\r\n\r\n    function getStudentNames() public view returns (string[] memory) {\r\n        string[] memory studentNames = new string[](studentAddresses.length);\r\n        for (uint256 i = 0; i < studentAddresses.length; i++) {\r\n            studentNames[i] = students[studentAddresses[i]].name;\r\n        }\r\n        return studentNames;\r\n    }\r\n\r\n    \r\n    function getStudentAddressByName(string memory _studentName) public view returns (address) {\r\n        for (uint256 i = 0; i < studentAddresses.length; i++) {\r\n            if (keccak256(abi.encodePacked(students[studentAddresses[i]].name)) == keccak256(abi.encodePacked(_studentName))) {\r\n                return studentAddresses[i];\r\n            }\r\n        }\r\n        return address(0);\r\n    }\r\n\r\n    function isStudent(address _studentAddress) public view returns (bool) {\r\n        return students[_studentAddress].studentAddress != address(0);\r\n    }\r\n\r\n\r\n\r\n    function getAdminNames() public view returns (string[] memory) {\r\n        string[] memory adminNames = new string[](adminAddresses.length);\r\n        for (uint256 i = 0; i < adminAddresses.length; i++) {\r\n            adminNames[i] = admins[adminAddresses[i]].name;\r\n        }\r\n        return adminNames;\r\n    }\r\n\r\n    \r\n    function getAdminAddressByName(string memory _adminName) public view returns (address) {\r\n        for (uint256 i = 0; i < adminAddresses.length; i++) {\r\n            if (keccak256(abi.encodePacked(admins[adminAddresses[i]].name)) == keccak256(abi.encodePacked(_adminName))) {\r\n                return adminAddresses[i];\r\n            }\r\n        }\r\n        return address(0);\r\n    }\r\n\r\n    function isAdmin(address _adminAddress) public view returns (bool) {\r\n        return admins[_adminAddress].adminAddress != address(0);\r\n    }\r\n\r\n    \r\n    function updateStudent(string memory _studentName) public {\r\n        require(students[msg.sender].studentAddress != address(0), \"Student does not exist\");\r\n        students[msg.sender].name = _studentName;\r\n    }\r\n\r\nfunction updateAdmin(string memory _adminName) public  onlyAdmin{\r\n    require(admins[msg.sender].adminAddress != address(0), \"Admin does not exist\");\r\n    admins[msg.sender].name = _adminName;\r\n}\r\n\r\n\r\n\r\n    function issueCertificate(\r\n        string memory _recipientName,\r\n        string memory _eventName,\r\n        string memory _issuedDate,\r\n        string memory _certHash,\r\n        address _studentAddress\r\n    ) public onlyAdmin {\r\n        require(!certificates[_certHash].isValid, \"Certificate with this hash already exists\");\r\n\r\n        Certificate memory newCert = Certificate({\r\n            recipientName: _recipientName,\r\n            eventName: _eventName,\r\n            issuedDate: _issuedDate,\r\n            certHash: _certHash,\r\n            isValid: true\r\n        });\r\n\r\n        certificates[_certHash] = newCert;\r\n        ownerToCertHashes[_studentAddress].push(_certHash);\r\n\r\n        emit CertificateIssued(_certHash, _recipientName, _eventName, _issuedDate);\r\n    }\r\n\r\n    function verifyCertificate(string memory _certHash)\r\n        public\r\n        view\r\n        returns (string memory, string memory, string memory, bool)\r\n    {\r\n        Certificate memory cert = certificates[_certHash];\r\n        require(cert.isValid, \"Certificate is not valid or doesn't exist\");\r\n        return (cert.recipientName, cert.eventName, cert.issuedDate, cert.isValid);\r\n    }\r\n\r\n    function revokeCertificate(string memory _certHash) public onlyAdmin {\r\n        require(certificates[_certHash].isValid, \"Certificate already revoked or doesn't exist\");\r\n        certificates[_certHash].isValid = false;\r\n\r\n        emit CertificateRevoked(_certHash);\r\n    }\r\n\r\n    function getCertificate(string memory _certHash) public view returns (Certificate memory) {\r\n        return certificates[_certHash];\r\n    }\r\n\r\n    function getCertificatesByOwner(address _owner) public view returns (Certificate[] memory) {\r\n        string[] memory hashes = ownerToCertHashes[_owner];\r\n        Certificate[] memory certList = new Certificate[](hashes.length);\r\n\r\n        for (uint i = 0; i < hashes.length; i++) {\r\n            certList[i] = certificates[hashes[i]];\r\n        }\r\n\r\n        return certList;\r\n    }\r\n}\r\n",
  "sourcePath": "C:\\Users\\PC\\Documents\\GitHub\\Cert\\contract\\contracts\\CertificateRegistry.sol",
  "compiler": {
    "name": "solc",
    "version": "0.8.0+commit.c7dfd78e.Emscripten.clang"
  },
  "schemaVersion": "3.4.16",
  "updatedAt": "2025-05-21T12:23:32.951Z",
  "networkType": "ethereum",
  "devdoc": {
    "kind": "dev",
    "methods": {},
    "version": 1
  },
  "userdoc": {
    "kind": "user",
    "methods": {},
    "version": 1
  }
}