{
  "contractName": "CertificateRegistry",
  "abi": [
    {
      "inputs": [],
      "stateMutability": "nonpayable",
      "type": "constructor"
    },
    {
      "anonymous": false,
      "inputs": [
        {
          "indexed": false,
          "internalType": "string",
          "name": "certHash",
          "type": "string"
        },
        {
          "indexed": false,
          "internalType": "string",
          "name": "recipientName",
          "type": "string"
        },
        {
          "indexed": false,
          "internalType": "string",
          "name": "eventName",
          "type": "string"
        },
        {
          "indexed": false,
          "internalType": "string",
          "name": "issuedDate",
          "type": "string"
        }
      ],
      "name": "CertificateIssued",
      "type": "event"
    },
    {
      "inputs": [],
      "name": "admin",
      "outputs": [
        {
          "internalType": "address",
          "name": "",
          "type": "address"
        }
      ],
      "stateMutability": "view",
      "type": "function",
      "constant": true
    },
    {
      "inputs": [
        {
          "internalType": "string",
          "name": "",
          "type": "string"
        }
      ],
      "name": "certificates",
      "outputs": [
        {
          "internalType": "string",
          "name": "recipientName",
          "type": "string"
        },
        {
          "internalType": "string",
          "name": "eventName",
          "type": "string"
        },
        {
          "internalType": "string",
          "name": "issuedDate",
          "type": "string"
        },
        {
          "internalType": "string",
          "name": "certHash",
          "type": "string"
        },
        {
          "internalType": "bool",
          "name": "isValid",
          "type": "bool"
        }
      ],
      "stateMutability": "view",
      "type": "function",
      "constant": true
    },
    {
      "inputs": [
        {
          "internalType": "string",
          "name": "_recipientName",
          "type": "string"
        },
        {
          "internalType": "string",
          "name": "_eventName",
          "type": "string"
        },
        {
          "internalType": "string",
          "name": "_issuedDate",
          "type": "string"
        },
        {
          "internalType": "string",
          "name": "_certHash",
          "type": "string"
        }
      ],
      "name": "issueCertificate",
      "outputs": [],
      "stateMutability": "nonpayable",
      "type": "function"
    },
    {
      "inputs": [
        {
          "internalType": "string",
          "name": "_certHash",
          "type": "string"
        }
      ],
      "name": "verifyCertificate",
      "outputs": [
        {
          "internalType": "string",
          "name": "",
          "type": "string"
        },
        {
          "internalType": "string",
          "name": "",
          "type": "string"
        },
        {
          "internalType": "string",
          "name": "",
          "type": "string"
        },
        {
          "internalType": "bool",
          "name": "",
          "type": "bool"
        }
      ],
      "stateMutability": "view",
      "type": "function",
      "constant": true
    }
  ],
  "bytecode": "0x608060405234801561001057600080fd5b5033600160006101000a81548173ffffffffffffffffffffffffffffffffffffffff021916908373ffffffffffffffffffffffffffffffffffffffff160217905550610ef9806100616000396000f3fe608060405234801561001057600080fd5b506004361061004c5760003560e01c8063818a2994146100515780638b23d8751461006d5780638f2b91ea146100a0578063f851a440146100d4575b600080fd5b61006b6004803603810190610066919061098d565b6100f2565b005b6100876004803603810190610082919061094c565b6102a4565b6040516100979493929190610bb0565b60405180910390f35b6100ba60048036038101906100b5919061094c565b6105a2565b6040516100cb959493929190610c6b565b60405180910390f35b6100dc61081b565b6040516100e99190610b95565b60405180910390f35b600160009054906101000a900473ffffffffffffffffffffffffffffffffffffffff1673ffffffffffffffffffffffffffffffffffffffff163373ffffffffffffffffffffffffffffffffffffffff1614610182576040517f08c379a000000000000000000000000000000000000000000000000000000000815260040161017990610cfa565b60405180910390fd5b6040518060a00160405280858152602001848152602001838152602001828152602001600115158152506000826040516101bc9190610b7e565b908152602001604051809103902060008201518160000190805190602001906101e6929190610841565b506020820151816001019080519060200190610203929190610841565b506040820151816002019080519060200190610220929190610841565b50606082015181600301908051906020019061023d929190610841565b5060808201518160040160006101000a81548160ff0219169083151502179055509050507f5b93630a6e8094d935e3329a9bc9d517943d525511136733ade8d280cce21cb6818585856040516102969493929190610c0a565b60405180910390a150505050565b60608060606000806000866040516102bc9190610b7e565b90815260200160405180910390206040518060a00160405290816000820180546102e590610e22565b80601f016020809104026020016040519081016040528092919081815260200182805461031190610e22565b801561035e5780601f106103335761010080835404028352916020019161035e565b820191906000526020600020905b81548152906001019060200180831161034157829003601f168201915b5050505050815260200160018201805461037790610e22565b80601f01602080910402602001604051908101604052809291908181526020018280546103a390610e22565b80156103f05780601f106103c5576101008083540402835291602001916103f0565b820191906000526020600020905b8154815290600101906020018083116103d357829003601f168201915b5050505050815260200160028201805461040990610e22565b80601f016020809104026020016040519081016040528092919081815260200182805461043590610e22565b80156104825780601f1061045757610100808354040283529160200191610482565b820191906000526020600020905b81548152906001019060200180831161046557829003601f168201915b5050505050815260200160038201805461049b90610e22565b80601f01602080910402602001604051908101604052809291908181526020018280546104c790610e22565b80156105145780601f106104e957610100808354040283529160200191610514565b820191906000526020600020905b8154815290600101906020018083116104f757829003601f168201915b505050505081526020016004820160009054906101000a900460ff1615151515815250509050806080015161057e576040517f08c379a000000000000000000000000000000000000000000000000000000000815260040161057590610cda565b60405180910390fd5b80600001518160200151826040015183608001519450945094509450509193509193565b6000818051602081018201805184825260208301602085012081835280955050505050506000915090508060000180546105db90610e22565b80601f016020809104026020016040519081016040528092919081815260200182805461060790610e22565b80156106545780601f1061062957610100808354040283529160200191610654565b820191906000526020600020905b81548152906001019060200180831161063757829003601f168201915b50505050509080600101805461066990610e22565b80601f016020809104026020016040519081016040528092919081815260200182805461069590610e22565b80156106e25780601f106106b7576101008083540402835291602001916106e2565b820191906000526020600020905b8154815290600101906020018083116106c557829003601f168201915b5050505050908060020180546106f790610e22565b80601f016020809104026020016040519081016040528092919081815260200182805461072390610e22565b80156107705780601f1061074557610100808354040283529160200191610770565b820191906000526020600020905b81548152906001019060200180831161075357829003601f168201915b50505050509080600301805461078590610e22565b80601f01602080910402602001604051908101604052809291908181526020018280546107b190610e22565b80156107fe5780601f106107d3576101008083540402835291602001916107fe565b820191906000526020600020905b8154815290600101906020018083116107e157829003601f168201915b5050505050908060040160009054906101000a900460ff16905085565b600160009054906101000a900473ffffffffffffffffffffffffffffffffffffffff1681565b82805461084d90610e22565b90600052602060002090601f01602090048101928261086f57600085556108b6565b82601f1061088857805160ff19168380011785556108b6565b828001600101855582156108b6579182015b828111156108b557825182559160200191906001019061089a565b5b5090506108c391906108c7565b5090565b5b808211156108e05760008160009055506001016108c8565b5090565b60006108f76108f284610d4b565b610d1a565b90508281526020810184848401111561090f57600080fd5b61091a848285610de0565b509392505050565b600082601f83011261093357600080fd5b81356109438482602086016108e4565b91505092915050565b60006020828403121561095e57600080fd5b600082013567ffffffffffffffff81111561097857600080fd5b61098484828501610922565b91505092915050565b600080600080608085870312156109a357600080fd5b600085013567ffffffffffffffff8111156109bd57600080fd5b6109c987828801610922565b945050602085013567ffffffffffffffff8111156109e657600080fd5b6109f287828801610922565b935050604085013567ffffffffffffffff811115610a0f57600080fd5b610a1b87828801610922565b925050606085013567ffffffffffffffff811115610a3857600080fd5b610a4487828801610922565b91505092959194509250565b610a5981610da2565b82525050565b610a6881610db4565b82525050565b6000610a7982610d7b565b610a838185610d86565b9350610a93818560208601610def565b610a9c81610eb2565b840191505092915050565b6000610ab282610d7b565b610abc8185610d97565b9350610acc818560208601610def565b80840191505092915050565b6000610ae5601883610d86565b91507f4365727469666963617465206973206e6f742076616c696400000000000000006000830152602082019050919050565b6000610b25602183610d86565b91507f4f6e6c792061646d696e2063616e20697373756520636572746966696361746560008301527f73000000000000000000000000000000000000000000000000000000000000006020830152604082019050919050565b6000610b8a8284610aa7565b915081905092915050565b6000602082019050610baa6000830184610a50565b92915050565b60006080820190508181036000830152610bca8187610a6e565b90508181036020830152610bde8186610a6e565b90508181036040830152610bf28185610a6e565b9050610c016060830184610a5f565b95945050505050565b60006080820190508181036000830152610c248187610a6e565b90508181036020830152610c388186610a6e565b90508181036040830152610c4c8185610a6e565b90508181036060830152610c608184610a6e565b905095945050505050565b600060a0820190508181036000830152610c858188610a6e565b90508181036020830152610c998187610a6e565b90508181036040830152610cad8186610a6e565b90508181036060830152610cc18185610a6e565b9050610cd06080830184610a5f565b9695505050505050565b60006020820190508181036000830152610cf381610ad8565b9050919050565b60006020820190508181036000830152610d1381610b18565b9050919050565b6000604051905081810181811067ffffffffffffffff82111715610d4157610d40610e83565b5b8060405250919050565b600067ffffffffffffffff821115610d6657610d65610e83565b5b601f19601f8301169050602081019050919050565b600081519050919050565b600082825260208201905092915050565b600081905092915050565b6000610dad82610dc0565b9050919050565b60008115159050919050565b600073ffffffffffffffffffffffffffffffffffffffff82169050919050565b82818337600083830152505050565b60005b83811015610e0d578082015181840152602081019050610df2565b83811115610e1c576000848401525b50505050565b60006002820490506001821680610e3a57607f821691505b60208210811415610e4e57610e4d610e54565b5b50919050565b7f4e487b7100000000000000000000000000000000000000000000000000000000600052602260045260246000fd5b7f4e487b7100000000000000000000000000000000000000000000000000000000600052604160045260246000fd5b6000601f19601f830116905091905056fea2646970667358221220aababb82ae8b87653be4b2e13e6e74ac66689dfe4fcbcc382b1798e4591443e764736f6c63430008000033",
  "immutableReferences": {},
  "source": "// SPDX-License-Identifier: MIT\r\npragma solidity ^0.8.0;\r\n\r\ncontract CertificateRegistry {\r\n    struct Certificate {\r\n        string recipientName;\r\n        string eventName;\r\n        string issuedDate;\r\n        string certHash;\r\n        bool isValid;\r\n    }\r\n\r\n    mapping(string => Certificate) public certificates;\r\n    address public admin;\r\n\r\n    event CertificateIssued(string certHash, string recipientName, string eventName, string issuedDate);\r\n\r\n    constructor() {\r\n        admin = msg.sender;\r\n    }\r\n\r\n    function issueCertificate(\r\n        string memory _recipientName,\r\n        string memory _eventName,\r\n        string memory _issuedDate,\r\n        string memory _certHash\r\n    ) public {\r\n        require(msg.sender == admin, \"Only admin can issue certificates\");\r\n\r\n        certificates[_certHash] = Certificate(\r\n            _recipientName,\r\n            _eventName,\r\n            _issuedDate,\r\n            _certHash,\r\n            true\r\n        );\r\n\r\n        emit CertificateIssued(_certHash, _recipientName, _eventName, _issuedDate);\r\n    }\r\n\r\n    function verifyCertificate(string memory _certHash) \r\n        public \r\n        view \r\n        returns (string memory, string memory, string memory, bool) \r\n    {\r\n        Certificate memory cert = certificates[_certHash];\r\n        require (cert.isValid, \"Certificate is not valid\");\r\n        return (cert.recipientName, cert.eventName, cert.issuedDate, cert.isValid);\r\n    }\r\n}\r\n",
  "sourcePath": "C:\\Users\\PC\\Documents\\GitHub\\Cert\\contract\\contracts\\CertificateRegistry.sol",
  "compiler": {
    "name": "solc",
    "version": "0.8.0+commit.c7dfd78e.Emscripten.clang"
  },
  "schemaVersion": "3.4.16",
  "updatedAt": "2025-05-21T06:29:44.249Z",
  "networkType": "ethereum",
  "devdoc": {
    "kind": "dev",
    "methods": {},
    "version": 1
  },
  "userdoc": {
    "kind": "user",
    "methods": {},
    "version": 1
  }
}