{
  "contractName": "CertificateRegistry",
  "abi": [
    {
      "inputs": [],
      "stateMutability": "nonpayable",
      "type": "constructor"
    },
    {
      "anonymous": false,
      "inputs": [
        {
          "indexed": false,
          "internalType": "string",
          "name": "certHash",
          "type": "string"
        },
        {
          "indexed": false,
          "internalType": "string",
          "name": "recipientName",
          "type": "string"
        },
        {
          "indexed": false,
          "internalType": "string",
          "name": "eventName",
          "type": "string"
        },
        {
          "indexed": false,
          "internalType": "string",
          "name": "issuedDate",
          "type": "string"
        }
      ],
      "name": "CertificateIssued",
      "type": "event"
    },
    {
      "anonymous": false,
      "inputs": [
        {
          "indexed": false,
          "internalType": "string",
          "name": "certHash",
          "type": "string"
        }
      ],
      "name": "CertificateRevoked",
      "type": "event"
    },
    {
      "inputs": [],
      "name": "admin",
      "outputs": [
        {
          "internalType": "address",
          "name": "",
          "type": "address"
        }
      ],
      "stateMutability": "view",
      "type": "function",
      "constant": true
    },
    {
      "inputs": [
        {
          "internalType": "string",
          "name": "_recipientName",
          "type": "string"
        },
        {
          "internalType": "string",
          "name": "_eventName",
          "type": "string"
        },
        {
          "internalType": "string",
          "name": "_issuedDate",
          "type": "string"
        },
        {
          "internalType": "string",
          "name": "_certHash",
          "type": "string"
        },
        {
          "internalType": "address",
          "name": "_studentAddress",
          "type": "address"
        }
      ],
      "name": "issueCertificate",
      "outputs": [],
      "stateMutability": "nonpayable",
      "type": "function"
    },
    {
      "inputs": [
        {
          "internalType": "string",
          "name": "_certHash",
          "type": "string"
        }
      ],
      "name": "verifyCertificate",
      "outputs": [
        {
          "internalType": "string",
          "name": "",
          "type": "string"
        },
        {
          "internalType": "string",
          "name": "",
          "type": "string"
        },
        {
          "internalType": "string",
          "name": "",
          "type": "string"
        },
        {
          "internalType": "bool",
          "name": "",
          "type": "bool"
        }
      ],
      "stateMutability": "view",
      "type": "function",
      "constant": true
    },
    {
      "inputs": [
        {
          "internalType": "string",
          "name": "_certHash",
          "type": "string"
        }
      ],
      "name": "revokeCertificate",
      "outputs": [],
      "stateMutability": "nonpayable",
      "type": "function"
    },
    {
      "inputs": [
        {
          "internalType": "string",
          "name": "_certHash",
          "type": "string"
        }
      ],
      "name": "getCertificate",
      "outputs": [
        {
          "components": [
            {
              "internalType": "string",
              "name": "recipientName",
              "type": "string"
            },
            {
              "internalType": "string",
              "name": "eventName",
              "type": "string"
            },
            {
              "internalType": "string",
              "name": "issuedDate",
              "type": "string"
            },
            {
              "internalType": "string",
              "name": "certHash",
              "type": "string"
            },
            {
              "internalType": "bool",
              "name": "isValid",
              "type": "bool"
            }
          ],
          "internalType": "struct CertificateRegistry.Certificate",
          "name": "",
          "type": "tuple"
        }
      ],
      "stateMutability": "view",
      "type": "function",
      "constant": true
    },
    {
      "inputs": [
        {
          "internalType": "address",
          "name": "_owner",
          "type": "address"
        }
      ],
      "name": "getCertificatesByOwner",
      "outputs": [
        {
          "components": [
            {
              "internalType": "string",
              "name": "recipientName",
              "type": "string"
            },
            {
              "internalType": "string",
              "name": "eventName",
              "type": "string"
            },
            {
              "internalType": "string",
              "name": "issuedDate",
              "type": "string"
            },
            {
              "internalType": "string",
              "name": "certHash",
              "type": "string"
            },
            {
              "internalType": "bool",
              "name": "isValid",
              "type": "bool"
            }
          ],
          "internalType": "struct CertificateRegistry.Certificate[]",
          "name": "",
          "type": "tuple[]"
        }
      ],
      "stateMutability": "view",
      "type": "function",
      "constant": true
    }
  ],
  "bytecode": "0x608060405234801561001057600080fd5b5033600260006101000a81548173ffffffffffffffffffffffffffffffffffffffff021916908373ffffffffffffffffffffffffffffffffffffffff160217905550611b1d806100616000396000f3fe608060405234801561001057600080fd5b50600436106100625760003560e01c8063142e1542146100675780631db7384014610083578063229efd24146100b35780638b23d875146100cf578063ed0f2e7514610102578063f851a44014610132575b600080fd5b610081600480360381019061007c9190611169565b610150565b005b61009d60048036038101906100989190611140565b6102c1565b6040516100aa91906116ba565b60405180910390f35b6100cd60048036038101906100c891906111aa565b61078f565b005b6100e960048036038101906100e49190611169565b610a30565b6040516100f994939291906116fe565b60405180910390f35b61011c60048036038101906101179190611169565b610d2e565b6040516101299190611839565b60405180910390f35b61013a610fc9565b604051610147919061169f565b60405180910390f35b600260009054906101000a900473ffffffffffffffffffffffffffffffffffffffff1673ffffffffffffffffffffffffffffffffffffffff163373ffffffffffffffffffffffffffffffffffffffff16146101e0576040517f08c379a00000000000000000000000000000000000000000000000000000000081526004016101d7906117d9565b60405180910390fd5b6000816040516101f09190611688565b908152602001604051809103902060040160009054906101000a900460ff1661024e576040517f08c379a000000000000000000000000000000000000000000000000000000000815260040161024590611819565b60405180910390fd5b6000808260405161025f9190611688565b908152602001604051809103902060040160006101000a81548160ff0219169083151502179055507f266095b5af7e2323760fef151f1d78896740cd2cc1b73a6357ff9e4c3fdae740816040516102b691906116dc565b60405180910390a150565b60606000600160008473ffffffffffffffffffffffffffffffffffffffff1673ffffffffffffffffffffffffffffffffffffffff168152602001908152602001600020805480602002602001604051908101604052809291908181526020016000905b828210156103d0578382906000526020600020018054610343906119b7565b80601f016020809104026020016040519081016040528092919081815260200182805461036f906119b7565b80156103bc5780601f10610391576101008083540402835291602001916103bc565b820191906000526020600020905b81548152906001019060200180831161039f57829003601f168201915b505050505081526020019060010190610324565b5050505090506000815167ffffffffffffffff811115610419577f4e487b7100000000000000000000000000000000000000000000000000000000600052604160045260246000fd5b60405190808252806020026020018201604052801561045257816020015b61043f610fef565b8152602001906001900390816104375790505b50905060005b825181101561078457600083828151811061049c577f4e487b7100000000000000000000000000000000000000000000000000000000600052603260045260246000fd5b60200260200101516040516104b19190611688565b90815260200160405180910390206040518060a00160405290816000820180546104da906119b7565b80601f0160208091040260200160405190810160405280929190818152602001828054610506906119b7565b80156105535780601f1061052857610100808354040283529160200191610553565b820191906000526020600020905b81548152906001019060200180831161053657829003601f168201915b5050505050815260200160018201805461056c906119b7565b80601f0160208091040260200160405190810160405280929190818152602001828054610598906119b7565b80156105e55780601f106105ba576101008083540402835291602001916105e5565b820191906000526020600020905b8154815290600101906020018083116105c857829003601f168201915b505050505081526020016002820180546105fe906119b7565b80601f016020809104026020016040519081016040528092919081815260200182805461062a906119b7565b80156106775780601f1061064c57610100808354040283529160200191610677565b820191906000526020600020905b81548152906001019060200180831161065a57829003601f168201915b50505050508152602001600382018054610690906119b7565b80601f01602080910402602001604051908101604052809291908181526020018280546106bc906119b7565b80156107095780601f106106de57610100808354040283529160200191610709565b820191906000526020600020905b8154815290600101906020018083116106ec57829003601f168201915b505050505081526020016004820160009054906101000a900460ff161515151581525050828281518110610766577f4e487b7100000000000000000000000000000000000000000000000000000000600052603260045260246000fd5b6020026020010181905250808061077c906119e9565b915050610458565b508092505050919050565b600260009054906101000a900473ffffffffffffffffffffffffffffffffffffffff1673ffffffffffffffffffffffffffffffffffffffff163373ffffffffffffffffffffffffffffffffffffffff161461081f576040517f08c379a0000000000000000000000000000000000000000000000000000000008152600401610816906117d9565b60405180910390fd5b60008260405161082f9190611688565b908152602001604051809103902060040160009054906101000a900460ff161561088e576040517f08c379a0000000000000000000000000000000000000000000000000000000008152600401610885906117b9565b60405180910390fd5b60006040518060a00160405280878152602001868152602001858152602001848152602001600115158152509050806000846040516108cd9190611688565b908152602001604051809103902060008201518160000190805190602001906108f7929190611020565b506020820151816001019080519060200190610914929190611020565b506040820151816002019080519060200190610931929190611020565b50606082015181600301908051906020019061094e929190611020565b5060808201518160040160006101000a81548160ff021916908315150217905550905050600160008373ffffffffffffffffffffffffffffffffffffffff1673ffffffffffffffffffffffffffffffffffffffff168152602001908152602001600020839080600181540180825580915050600190039060005260206000200160009091909190915090805190602001906109ea929190611020565b507f5b93630a6e8094d935e3329a9bc9d517943d525511136733ade8d280cce21cb683878787604051610a209493929190611758565b60405180910390a1505050505050565b6060806060600080600086604051610a489190611688565b90815260200160405180910390206040518060a0016040529081600082018054610a71906119b7565b80601f0160208091040260200160405190810160405280929190818152602001828054610a9d906119b7565b8015610aea5780601f10610abf57610100808354040283529160200191610aea565b820191906000526020600020905b815481529060010190602001808311610acd57829003601f168201915b50505050508152602001600182018054610b03906119b7565b80601f0160208091040260200160405190810160405280929190818152602001828054610b2f906119b7565b8015610b7c5780601f10610b5157610100808354040283529160200191610b7c565b820191906000526020600020905b815481529060010190602001808311610b5f57829003601f168201915b50505050508152602001600282018054610b95906119b7565b80601f0160208091040260200160405190810160405280929190818152602001828054610bc1906119b7565b8015610c0e5780601f10610be357610100808354040283529160200191610c0e565b820191906000526020600020905b815481529060010190602001808311610bf157829003601f168201915b50505050508152602001600382018054610c27906119b7565b80601f0160208091040260200160405190810160405280929190818152602001828054610c53906119b7565b8015610ca05780601f10610c7557610100808354040283529160200191610ca0565b820191906000526020600020905b815481529060010190602001808311610c8357829003601f168201915b505050505081526020016004820160009054906101000a900460ff16151515158152505090508060800151610d0a576040517f08c379a0000000000000000000000000000000000000000000000000000000008152600401610d01906117f9565b60405180910390fd5b80600001518160200151826040015183608001519450945094509450509193509193565b610d36610fef565b600082604051610d469190611688565b90815260200160405180910390206040518060a0016040529081600082018054610d6f906119b7565b80601f0160208091040260200160405190810160405280929190818152602001828054610d9b906119b7565b8015610de85780601f10610dbd57610100808354040283529160200191610de8565b820191906000526020600020905b815481529060010190602001808311610dcb57829003601f168201915b50505050508152602001600182018054610e01906119b7565b80601f0160208091040260200160405190810160405280929190818152602001828054610e2d906119b7565b8015610e7a5780601f10610e4f57610100808354040283529160200191610e7a565b820191906000526020600020905b815481529060010190602001808311610e5d57829003601f168201915b50505050508152602001600282018054610e93906119b7565b80601f0160208091040260200160405190810160405280929190818152602001828054610ebf906119b7565b8015610f0c5780601f10610ee157610100808354040283529160200191610f0c565b820191906000526020600020905b815481529060010190602001808311610eef57829003601f168201915b50505050508152602001600382018054610f25906119b7565b80601f0160208091040260200160405190810160405280929190818152602001828054610f51906119b7565b8015610f9e5780601f10610f7357610100808354040283529160200191610f9e565b820191906000526020600020905b815481529060010190602001808311610f8157829003601f168201915b505050505081526020016004820160009054906101000a900460ff1615151515815250509050919050565b600260009054906101000a900473ffffffffffffffffffffffffffffffffffffffff1681565b6040518060a00160405280606081526020016060815260200160608152602001606081526020016000151581525090565b82805461102c906119b7565b90600052602060002090601f01602090048101928261104e5760008555611095565b82601f1061106757805160ff1916838001178555611095565b82800160010185558215611095579182015b82811115611094578251825591602001919060010190611079565b5b5090506110a291906110a6565b5090565b5b808211156110bf5760008160009055506001016110a7565b5090565b60006110d66110d18461188c565b61185b565b9050828152602081018484840111156110ee57600080fd5b6110f9848285611975565b509392505050565b60008135905061111081611ad0565b92915050565b600082601f83011261112757600080fd5b81356111378482602086016110c3565b91505092915050565b60006020828403121561115257600080fd5b600061116084828501611101565b91505092915050565b60006020828403121561117b57600080fd5b600082013567ffffffffffffffff81111561119557600080fd5b6111a184828501611116565b91505092915050565b600080600080600060a086880312156111c257600080fd5b600086013567ffffffffffffffff8111156111dc57600080fd5b6111e888828901611116565b955050602086013567ffffffffffffffff81111561120557600080fd5b61121188828901611116565b945050604086013567ffffffffffffffff81111561122e57600080fd5b61123a88828901611116565b935050606086013567ffffffffffffffff81111561125757600080fd5b61126388828901611116565b925050608061127488828901611101565b9150509295509295909350565b600061128d8383611572565b905092915050565b61129e8161192d565b82525050565b60006112af826118cc565b6112b981856118ef565b9350836020820285016112cb856118bc565b8060005b8581101561130757848403895281516112e88582611281565b94506112f3836118e2565b925060208a019950506001810190506112cf565b50829750879550505050505092915050565b6113228161193f565b82525050565b6113318161193f565b82525050565b6000611342826118d7565b61134c8185611900565b935061135c818560208601611984565b61136581611abf565b840191505092915050565b600061137b826118d7565b6113858185611911565b9350611395818560208601611984565b61139e81611abf565b840191505092915050565b60006113b4826118d7565b6113be8185611922565b93506113ce818560208601611984565b80840191505092915050565b60006113e7602983611911565b91507f436572746966696361746520776974682074686973206861736820616c72656160008301527f64792065786973747300000000000000000000000000000000000000000000006020830152604082019050919050565b600061144d602283611911565b91507f4f6e6c792061646d696e2063616e20706572666f726d2074686973206163746960008301527f6f6e0000000000000000000000000000000000000000000000000000000000006020830152604082019050919050565b60006114b3602983611911565b91507f4365727469666963617465206973206e6f742076616c6964206f7220646f657360008301527f6e277420657869737400000000000000000000000000000000000000000000006020830152604082019050919050565b6000611519602c83611911565b91507f436572746966696361746520616c7265616479207265766f6b6564206f72206460008301527f6f65736e277420657869737400000000000000000000000000000000000000006020830152604082019050919050565b600060a083016000830151848203600086015261158f8282611337565b915050602083015184820360208601526115a98282611337565b915050604083015184820360408601526115c38282611337565b915050606083015184820360608601526115dd8282611337565b91505060808301516115f26080860182611319565b508091505092915050565b600060a083016000830151848203600086015261161a8282611337565b915050602083015184820360208601526116348282611337565b9150506040830151848203604086015261164e8282611337565b915050606083015184820360608601526116688282611337565b915050608083015161167d6080860182611319565b508091505092915050565b600061169482846113a9565b915081905092915050565b60006020820190506116b46000830184611295565b92915050565b600060208201905081810360008301526116d481846112a4565b905092915050565b600060208201905081810360008301526116f68184611370565b905092915050565b600060808201905081810360008301526117188187611370565b9050818103602083015261172c8186611370565b905081810360408301526117408185611370565b905061174f6060830184611328565b95945050505050565b600060808201905081810360008301526117728187611370565b905081810360208301526117868186611370565b9050818103604083015261179a8185611370565b905081810360608301526117ae8184611370565b905095945050505050565b600060208201905081810360008301526117d2816113da565b9050919050565b600060208201905081810360008301526117f281611440565b9050919050565b60006020820190508181036000830152611812816114a6565b9050919050565b600060208201905081810360008301526118328161150c565b9050919050565b6000602082019050818103600083015261185381846115fd565b905092915050565b6000604051905081810181811067ffffffffffffffff8211171561188257611881611a90565b5b8060405250919050565b600067ffffffffffffffff8211156118a7576118a6611a90565b5b601f19601f8301169050602081019050919050565b6000819050602082019050919050565b600081519050919050565b600081519050919050565b6000602082019050919050565b600082825260208201905092915050565b600082825260208201905092915050565b600082825260208201905092915050565b600081905092915050565b60006119388261194b565b9050919050565b60008115159050919050565b600073ffffffffffffffffffffffffffffffffffffffff82169050919050565b6000819050919050565b82818337600083830152505050565b60005b838110156119a2578082015181840152602081019050611987565b838111156119b1576000848401525b50505050565b600060028204905060018216806119cf57607f821691505b602082108114156119e3576119e2611a61565b5b50919050565b60006119f48261196b565b91507fffffffffffffffffffffffffffffffffffffffffffffffffffffffffffffffff821415611a2757611a26611a32565b5b600182019050919050565b7f4e487b7100000000000000000000000000000000000000000000000000000000600052601160045260246000fd5b7f4e487b7100000000000000000000000000000000000000000000000000000000600052602260045260246000fd5b7f4e487b7100000000000000000000000000000000000000000000000000000000600052604160045260246000fd5b6000601f19601f8301169050919050565b611ad98161192d565b8114611ae457600080fd5b5056fea26469706673582212203618235a4be40b9115978a9eadab27dbbebd5ff130ab174ee983c636e949f46264736f6c63430008000033",
  "immutableReferences": {},
  "source": "// SPDX-License-Identifier: MIT\r\npragma solidity ^0.8.0;\r\n\r\ncontract CertificateRegistry {\r\n    struct Certificate {\r\n        string recipientName;\r\n        string eventName;\r\n        string issuedDate;\r\n        string certHash;\r\n        bool isValid;\r\n    }\r\n\r\n    mapping(string => Certificate) private certificates;\r\n    mapping(address => string[]) private ownerToCertHashes;\r\n\r\n    address public admin;\r\n\r\n    event CertificateIssued(string certHash, string recipientName, string eventName, string issuedDate);\r\n    event CertificateRevoked(string certHash);\r\n\r\n    modifier onlyAdmin() {\r\n        require(msg.sender == admin, \"Only admin can perform this action\");\r\n        _;\r\n    }\r\n\r\n    constructor() {\r\n        admin = msg.sender;\r\n    }\r\n\r\n    function issueCertificate(\r\n        string memory _recipientName,\r\n        string memory _eventName,\r\n        string memory _issuedDate,\r\n        string memory _certHash,\r\n        address _studentAddress\r\n    ) public onlyAdmin {\r\n        require(!certificates[_certHash].isValid, \"Certificate with this hash already exists\");\r\n\r\n        Certificate memory newCert = Certificate({\r\n            recipientName: _recipientName,\r\n            eventName: _eventName,\r\n            issuedDate: _issuedDate,\r\n            certHash: _certHash,\r\n            isValid: true\r\n        });\r\n\r\n        certificates[_certHash] = newCert;\r\n        ownerToCertHashes[_studentAddress].push(_certHash);\r\n\r\n        emit CertificateIssued(_certHash, _recipientName, _eventName, _issuedDate);\r\n    }\r\n\r\n    function verifyCertificate(string memory _certHash) \r\n        public \r\n        view \r\n        returns (string memory, string memory, string memory, bool) \r\n    {\r\n        Certificate memory cert = certificates[_certHash];\r\n        require(cert.isValid, \"Certificate is not valid or doesn't exist\");\r\n        return (cert.recipientName, cert.eventName, cert.issuedDate, cert.isValid);\r\n    }\r\n\r\n    function revokeCertificate(string memory _certHash) public onlyAdmin {\r\n        require(certificates[_certHash].isValid, \"Certificate already revoked or doesn't exist\");\r\n        certificates[_certHash].isValid = false;\r\n\r\n        emit CertificateRevoked(_certHash);\r\n    }\r\n\r\n    function getCertificate(string memory _certHash) public view returns (Certificate memory) {\r\n        return certificates[_certHash];\r\n    }\r\n\r\n    function getCertificatesByOwner(address _owner) public view returns (Certificate[] memory) {\r\n        string[] memory hashes = ownerToCertHashes[_owner];\r\n        Certificate[] memory certList = new Certificate[](hashes.length);\r\n\r\n        for (uint i = 0; i < hashes.length; i++) {\r\n            certList[i] = certificates[hashes[i]];\r\n        }\r\n\r\n        return certList;\r\n    }\r\n}\r\n",
  "sourcePath": "C:\\Users\\PC\\Documents\\GitHub\\Cert\\contract\\contracts\\CertificateRegistry.sol",
  "compiler": {
    "name": "solc",
    "version": "0.8.0+commit.c7dfd78e.Emscripten.clang"
  },
  "schemaVersion": "3.4.16",
  "updatedAt": "2025-05-21T08:29:44.303Z",
  "networkType": "ethereum",
  "devdoc": {
    "kind": "dev",
    "methods": {},
    "version": 1
  },
  "userdoc": {
    "kind": "user",
    "methods": {},
    "version": 1
  }
}